{
  "contractName": "SolnSquareVerifier",
  "abi": [
    {
      "constant": true,
      "inputs": [
        {
          "name": "interfaceId",
          "type": "bytes4"
        }
      ],
      "name": "supportsInterface",
      "outputs": [
        {
          "name": "",
          "type": "bool"
        }
      ],
      "payable": false,
      "stateMutability": "view",
      "type": "function"
    },
    {
      "constant": true,
      "inputs": [],
      "name": "name",
      "outputs": [
        {
          "name": "",
          "type": "string"
        }
      ],
      "payable": false,
      "stateMutability": "view",
      "type": "function"
    },
    {
      "constant": true,
      "inputs": [
        {
          "name": "tokenId",
          "type": "uint256"
        }
      ],
      "name": "getApproved",
      "outputs": [
        {
          "name": "",
          "type": "address"
        }
      ],
      "payable": false,
      "stateMutability": "view",
      "type": "function"
    },
    {
      "constant": false,
      "inputs": [
        {
          "name": "to",
          "type": "address"
        },
        {
          "name": "tokenId",
          "type": "uint256"
        }
      ],
      "name": "approve",
      "outputs": [],
      "payable": false,
      "stateMutability": "nonpayable",
      "type": "function"
    },
    {
      "constant": true,
      "inputs": [],
      "name": "totalSupply",
      "outputs": [
        {
          "name": "",
          "type": "uint256"
        }
      ],
      "payable": false,
      "stateMutability": "view",
      "type": "function"
    },
    {
      "constant": false,
      "inputs": [
        {
          "name": "from",
          "type": "address"
        },
        {
          "name": "to",
          "type": "address"
        },
        {
          "name": "tokenId",
          "type": "uint256"
        }
      ],
      "name": "transferFrom",
      "outputs": [],
      "payable": false,
      "stateMutability": "nonpayable",
      "type": "function"
    },
    {
      "constant": false,
      "inputs": [
        {
          "name": "_myid",
          "type": "bytes32"
        },
        {
          "name": "_result",
          "type": "string"
        }
      ],
      "name": "__callback",
      "outputs": [],
      "payable": false,
      "stateMutability": "nonpayable",
      "type": "function"
    },
    {
      "constant": true,
      "inputs": [
        {
          "name": "owner",
          "type": "address"
        },
        {
          "name": "index",
          "type": "uint256"
        }
      ],
      "name": "tokenOfOwnerByIndex",
      "outputs": [
        {
          "name": "",
          "type": "uint256"
        }
      ],
      "payable": false,
      "stateMutability": "view",
      "type": "function"
    },
    {
      "constant": false,
      "inputs": [
        {
          "name": "_myid",
          "type": "bytes32"
        },
        {
          "name": "_result",
          "type": "string"
        },
        {
          "name": "_proof",
          "type": "bytes"
        }
      ],
      "name": "__callback",
      "outputs": [],
      "payable": false,
      "stateMutability": "nonpayable",
      "type": "function"
    },
    {
      "constant": false,
      "inputs": [
        {
          "name": "to",
          "type": "address"
        },
        {
          "name": "tokenId",
          "type": "uint256"
        }
      ],
      "name": "mint",
      "outputs": [
        {
          "name": "success",
          "type": "bool"
        }
      ],
      "payable": false,
      "stateMutability": "nonpayable",
      "type": "function"
    },
    {
      "constant": false,
      "inputs": [
        {
          "name": "from",
          "type": "address"
        },
        {
          "name": "to",
          "type": "address"
        },
        {
          "name": "tokenId",
          "type": "uint256"
        }
      ],
      "name": "safeTransferFrom",
      "outputs": [],
      "payable": false,
      "stateMutability": "nonpayable",
      "type": "function"
    },
    {
      "constant": true,
      "inputs": [
        {
          "name": "index",
          "type": "uint256"
        }
      ],
      "name": "tokenByIndex",
      "outputs": [
        {
          "name": "",
          "type": "uint256"
        }
      ],
      "payable": false,
      "stateMutability": "view",
      "type": "function"
    },
    {
      "constant": true,
      "inputs": [
        {
          "name": "tokenId",
          "type": "uint256"
        }
      ],
      "name": "ownerOf",
      "outputs": [
        {
          "name": "",
          "type": "address"
        }
      ],
      "payable": false,
      "stateMutability": "view",
      "type": "function"
    },
    {
      "constant": true,
      "inputs": [],
      "name": "returnContractOwner",
      "outputs": [
        {
          "name": "",
          "type": "address"
        }
      ],
      "payable": false,
      "stateMutability": "view",
      "type": "function"
    },
    {
      "constant": true,
      "inputs": [
        {
          "name": "owner",
          "type": "address"
        }
      ],
      "name": "balanceOf",
      "outputs": [
        {
          "name": "",
          "type": "uint256"
        }
      ],
      "payable": false,
      "stateMutability": "view",
      "type": "function"
    },
    {
      "constant": true,
      "inputs": [],
      "name": "owner",
      "outputs": [
        {
          "name": "",
          "type": "address"
        }
      ],
      "payable": false,
      "stateMutability": "view",
      "type": "function"
    },
    {
      "constant": true,
      "inputs": [],
      "name": "symbol",
      "outputs": [
        {
          "name": "",
          "type": "string"
        }
      ],
      "payable": false,
      "stateMutability": "view",
      "type": "function"
    },
    {
      "constant": false,
      "inputs": [
        {
          "name": "to",
          "type": "address"
        },
        {
          "name": "approved",
          "type": "bool"
        }
      ],
      "name": "setApprovalForAll",
      "outputs": [],
      "payable": false,
      "stateMutability": "nonpayable",
      "type": "function"
    },
    {
      "constant": false,
      "inputs": [
        {
          "name": "from",
          "type": "address"
        },
        {
          "name": "to",
          "type": "address"
        },
        {
          "name": "tokenId",
          "type": "uint256"
        },
        {
          "name": "_data",
          "type": "bytes"
        }
      ],
      "name": "safeTransferFrom",
      "outputs": [],
      "payable": false,
      "stateMutability": "nonpayable",
      "type": "function"
    },
    {
      "constant": true,
      "inputs": [
        {
          "name": "tokenId",
          "type": "uint256"
        }
      ],
      "name": "tokenURI",
      "outputs": [
        {
          "name": "",
          "type": "string"
        }
      ],
      "payable": false,
      "stateMutability": "view",
      "type": "function"
    },
    {
      "constant": false,
      "inputs": [
        {
          "name": "ipaused",
          "type": "bool"
        }
      ],
      "name": "setPauseState",
      "outputs": [],
      "payable": false,
      "stateMutability": "nonpayable",
      "type": "function"
    },
    {
      "constant": true,
      "inputs": [],
      "name": "baseTokenURI",
      "outputs": [
        {
          "name": "",
          "type": "string"
        }
      ],
      "payable": false,
      "stateMutability": "view",
      "type": "function"
    },
    {
      "constant": true,
      "inputs": [
        {
          "name": "owner",
          "type": "address"
        },
        {
          "name": "operator",
          "type": "address"
        }
      ],
      "name": "isApprovedForAll",
      "outputs": [
        {
          "name": "",
          "type": "bool"
        }
      ],
      "payable": false,
      "stateMutability": "view",
      "type": "function"
    },
    {
      "constant": false,
      "inputs": [
        {
          "name": "newOwner",
          "type": "address"
        }
      ],
      "name": "transferOwnership",
      "outputs": [],
      "payable": false,
      "stateMutability": "nonpayable",
      "type": "function"
    },
    {
      "constant": false,
      "inputs": [
        {
          "name": "a",
          "type": "uint256[2]"
        },
        {
          "name": "a_p",
          "type": "uint256[2]"
        },
        {
          "name": "b",
          "type": "uint256[2][2]"
        },
        {
          "name": "b_p",
          "type": "uint256[2]"
        },
        {
          "name": "c",
          "type": "uint256[2]"
        },
        {
          "name": "c_p",
          "type": "uint256[2]"
        },
        {
          "name": "h",
          "type": "uint256[2]"
        },
        {
          "name": "k",
          "type": "uint256[2]"
        },
        {
          "name": "input",
          "type": "uint256[2]"
        }
      ],
      "name": "verifyTx",
      "outputs": [
        {
          "name": "r",
          "type": "bool"
        }
      ],
      "payable": false,
      "stateMutability": "nonpayable",
      "type": "function"
    },
    {
      "inputs": [
        {
          "name": "name",
          "type": "string"
        },
        {
          "name": "symbol",
          "type": "string"
        }
      ],
      "payable": false,
      "stateMutability": "nonpayable",
      "type": "constructor"
    },
    {
      "anonymous": false,
      "inputs": [
        {
          "indexed": true,
          "name": "solAddress",
          "type": "address"
        },
        {
          "indexed": true,
          "name": "index",
          "type": "uint256"
        }
      ],
      "name": "SolutionAdded",
      "type": "event"
    },
    {
      "anonymous": false,
      "inputs": [
        {
          "indexed": false,
          "name": "s",
          "type": "string"
        }
      ],
      "name": "Verified",
      "type": "event"
    },
    {
      "anonymous": false,
      "inputs": [
        {
          "indexed": true,
          "name": "from",
          "type": "address"
        },
        {
          "indexed": true,
          "name": "to",
          "type": "address"
        },
        {
          "indexed": true,
          "name": "tokenId",
          "type": "uint256"
        }
      ],
      "name": "Transfer",
      "type": "event"
    },
    {
      "anonymous": false,
      "inputs": [
        {
          "indexed": true,
          "name": "owner",
          "type": "address"
        },
        {
          "indexed": true,
          "name": "approved",
          "type": "address"
        },
        {
          "indexed": true,
          "name": "tokenId",
          "type": "uint256"
        }
      ],
      "name": "Approval",
      "type": "event"
    },
    {
      "anonymous": false,
      "inputs": [
        {
          "indexed": true,
          "name": "owner",
          "type": "address"
        },
        {
          "indexed": true,
          "name": "operator",
          "type": "address"
        },
        {
          "indexed": false,
          "name": "approved",
          "type": "bool"
        }
      ],
      "name": "ApprovalForAll",
      "type": "event"
    },
    {
      "anonymous": false,
      "inputs": [
        {
          "indexed": false,
          "name": "callingAddress",
          "type": "address"
        }
      ],
      "name": "Paused",
      "type": "event"
    },
    {
      "anonymous": false,
      "inputs": [
        {
          "indexed": false,
          "name": "callingAddress",
          "type": "address"
        }
      ],
      "name": "Unpaused",
      "type": "event"
    },
    {
      "anonymous": false,
      "inputs": [
        {
          "indexed": false,
          "name": "newOwner",
          "type": "address"
        }
      ],
      "name": "OwnershipTransfered",
      "type": "event"
    },
    {
      "constant": false,
      "inputs": [
        {
          "name": "a",
          "type": "uint256[2]"
        },
        {
          "name": "a_p",
          "type": "uint256[2]"
        },
        {
          "name": "b",
          "type": "uint256[2][2]"
        },
        {
          "name": "b_p",
          "type": "uint256[2]"
        },
        {
          "name": "c",
          "type": "uint256[2]"
        },
        {
          "name": "c_p",
          "type": "uint256[2]"
        },
        {
          "name": "h",
          "type": "uint256[2]"
        },
        {
          "name": "k",
          "type": "uint256[2]"
        },
        {
          "name": "input",
          "type": "uint256[2]"
        }
      ],
      "name": "addSolution",
      "outputs": [
        {
          "name": "r",
          "type": "bool"
        }
      ],
      "payable": false,
      "stateMutability": "nonpayable",
      "type": "function"
    },
    {
      "constant": false,
      "inputs": [
        {
          "name": "input",
          "type": "uint256[2]"
        },
        {
          "name": "to",
          "type": "address"
        }
      ],
      "name": "mintNewToken",
      "outputs": [
        {
          "name": "r",
          "type": "bool"
        }
      ],
      "payable": false,
      "stateMutability": "nonpayable",
      "type": "function"
    }
  ],
  "bytecode": "0x60806040523480156200001157600080fd5b50604051620054e0380380620054e0833981018060405260408110156200003757600080fd5b8101908080516401000000008111156200005057600080fd5b828101905060208101848111156200006757600080fd5b81518560018202830111640100000000821117156200008557600080fd5b50509291906020018051640100000000811115620000a257600080fd5b82810190506020810184811115620000b957600080fd5b8151856001820283011164010000000082111715620000d757600080fd5b5050929190505050818181816040518060600160405280603f8152602001620054a1603f9139336000806101000a81548173ffffffffffffffffffffffffffffffffffffffff021916908373ffffffffffffffffffffffffffffffffffffffff1602179055507f9736aeb40a8f30a5c076a9897428fdf7ec0e909c96dce63533664c9b5c835da66000809054906101000a900473ffffffffffffffffffffffffffffffffffffffff16604051808273ffffffffffffffffffffffffffffffffffffffff1673ffffffffffffffffffffffffffffffffffffffff16815260200191505060405180910390a160008060146101000a81548160ff021916908315150217905550620002186301ffc9a77c01000000000000000000000000000000000000000000000000000000000262000333640100000000026401000000009004565b620002556380ac58cd7c01000000000000000000000000000000000000000000000000000000000262000333640100000000026401000000009004565b6200029263780e9d637c01000000000000000000000000000000000000000000000000000000000262000333640100000000026401000000009004565b82600f9080519060200190620002aa929190620003ef565b508160109080519060200190620002c3929190620003ef565b508060119080519060200190620002dc929190620003ef565b5050505033601360006101000a81548173ffffffffffffffffffffffffffffffffffffffff021916908373ffffffffffffffffffffffffffffffffffffffff1602179055505050600060148190555050506200049e565b63ffffffff7c010000000000000000000000000000000000000000000000000000000002817bffffffffffffffffffffffffffffffffffffffffffffffffffffffff191614156200038357600080fd5b6001806000837bffffffffffffffffffffffffffffffffffffffffffffffffffffffff19167bffffffffffffffffffffffffffffffffffffffffffffffffffffffff1916815260200190815260200160002060006101000a81548160ff02191690831515021790555050565b828054600181600116156101000203166002900490600052602060002090601f016020900481019282601f106200043257805160ff191683800117855562000463565b8280016001018555821562000463579182015b828111156200046257825182559160200191906001019062000445565b5b50905062000472919062000476565b5090565b6200049b91905b80821115620004975760008160009055506001016200047d565b5090565b90565b614ff380620004ae6000396000f3fe608060405234801561001057600080fd5b50600436106101c6576000357c0100000000000000000000000000000000000000000000000000000000900480635a50ec5111610116578063b88d4fde116100b4578063d547cfb71161008e578063d547cfb714610ef8578063e985e9c514610f7b578063f2fde38b14610ff7578063fe01ff621461103b576101c6565b8063b88d4fde14610d1c578063c87b56dd14610e21578063cdb88ad114610ec8576101c6565b806370a08231116100f057806370a0823114610ba75780638da5cb5b14610bff57806395d89b4114610c49578063a22cb46514610ccc576101c6565b80635a50ec51146108315780636352211e14610aef5780637035fbff14610b5d576101c6565b806327dc297e1161018357806338bbfa501161015d57806338bbfa50146105bf57806340c10f191461071b57806342842e0e146107815780634f6ccce7146107ef576101c6565b806327dc297e146103fb5780632d21947e146104c05780632f745c591461055d576101c6565b806301ffc9a7146101cb57806306fdde0314610230578063081812fc146102b3578063095ea7b31461032157806318160ddd1461036f57806323b872dd1461038d575b600080fd5b610216600480360360208110156101e157600080fd5b8101908080357bffffffffffffffffffffffffffffffffffffffffffffffffffffffff191690602001909291905050506112f9565b604051808215151515815260200191505060405180910390f35b610238611361565b6040518080602001828103825283818151815260200191508051906020019080838360005b8381101561027857808201518184015260208101905061025d565b50505050905090810190601f1680156102a55780820380516001836020036101000a031916815260200191505b509250505060405180910390f35b6102df600480360360208110156102c957600080fd5b8101908080359060200190929190505050611403565b604051808273ffffffffffffffffffffffffffffffffffffffff1673ffffffffffffffffffffffffffffffffffffffff16815260200191505060405180910390f35b61036d6004803603604081101561033757600080fd5b81019080803573ffffffffffffffffffffffffffffffffffffffff16906020019092919080359060200190929190505050611452565b005b6103776115df565b6040518082815260200191505060405180910390f35b6103f9600480360360608110156103a357600080fd5b81019080803573ffffffffffffffffffffffffffffffffffffffff169060200190929190803573ffffffffffffffffffffffffffffffffffffffff169060200190929190803590602001909291905050506115ec565b005b6104be6004803603604081101561041157600080fd5b81019080803590602001909291908035906020019064010000000081111561043857600080fd5b82018360208201111561044a57600080fd5b8035906020019184600183028401116401000000008311171561046c57600080fd5b91908080601f016020809104026020016040519081016040528093929190818152602001838380828437600081840152601f19601f82011690508083019250505050505050919291929050505061160f565b005b610543600480360360608110156104d657600080fd5b8101908080604001906002806020026040519081016040528092919082600260200280828437600081840152601f19601f8201169050808301925050505050509192919290803573ffffffffffffffffffffffffffffffffffffffff169060200190929190505050611652565b604051808215151515815260200191505060405180910390f35b6105a96004803603604081101561057357600080fd5b81019080803573ffffffffffffffffffffffffffffffffffffffff169060200190929190803590602001909291905050506117ac565b6040518082815260200191505060405180910390f35b610719600480360360608110156105d557600080fd5b8101908080359060200190929190803590602001906401000000008111156105fc57600080fd5b82018360208201111561060e57600080fd5b8035906020019184600183028401116401000000008311171561063057600080fd5b91908080601f016020809104026020016040519081016040528093929190818152602001838380828437600081840152601f19601f8201169050808301925050505050505091929192908035906020019064010000000081111561069357600080fd5b8201836020820111156106a557600080fd5b803590602001918460018302840111640100000000831117156106c757600080fd5b91908080601f016020809104026020016040519081016040528093929190818152602001838380828437600081840152601f19601f82011690508083019250505050505050919291929050505061181f565b005b6107676004803603604081101561073157600080fd5b81019080803573ffffffffffffffffffffffffffffffffffffffff16906020019092919080359060200190929190505050611824565b604051808215151515815260200191505060405180910390f35b6107ed6004803603606081101561079757600080fd5b81019080803573ffffffffffffffffffffffffffffffffffffffff169060200190929190803573ffffffffffffffffffffffffffffffffffffffff169060200190929190803590602001909291905050506118ec565b005b61081b6004803603602081101561080557600080fd5b810190808035906020019092919050505061190c565b6040518082815260200191505060405180910390f35b610ad5600480360361028081101561084857600080fd5b8101908080604001906002806020026040519081016040528092919082600260200280828437600081840152601f19601f820116905080830192505050505050919291929080604001906002806020026040519081016040528092919082600260200280828437600081840152601f19601f82011690508083019250505050505091929192908060800190600280602002604051908101604052809291906000905b8282101561093e578382604002016002806020026040519081016040528092919082600260200280828437600081840152601f19601f820116905080830192505050505050815260200190600101906108ea565b50505050919291929080604001906002806020026040519081016040528092919082600260200280828437600081840152601f19601f820116905080830192505050505050919291929080604001906002806020026040519081016040528092919082600260200280828437600081840152601f19601f820116905080830192505050505050919291929080604001906002806020026040519081016040528092919082600260200280828437600081840152601f19601f820116905080830192505050505050919291929080604001906002806020026040519081016040528092919082600260200280828437600081840152601f19601f820116905080830192505050505050919291929080604001906002806020026040519081016040528092919082600260200280828437600081840152601f19601f820116905080830192505050505050919291929080604001906002806020026040519081016040528092919082600260200280828437600081840152601f19601f8201169050808301925050505050509192919290505050611940565b604051808215151515815260200191505060405180910390f35b610b1b60048036036020811015610b0557600080fd5b8101908080359060200190929190505050611b7c565b604051808273ffffffffffffffffffffffffffffffffffffffff1673ffffffffffffffffffffffffffffffffffffffff16815260200191505060405180910390f35b610b65611bf8565b604051808273ffffffffffffffffffffffffffffffffffffffff1673ffffffffffffffffffffffffffffffffffffffff16815260200191505060405180910390f35b610be960048036036020811015610bbd57600080fd5b81019080803573ffffffffffffffffffffffffffffffffffffffff169060200190929190505050611cc8565b6040518082815260200191505060405180910390f35b610c07611d51565b604051808273ffffffffffffffffffffffffffffffffffffffff1673ffffffffffffffffffffffffffffffffffffffff16815260200191505060405180910390f35b610c51611d7a565b6040518080602001828103825283818151815260200191508051906020019080838360005b83811015610c91578082015181840152602081019050610c76565b50505050905090810190601f168015610cbe5780820380516001836020036101000a031916815260200191505b509250505060405180910390f35b610d1a60048036036040811015610ce257600080fd5b81019080803573ffffffffffffffffffffffffffffffffffffffff169060200190929190803515159060200190929190505050611e1c565b005b610e1f60048036036080811015610d3257600080fd5b81019080803573ffffffffffffffffffffffffffffffffffffffff169060200190929190803573ffffffffffffffffffffffffffffffffffffffff1690602001909291908035906020019092919080359060200190640100000000811115610d9957600080fd5b820183602082011115610dab57600080fd5b80359060200191846001830284011164010000000083111715610dcd57600080fd5b91908080601f016020809104026020016040519081016040528093929190818152602001838380828437600081840152601f19601f820116905080830192505050505050509192919290505050611f56565b005b610e4d60048036036020811015610e3757600080fd5b8101908080359060200190929190505050611f7c565b6040518080602001828103825283818151815260200191508051906020019080838360005b83811015610e8d578082015181840152602081019050610e72565b50505050905090810190601f168015610eba5780820380516001836020036101000a031916815260200191505b509250505060405180910390f35b610ef660048036036020811015610ede57600080fd5b81019080803515159060200190929190505050612043565b005b610f006121d7565b6040518080602001828103825283818151815260200191508051906020019080838360005b83811015610f40578082015181840152602081019050610f25565b50505050905090810190601f168015610f6d5780820380516001836020036101000a031916815260200191505b509250505060405180910390f35b610fdd60048036036040811015610f9157600080fd5b81019080803573ffffffffffffffffffffffffffffffffffffffff169060200190929190803573ffffffffffffffffffffffffffffffffffffffff169060200190929190505050612279565b604051808215151515815260200191505060405180910390f35b6110396004803603602081101561100d57600080fd5b81019080803573ffffffffffffffffffffffffffffffffffffffff16906020019092919050505061230d565b005b6112df600480360361028081101561105257600080fd5b8101908080604001906002806020026040519081016040528092919082600260200280828437600081840152601f19601f820116905080830192505050505050919291929080604001906002806020026040519081016040528092919082600260200280828437600081840152601f19601f82011690508083019250505050505091929192908060800190600280602002604051908101604052809291906000905b82821015611148578382604002016002806020026040519081016040528092919082600260200280828437600081840152601f19601f820116905080830192505050505050815260200190600101906110f4565b50505050919291929080604001906002806020026040519081016040528092919082600260200280828437600081840152601f19601f820116905080830192505050505050919291929080604001906002806020026040519081016040528092919082600260200280828437600081840152601f19601f820116905080830192505050505050919291929080604001906002806020026040519081016040528092919082600260200280828437600081840152601f19601f820116905080830192505050505050919291929080604001906002806020026040519081016040528092919082600260200280828437600081840152601f19601f820116905080830192505050505050919291929080604001906002806020026040519081016040528092919082600260200280828437600081840152601f19601f820116905080830192505050505050919291929080604001906002806020026040519081016040528092919082600260200280828437600081840152601f19601f820116905080830192505050505050919291929050505061247d565b604051808215151515815260200191505060405180910390f35b600060016000837bffffffffffffffffffffffffffffffffffffffffffffffffffffffff19167bffffffffffffffffffffffffffffffffffffffffffffffffffffffff1916815260200190815260200160002060009054906101000a900460ff169050919050565b6060600f8054600181600116156101000203166002900480601f0160208091040260200160405190810160405280929190818152602001828054600181600116156101000203166002900480156113f95780601f106113ce576101008083540402835291602001916113f9565b820191906000526020600020905b8154815290600101906020018083116113dc57829003601f168201915b5050505050905090565b600061140e82612804565b61141757600080fd5b6003600083815260200190815260200160002060009054906101000a900473ffffffffffffffffffffffffffffffffffffffff169050919050565b600061145d82611b7c565b90508073ffffffffffffffffffffffffffffffffffffffff168373ffffffffffffffffffffffffffffffffffffffff16141561149857600080fd5b8073ffffffffffffffffffffffffffffffffffffffff163373ffffffffffffffffffffffffffffffffffffffff1614806114d857506114d78133612279565b5b61152d576040517f08c379a0000000000000000000000000000000000000000000000000000000008152600401808060200182810382526024815260200180614ed16024913960400191505060405180910390fd5b826003600084815260200190815260200160002060006101000a81548173ffffffffffffffffffffffffffffffffffffffff021916908373ffffffffffffffffffffffffffffffffffffffff160217905550818373ffffffffffffffffffffffffffffffffffffffff168273ffffffffffffffffffffffffffffffffffffffff167f8c5be1e5ebec7d5bd14f71427d1e84f3dd0314c0f7b2291e5b200ac8c7c3b92560405160405180910390a4505050565b6000600880549050905090565b6115f63382612876565b6115ff57600080fd5b61160a83838361290b565b505050565b61164e828260006040519080825280601f01601f1916602001820160405280156116485781602001600182028038833980820191505090505b5061181f565b5050565b60008260006002811061166157fe5b60200201518360016002811061167357fe5b60200201516000611684838361292f565b90506001600281111561169357fe5b6016600083815260200190815260200160002060009054906101000a900460ff1660028111156116bf57fe5b14611715576040517f08c379a0000000000000000000000000000000000000000000000000000000008152600401808060200182810382526031815260200180614f976031913960400191505060405180910390fd5b61172185601454611824565b935060006117518760006002811061173557fe5b60200201518860016002811061174757fe5b602002015161292f565b905060026016600083815260200190815260200160002060006101000a81548160ff0219169083600281111561178357fe5b021790555061179e600160145461296c90919063ffffffff16565b508494505050505092915050565b60006117b783611cc8565b82106117c257600080fd5b600660008473ffffffffffffffffffffffffffffffffffffffff1673ffffffffffffffffffffffffffffffffffffffff168152602001908152602001600020828154811061180c57fe5b9060005260206000200154905092915050565b505050565b6000809050601360009054906101000a900473ffffffffffffffffffffffffffffffffffffffff1673ffffffffffffffffffffffffffffffffffffffff163373ffffffffffffffffffffffffffffffffffffffff16146118cf576040517f08c379a0000000000000000000000000000000000000000000000000000000008152600401808060200182810382526030815260200180614f676030913960400191505060405180910390fd5b6118d9838361298b565b6118e2826129ac565b6001905092915050565b61190783838360405180602001604052806000815250611f56565b505050565b60006119166115df565b821061192157600080fd5b6008828154811061192e57fe5b90600052602060002001549050919050565b60008160006002811061194f57fe5b60200201518260016002811061196157fe5b60200201516000611972838361292f565b90506001600281111561198157fe5b6016600083815260200190815260200160002060009054906101000a900460ff1660028111156119ad57fe5b1415611a04576040517f08c379a000000000000000000000000000000000000000000000000000000000815260040180806020018281038252602d815260200180614ef5602d913960400191505060405180910390fd5b611a158d8d8d8d8d8d8d8d8d61247d565b93508315611b6c57611a25614b92565b604051806040016040528060145481526020013373ffffffffffffffffffffffffffffffffffffffff168152509050806015600060145481526020019081526020016000206000820151816000015560208201518160010160006101000a81548173ffffffffffffffffffffffffffffffffffffffff021916908373ffffffffffffffffffffffffffffffffffffffff1602179055509050506014543373ffffffffffffffffffffffffffffffffffffffff167f3a01cc868bdb36c1d9b8a262a8ad25064b23ac175b3f8e4453f1daf8ff6bac0d60405160405180910390a36000611b3287600060028110611b1657fe5b602002015188600160028110611b2857fe5b602002015161292f565b905060016016600083815260200190815260200160002060006101000a81548160ff02191690836002811115611b6457fe5b021790555050505b5050509998505050505050505050565b6000806002600084815260200190815260200160002060009054906101000a900473ffffffffffffffffffffffffffffffffffffffff169050600073ffffffffffffffffffffffffffffffffffffffff168173ffffffffffffffffffffffffffffffffffffffff161415611bef57600080fd5b80915050919050565b6000601360009054906101000a900473ffffffffffffffffffffffffffffffffffffffff1673ffffffffffffffffffffffffffffffffffffffff163373ffffffffffffffffffffffffffffffffffffffff1614611ca0576040517f08c379a000000000000000000000000000000000000000000000000000000000815260040180806020018281038252602c815260200180614e80602c913960400191505060405180910390fd5b601360009054906101000a900473ffffffffffffffffffffffffffffffffffffffff16905090565b60008073ffffffffffffffffffffffffffffffffffffffff168273ffffffffffffffffffffffffffffffffffffffff161415611d0357600080fd5b611d4a600460008473ffffffffffffffffffffffffffffffffffffffff1673ffffffffffffffffffffffffffffffffffffffff168152602001908152602001600020612a94565b9050919050565b60008060009054906101000a900473ffffffffffffffffffffffffffffffffffffffff16905090565b606060108054600181600116156101000203166002900480601f016020809104026020016040519081016040528092919081815260200182805460018160011615610100020316600290048015611e125780601f10611de757610100808354040283529160200191611e12565b820191906000526020600020905b815481529060010190602001808311611df557829003601f168201915b5050505050905090565b3373ffffffffffffffffffffffffffffffffffffffff168273ffffffffffffffffffffffffffffffffffffffff161415611e5557600080fd5b80600560003373ffffffffffffffffffffffffffffffffffffffff1673ffffffffffffffffffffffffffffffffffffffff16815260200190815260200160002060008473ffffffffffffffffffffffffffffffffffffffff1673ffffffffffffffffffffffffffffffffffffffff16815260200190815260200160002060006101000a81548160ff0219169083151502179055508173ffffffffffffffffffffffffffffffffffffffff163373ffffffffffffffffffffffffffffffffffffffff167f17307eab39ab6107e8899845ad3d59bd9653f200f220920489ca2b5937696c3183604051808215151515815260200191505060405180910390a35050565b611f618484846115ec565b611f6d84848484612aa2565b611f7657600080fd5b50505050565b6060611f8782612804565b611f9057600080fd5b601260008381526020019081526020016000208054600181600116156101000203166002900480601f0160208091040260200160405190810160405280929190818152602001828054600181600116156101000203166002900480156120375780601f1061200c57610100808354040283529160200191612037565b820191906000526020600020905b81548152906001019060200180831161201a57829003601f168201915b50505050509050919050565b6000809054906101000a900473ffffffffffffffffffffffffffffffffffffffff1673ffffffffffffffffffffffffffffffffffffffff163373ffffffffffffffffffffffffffffffffffffffff16146120e8576040517f08c379a0000000000000000000000000000000000000000000000000000000008152600401808060200182810382526025815260200180614eac6025913960400191505060405180910390fd5b8015612156577f62e78cea01bee320cd4e420270b5ea74000d11b0c9f74754ebdbfc544b05a25833604051808273ffffffffffffffffffffffffffffffffffffffff1673ffffffffffffffffffffffffffffffffffffffff16815260200191505060405180910390a16121ba565b7f5db9ee0a495bf2e6ff9c91a7834c1ba4fdd244a5e8aa4e537bd38aeae4b073aa33604051808273ffffffffffffffffffffffffffffffffffffffff1673ffffffffffffffffffffffffffffffffffffffff16815260200191505060405180910390a15b80600060146101000a81548160ff02191690831515021790555050565b606060118054600181600116156101000203166002900480601f01602080910402602001604051908101604052809291908181526020018280546001816001161561010002031660029004801561226f5780601f106122445761010080835404028352916020019161226f565b820191906000526020600020905b81548152906001019060200180831161225257829003601f168201915b5050505050905090565b6000600560008473ffffffffffffffffffffffffffffffffffffffff1673ffffffffffffffffffffffffffffffffffffffff16815260200190815260200160002060008373ffffffffffffffffffffffffffffffffffffffff1673ffffffffffffffffffffffffffffffffffffffff16815260200190815260200160002060009054906101000a900460ff16905092915050565b6000809054906101000a900473ffffffffffffffffffffffffffffffffffffffff1673ffffffffffffffffffffffffffffffffffffffff163373ffffffffffffffffffffffffffffffffffffffff16146123b2576040517f08c379a0000000000000000000000000000000000000000000000000000000008152600401808060200182810382526025815260200180614eac6025913960400191505060405180910390fd5b80600073ffffffffffffffffffffffffffffffffffffffff168173ffffffffffffffffffffffffffffffffffffffff161415612439576040517f08c379a0000000000000000000000000000000000000000000000000000000008152600401808060200182810382526023815260200180614f226023913960400191505060405180910390fd5b816000806101000a81548173ffffffffffffffffffffffffffffffffffffffff021916908373ffffffffffffffffffffffffffffffffffffffff1602179055505050565b6000612487614bc2565b60405180604001604052808c60006002811061249f57fe5b602002015181526020018c6001600281106124b657fe5b6020020151815250816000018190525060405180604001604052808b6000600281106124de57fe5b602002015181526020018b6001600281106124f557fe5b60200201518152508160200181905250604051806040016040528060405180604001604052808c60006002811061252857fe5b602002015160006002811061253957fe5b602002015181526020018c60006002811061255057fe5b602002015160016002811061256157fe5b6020020151815250815260200160405180604001604052808c60016002811061258657fe5b602002015160006002811061259757fe5b602002015181526020018c6001600281106125ae57fe5b60200201516001600281106125bf57fe5b602002015181525081525081604001819052506040518060400160405280896000600281106125ea57fe5b602002015181526020018960016002811061260157fe5b6020020151815250816060018190525060405180604001604052808860006002811061262957fe5b602002015181526020018860016002811061264057fe5b6020020151815250816080018190525060405180604001604052808760006002811061266857fe5b602002015181526020018760016002811061267f57fe5b60200201518152508160a001819052506040518060400160405280866000600281106126a757fe5b60200201518152602001866001600281106126be57fe5b60200201518152508160e001819052506040518060400160405280856000600281106126e657fe5b60200201518152602001856001600281106126fd57fe5b60200201518152508160c001819052506060600260405190808252806020026020018201604052801561273f5781602001602082028038833980820191505090505b50905060008090505b60028110156127875784816002811061275d57fe5b602002015182828151811061276e57fe5b6020026020010181815250508080600101915050612748565b5060006127948284612cc3565b14156127f0577f3f3cfdb26fb5f9f1786ab4f1a1f9cd4c0b5e726cbdfc26e495261731aad44e39604051808060200182810382526022815260200180614f456022913960400191505060405180910390a16001925050506127f7565b6000925050505b9998505050505050505050565b6000806002600084815260200190815260200160002060009054906101000a900473ffffffffffffffffffffffffffffffffffffffff169050600073ffffffffffffffffffffffffffffffffffffffff168173ffffffffffffffffffffffffffffffffffffffff161415915050919050565b60008061288283611b7c565b90508073ffffffffffffffffffffffffffffffffffffffff168473ffffffffffffffffffffffffffffffffffffffff1614806128f157508373ffffffffffffffffffffffffffffffffffffffff166128d984611403565b73ffffffffffffffffffffffffffffffffffffffff16145b8061290257506129018185612279565b5b91505092915050565b612916838383612eeb565b612920838261322b565b61292a82826133c9565b505050565b6000818301828402604051602001808381526020018281526020019250505060405160208183030381529060405280519060200120905092915050565b60008082840190508381101561298157600080fd5b8091505092915050565b6129958282613490565b61299f82826133c9565b6129a88161372e565b5050565b6129b581612804565b6129be57600080fd5b612a6a60118054600181600116156101000203166002900480601f016020809104026020016040519081016040528092919081815260200182805460018160011615610100020316600290048015612a575780601f10612a2c57610100808354040283529160200191612a57565b820191906000526020600020905b815481529060010190602001808311612a3a57829003601f168201915b5050505050612a658361377a565b6138c6565b601260008381526020019081526020016000209080519060200190612a90929190614c37565b5050565b600081600001549050919050565b6000612ac38473ffffffffffffffffffffffffffffffffffffffff1661390a565b612ad05760019050612cbb565b60008473ffffffffffffffffffffffffffffffffffffffff1663150b7a02338887876040518563ffffffff167c0100000000000000000000000000000000000000000000000000000000028152600401808573ffffffffffffffffffffffffffffffffffffffff1673ffffffffffffffffffffffffffffffffffffffff1681526020018473ffffffffffffffffffffffffffffffffffffffff1673ffffffffffffffffffffffffffffffffffffffff16815260200183815260200180602001828103825283818151815260200191508051906020019080838360005b83811015612bc7578082015181840152602081019050612bac565b50505050905090810190601f168015612bf45780820380516001836020036101000a031916815260200191505b5095505050505050602060405180830381600087803b158015612c1657600080fd5b505af1158015612c2a573d6000803e3d6000fd5b505050506040513d6020811015612c4057600080fd5b8101908080519060200190929190505050905063150b7a027c0100000000000000000000000000000000000000000000000000000000027bffffffffffffffffffffffffffffffffffffffffffffffffffffffff1916817bffffffffffffffffffffffffffffffffffffffffffffffffffffffff1916149150505b949350505050565b6000612ccd614cb7565b612cd561391d565b90508060e0015151600185510114612cec57600080fd5b612cf4614d26565b6040518060400160405280600081526020016000815250905060008090505b8551811015612d6b57612d5c82612d578560e001516001850181518110612d3657fe5b6020026020010151898581518110612d4a57fe5b6020026020010151613f52565b613fe6565b91508080600101915050612d13565b50612d8e818360e00151600081518110612d8157fe5b6020026020010151613fe6565b9050612db784600001518360000151612daa8760200151614099565b612db2614133565b6141fd565b612dc657600192505050612ee5565b612ded82602001518560400151612de08760600151614099565b612de8614133565b6141fd565b612dfc57600292505050612ee5565b612e2384608001518360400151612e168760a00151614099565b612e1e614133565b6141fd565b612e3257600392505050612ee5565b612e7e8460c001518360600151612e62612e5d85612e588a600001518b60800151613fe6565b613fe6565b614099565b8560a00151612e748760800151614099565b89604001516142f9565b612e8d57600492505050612ee5565b612ecf612e9e828660000151613fe6565b8560400151612eb08760e00151614099565b8560c00151612ec28960800151614099565b612eca614133565b6142f9565b612ede57600592505050612ee5565b6000925050505b92915050565b8273ffffffffffffffffffffffffffffffffffffffff166002600083815260200190815260200160002060009054906101000a900473ffffffffffffffffffffffffffffffffffffffff1673ffffffffffffffffffffffffffffffffffffffff1614612fbf576040517f08c379a00000000000000000000000000000000000000000000000000000000081526004018080602001828103825260198152602001807f41646472657373206d757374206f776e20746f6b656e2049440000000000000081525060200191505060405180910390fd5b60001515612fe28373ffffffffffffffffffffffffffffffffffffffff1661390a565b151514801561301e5750600073ffffffffffffffffffffffffffffffffffffffff168273ffffffffffffffffffffffffffffffffffffffff1614155b613090576040517f08c379a00000000000000000000000000000000000000000000000000000000081526004018080602001828103825260198152602001807f56616c696420616464726573732069732072657175697265640000000000000081525060200191505060405180910390fd5b61309981614429565b816003600083815260200190815260200160002060006101000a81548173ffffffffffffffffffffffffffffffffffffffff021916908373ffffffffffffffffffffffffffffffffffffffff160217905550613132600460008573ffffffffffffffffffffffffffffffffffffffff1673ffffffffffffffffffffffffffffffffffffffff1681526020019081526020016000206144e7565b613179600460008473ffffffffffffffffffffffffffffffffffffffff1673ffffffffffffffffffffffffffffffffffffffff16815260200190815260200160002061450a565b826002600083815260200190815260200160002060006101000a81548173ffffffffffffffffffffffffffffffffffffffff021916908373ffffffffffffffffffffffffffffffffffffffff160217905550808273ffffffffffffffffffffffffffffffffffffffff168473ffffffffffffffffffffffffffffffffffffffff167fddf252ad1be2c89b69c2b068fc378daa952ba7f163c4a11628f55a4df523b3ef60405160405180910390a4505050565b60006132836001600660008673ffffffffffffffffffffffffffffffffffffffff1673ffffffffffffffffffffffffffffffffffffffff1681526020019081526020016000208054905061452090919063ffffffff16565b9050600060076000848152602001908152602001600020549050818114613370576000600660008673ffffffffffffffffffffffffffffffffffffffff1673ffffffffffffffffffffffffffffffffffffffff16815260200190815260200160002083815481106132f057fe5b9060005260206000200154905080600660008773ffffffffffffffffffffffffffffffffffffffff1673ffffffffffffffffffffffffffffffffffffffff168152602001908152602001600020838154811061334857fe5b9060005260206000200181905550816007600083815260200190815260200160002081905550505b600660008573ffffffffffffffffffffffffffffffffffffffff1673ffffffffffffffffffffffffffffffffffffffff1681526020019081526020016000208054809190600190036133c29190614d40565b5050505050565b600660008373ffffffffffffffffffffffffffffffffffffffff1673ffffffffffffffffffffffffffffffffffffffff168152602001908152602001600020805490506007600083815260200190815260200160002081905550600660008373ffffffffffffffffffffffffffffffffffffffff1673ffffffffffffffffffffffffffffffffffffffff1681526020019081526020016000208190806001815401808255809150509060018203906000526020600020016000909192909190915055505050565b600073ffffffffffffffffffffffffffffffffffffffff166003600083815260200190815260200160002060009054906101000a900473ffffffffffffffffffffffffffffffffffffffff1673ffffffffffffffffffffffffffffffffffffffff1614613565576040517f08c379a00000000000000000000000000000000000000000000000000000000081526004018080602001828103825260178152602001807f546f6b656e20494420616c72656164792065786973747300000000000000000081525060200191505060405180910390fd5b600015156135888373ffffffffffffffffffffffffffffffffffffffff1661390a565b15151480156135c45750600073ffffffffffffffffffffffffffffffffffffffff168273ffffffffffffffffffffffffffffffffffffffff1614155b613636576040517f08c379a00000000000000000000000000000000000000000000000000000000081526004018080602001828103825260198152602001807f56616c696420616464726573732069732072657175697265640000000000000081525060200191505060405180910390fd5b816002600083815260200190815260200160002060006101000a81548173ffffffffffffffffffffffffffffffffffffffff021916908373ffffffffffffffffffffffffffffffffffffffff1602179055506136cf600460008473ffffffffffffffffffffffffffffffffffffffff1673ffffffffffffffffffffffffffffffffffffffff16815260200190815260200160002061450a565b808273ffffffffffffffffffffffffffffffffffffffff163373ffffffffffffffffffffffffffffffffffffffff167fddf252ad1be2c89b69c2b068fc378daa952ba7f163c4a11628f55a4df523b3ef60405160405180910390a45050565b6008805490506009600083815260200190815260200160002081905550600881908060018154018082558091505090600182039060005260206000200160009091929091909150555050565b606060008214156137c2576040518060400160405280600181526020017f300000000000000000000000000000000000000000000000000000000000000081525090506138c1565b600082905060005b600082146137ec578080600101915050600a82816137e457fe5b0491506137ca565b6060816040519080825280601f01601f1916602001820160405280156138215781602001600182028038833980820191505090505b50905060006001830390505b600086146138b957600a868161383f57fe5b066030017f0100000000000000000000000000000000000000000000000000000000000000028282806001900393508151811061387857fe5b60200101907effffffffffffffffffffffffffffffffffffffffffffffffffffffffffffff1916908160001a905350600a86816138b157fe5b04955061382d565b819450505050505b919050565b60606139028383604051806020016040528060008152506040518060200160405280600081525060405180602001604052806000815250614540565b905092915050565b600080823b905060008111915050919050565b613925614cb7565b604051806040016040528060405180604001604052807f124f25e459cb0cc2af8637ba6fd5d00f052f9069e14b282f2778f30fb6c8bc8881526020017f23afd23e4c588f7e2b5cc378c173ff1f168d680123ef192564dc8ebc9e752d22815250815260200160405180604001604052807f0ca5f2ec0979d718c7ca4a73d0c51c6b46a1731ab12176e0e64770053df73de281526020017f175fd471bc0c7e781b5b0068e7b59300b030b92d9993d8d62c232838bba45381815250815250816000018190525060405180604001604052807f1209015799d52cbe1bf8615e3c9eda3a310b26daf4b949f553147d4e569dd71581526020017f02bcd5f4e3867685b9c2c64b758cf5bfef7fc3ed498f1c08760416acc01dcfd38152508160200181905250604051806040016040528060405180604001604052807f28632caebd23d1d729bd33051e6e256ee06e1892abd04069e89cfefe2cb06eda81526020017f1595650b4983b57389de943264d7835da00d8905532ea88c725d551bb0da96e9815250815260200160405180604001604052807f21731e3804223c31331181e67681d39171ba8c33986cf2f010056e2d2a77fa5b81526020017f0d4eb2fb065594ebfb7177d9c3a4905155987c47ec5e726edeed06e582bb3b3b8152508152508160400181905250604051806040016040528060405180604001604052807f2f8c13a08758c996b6cc1cf7222e43bedf21a5132a4a73e165c67dc71cbd3d9581526020017f16cb763e58daa37d5334be26cb2c687538f8cc3ef0e496b60f672c643381698f815250815260200160405180604001604052807f1d3059c69b8269c0ae8d69ab72a4e925063f0827cc5f3b17a9f7668b1b69306f81526020017f0973f54a3c12560ff05f7f9c2f10857c0fb68e931150e447d89789a80ad97b40815250815250816060018190525060405180604001604052807f18218deb364e84cc27ec952e0d5d86300307f663ce5d26be556f6e93c958953f81526020017f0dedc59da1aba00251592774c7fd153ea7b4fc08a379135a6a52f591069d63168152508160800181905250604051806040016040528060405180604001604052807f0b51e55eabcbab3fefa674af59fbc62b914579c0a2e52edc63da03bc1ebd0e7f81526020017f10e72dde3034d07d18be7c5d357cfa24c96ddcca6360892e77fe6aa07478d040815250815260200160405180604001604052807f128d7ee5a970c5e4350927411e9c5a97f066cfacb9c2c4cf2ba5fcc2f378481d81526020017f20d63654b96b208c2b819a301f8962bc57f464190761104dcf67c72360f299458152508152508160a00181905250604051806040016040528060405180604001604052807f0ce64300b221e264b50789afbb4ecde52fe7f4334e6aa7ba08e100e1f172e97381526020017f0fdeb333da2803e6581fe19c43dd5ff4e3435df4fb1fb9342768db42abd68ded815250815260200160405180604001604052807f21e3d058af3257c8b2cfc3fe1748d8b4eb1879106b7f41d62df985c4ee4887dc81526020017f0e4621035baba7d516fcea38167aaee5fd46f579f1a51032248ec651018bfad58152508152508160c001819052506003604051908082528060200260200182016040528015613df357816020015b613de0614d6c565b815260200190600190039081613dd85790505b508160e0018190525060405180604001604052807f13c966ebc58d6b834ef606b9a51a3e540d0177fa4439a5986f934ee2632c223e81526020017f106ac57d777338b6c71d36f2b25160037c0b6cbbb93abbf467d2ea6b5cc8a0d58152508160e00151600081518110613e6257fe5b602002602001018190525060405180604001604052807f073508cc87513974b79386b222a1fcb37ee4882b38cd6d717616a8cd7c4f0b4481526020017f2499b923f6b17bbebddc353f926c58a2c29f5c93eff794b5c211eb66084779958152508160e00151600181518110613ed357fe5b602002602001018190525060405180604001604052807f133e18907519e7420261602ef51f53e889cd71321f6ecc218c11c69ac3adb2f981526020017f0a6e14669d1a276c72e2a38db6c7d7a9320a9bfd1f2aebb6a647c466ecf49dad8152508160e00151600281518110613f4457fe5b602002602001018190525090565b613f5a614d26565b613f62614d86565b836000015181600060038110613f7457fe5b602002018181525050836020015181600160038110613f8f57fe5b6020020181815250508281600260038110613fa657fe5b6020020181815250506000606083608084600060076107d05a03f190508060008114613fd157613fd3565bfe5b5080613fde57600080fd5b505092915050565b613fee614d26565b613ff6614da8565b83600001518160006004811061400857fe5b60200201818152505083602001518160016004811061402357fe5b60200201818152505082600001518160026004811061403e57fe5b60200201818152505082602001518160036004811061405957fe5b602002018181525050600060608360c084600060066107d05a03f19050806000811461408457614086565bfe5b508061409157600080fd5b505092915050565b6140a1614d26565b60007f30644e72e131a029b85045b68181585d97816a916871ca8d3c208c16d87cfd479050600083600001511480156140de575060008360200151145b1561410257604051806040016040528060008152602001600081525091505061412e565b6040518060400160405280846000015181526020018285602001518161412457fe5b0683038152509150505b919050565b61413b614dca565b604051806040016040528060405180604001604052807f198e9393920d483a7260bfb731fb5d25f1aa493335a9e71297e485b7aef312c281526020017f1800deef121f1e76426a00665e5c4479674322d4f75edadd46debd5cd992f6ed815250815260200160405180604001604052807f090689d0585ff075ec9e99ad690c3395bc4b313370b38ef355acdadcd122975b81526020017f12c85ea5db8c6deb4aab71808dcb408fe3d1e7690c43d37b4ce6cc0166fa7daa815250815250905090565b60006060600260405190808252806020026020018201604052801561423c57816020015b614229614d6c565b8152602001906001900390816142215790505b5090506060600260405190808252806020026020018201604052801561427c57816020015b614269614df0565b8152602001906001900390816142615790505b509050868260008151811061428d57fe5b602002602001018190525084826001815181106142a657fe5b602002602001018190525085816000815181106142bf57fe5b602002602001018190525083816001815181106142d857fe5b60200260200101819052506142ed828261493d565b92505050949350505050565b60006060600360405190808252806020026020018201604052801561433857816020015b614325614d6c565b81526020019060019003908161431d5790505b5090506060600360405190808252806020026020018201604052801561437857816020015b614365614df0565b81526020019060019003908161435d5790505b509050888260008151811061438957fe5b602002602001018190525086826001815181106143a257fe5b602002602001018190525084826002815181106143bb57fe5b602002602001018190525087816000815181106143d457fe5b602002602001018190525085816001815181106143ed57fe5b6020026020010181905250838160028151811061440657fe5b602002602001018190525061441b828261493d565b925050509695505050505050565b600073ffffffffffffffffffffffffffffffffffffffff166003600083815260200190815260200160002060009054906101000a900473ffffffffffffffffffffffffffffffffffffffff1673ffffffffffffffffffffffffffffffffffffffff16146144e45760006003600083815260200190815260200160002060006101000a81548173ffffffffffffffffffffffffffffffffffffffff021916908373ffffffffffffffffffffffffffffffffffffffff1602179055505b50565b6144ff6001826000015461452090919063ffffffff16565b816000018190555050565b6001816000016000828254019250508190555050565b60008282111561452f57600080fd5b600082840390508091505092915050565b6060808690506060869050606086905060608690506060869050606081518351855187518951010101016040519080825280601f01601f19166020018201604052801561459c5781602001600182028038833980820191505090505b509050606081905060008090506000809050600090505b8851811015614660578881815181106145c857fe5b60200101517f010000000000000000000000000000000000000000000000000000000000000090047f01000000000000000000000000000000000000000000000000000000000000000283838060010194508151811061462457fe5b60200101907effffffffffffffffffffffffffffffffffffffffffffffffffffffffffffff1916908160001a90535080806001019150506145b3565b600090505b87518110156147125787818151811061467a57fe5b60200101517f010000000000000000000000000000000000000000000000000000000000000090047f0100000000000000000000000000000000000000000000000000000000000000028383806001019450815181106146d657fe5b60200101907effffffffffffffffffffffffffffffffffffffffffffffffffffffffffffff1916908160001a9053508080600101915050614665565b600090505b86518110156147c45786818151811061472c57fe5b60200101517f010000000000000000000000000000000000000000000000000000000000000090047f01000000000000000000000000000000000000000000000000000000000000000283838060010194508151811061478857fe5b60200101907effffffffffffffffffffffffffffffffffffffffffffffffffffffffffffff1916908160001a9053508080600101915050614717565b600090505b8551811015614876578581815181106147de57fe5b60200101517f010000000000000000000000000000000000000000000000000000000000000090047f01000000000000000000000000000000000000000000000000000000000000000283838060010194508151811061483a57fe5b60200101907effffffffffffffffffffffffffffffffffffffffffffffffffffffffffffff1916908160001a90535080806001019150506147c9565b600090505b84518110156149285784818151811061489057fe5b60200101517f010000000000000000000000000000000000000000000000000000000000000090047f0100000000000000000000000000000000000000000000000000000000000000028383806001019450815181106148ec57fe5b60200101907effffffffffffffffffffffffffffffffffffffffffffffffffffffffffffff1916908160001a905350808060010191505061487b565b82995050505050505050505095945050505050565b6000815183511461494d57600080fd5b600083519050600060068202905060608160405190808252806020026020018201604052801561498c5781602001602082028038833980820191505090505b50905060008090505b83811015614b32578681815181106149a957fe5b6020026020010151600001518260006006840201815181106149c757fe5b6020026020010181815250508681815181106149df57fe5b6020026020010151602001518260016006840201815181106149fd57fe5b602002602001018181525050858181518110614a1557fe5b602002602001015160000151600060028110614a2d57fe5b6020020151826002600684020181518110614a4457fe5b602002602001018181525050858181518110614a5c57fe5b602002602001015160000151600160028110614a7457fe5b6020020151826003600684020181518110614a8b57fe5b602002602001018181525050858181518110614aa357fe5b602002602001015160200151600060028110614abb57fe5b6020020151826004600684020181518110614ad257fe5b602002602001018181525050858181518110614aea57fe5b602002602001015160200151600160028110614b0257fe5b6020020151826005600684020181518110614b1957fe5b6020026020010181815250508080600101915050614995565b50614b3b614e16565b60006020826020860260208601600060086107d05a03f190508060008114614b6257614b64565bfe5b5080614b6f57600080fd5b600082600060018110614b7e57fe5b602002015114159550505050505092915050565b604051806040016040528060008152602001600073ffffffffffffffffffffffffffffffffffffffff1681525090565b604051806102400160405280614bd6614d6c565b8152602001614be3614d6c565b8152602001614bf0614df0565b8152602001614bfd614d6c565b8152602001614c0a614d6c565b8152602001614c17614d6c565b8152602001614c24614d6c565b8152602001614c31614d6c565b81525090565b828054600181600116156101000203166002900490600052602060002090601f016020900481019282601f10614c7857805160ff1916838001178555614ca6565b82800160010185558215614ca6579182015b82811115614ca5578251825591602001919060010190614c8a565b5b509050614cb39190614e38565b5090565b604051806103200160405280614ccb614df0565b8152602001614cd8614d6c565b8152602001614ce5614df0565b8152602001614cf2614df0565b8152602001614cff614d6c565b8152602001614d0c614df0565b8152602001614d19614df0565b8152602001606081525090565b604051806040016040528060008152602001600081525090565b815481835581811115614d6757818360005260206000209182019101614d669190614e38565b5b505050565b604051806040016040528060008152602001600081525090565b6040518060600160405280600390602082028038833980820191505090505090565b6040518060800160405280600490602082028038833980820191505090505090565b6040518060800160405280614ddd614e5d565b8152602001614dea614e5d565b81525090565b6040518060800160405280614e03614e5d565b8152602001614e10614e5d565b81525090565b6040518060200160405280600190602082028038833980820191505090505090565b614e5a91905b80821115614e56576000816000905550600101614e3e565b5090565b90565b604051806040016040528060029060208202803883398082019150509050509056fe46756e6374696f6e206d757374206f6e6c792063616c6c656420627920636f6e7472616374206f776e65722e4163636f756e74206d7573742062656c6f6e6720746f20636f6e7472616374206f776e657253656e646572206d757374206265206f776e6572206f662074686520636f6e7472616374536f6c7574696f6e207468617420616c7265616479206578697374732063616e6e6f742062652061646465642e53656e64696e67206163636f756e74206d757374206e6f7420626520696e76616c69645472616e73616374696f6e207375636365737366756c6c792076657269666965642e4d6574686f642063616e206f6e6c792062652063616c6c65642062792074686520636f6e7472616374206f776e65722e536f6c7574696f6e20646f6573206e6f74206578697374206f7220736f6c7574696f6e20686173206265656e2075736564a165627a7a72305820784486e5eff617eea56708e19192f93e36a231a891c8cd7a0ec4842bc69a752a002968747470733a2f2f73332d75732d776573742d322e616d617a6f6e6177732e636f6d2f756461636974792d626c6f636b636861696e2f63617073746f6e652f",
  "source": "pragma solidity >=0.4.21 <0.6.0;\n\nimport './ERC721Mintable.sol';\nimport './verifier.sol';\n\n// TODO define another contract named SolnSquareVerifier that inherits from your ERC721Mintable class\ncontract SolnSquareVerifier is ERC721MintableComplete, Verifier {\n    \n    uint256 currentIndex;\n    //Verifier verifierInstance;\n\n    constructor(string memory name, string memory symbol) ERC721MintableComplete(name, symbol) public {         \n        //verifierInstance = Verifier(verifierAddress);\n        currentIndex = 0;     \n    }\n\n    // TODO define a solutions struct that can hold an index & an address\n    struct Solution {\n        uint256 index;\n        address solAddress;\n    }\n\n    mapping(uint256 => Solution) private storedSolutions; \n\n    //enumerator to track state of solution\n    enum SolutionState { Unverfied, Verified, Used }\n\n    // TODO define a mapping to store unique solutions submitted\n    mapping(bytes32 => SolutionState) private acceptedSolutions;\n\n    // TODO Create an event to emit when a solution is added\n    event SolutionAdded(address indexed solAddress, uint256 indexed index);\n\n    modifier verifiedSolutionNotUsed(uint a, uint b) {\n        bytes32 hasedResult = hashSolution(a,b);\n        require(acceptedSolutions[hasedResult] == SolutionState.Verified, \"Solution does not exist or solution has been used\");\n        _;\n    }\n\n    modifier solutionDoesNotExists(uint a, uint b) {\n        bytes32 hasedResult = hashSolution(a,b);\n        require(acceptedSolutions[hasedResult] != SolutionState.Verified, \"Solution that already exists cannot be added.\");\n        _;\n    }\n\n    // TODO Create a function to add the solutions to the array and emit the event\n    function addSolution(\n            uint[2] memory a,\n            uint[2] memory a_p,\n            uint[2][2] memory b,\n            uint[2] memory b_p,\n            uint[2] memory c,\n            uint[2] memory c_p,\n            uint[2] memory h,\n            uint[2] memory k,\n            uint[2] memory input\n        ) public solutionDoesNotExists(input[0],input[1]) returns (bool r)\n        {\n            r = verifyTx(a,a_p,b,b_p,c,c_p,h,k,input);\n            if (r) {\n                Solution memory newSolution = Solution(currentIndex,msg.sender);\n                storedSolutions[currentIndex] = newSolution;\n                emit SolutionAdded(msg.sender,currentIndex);                \n                bytes32 hashResult = hashSolution(input[0],input[1]);\n                acceptedSolutions[hashResult] = SolutionState.Verified;\n            }\n        }\n    \n\n    // TODO Create a function to mint new NFT only after the solution has been verified\n    //  - make sure the solution is unique (has not been used before)\n    //  - make sure you handle metadata as well as tokenSupply\n    //function mintNewToken (address to, uint256 tokenId) public returns(bool success) {\n\n    //TODO:need to satisfy new solution\n    function mintNewToken (uint[2] memory input, address to) verifiedSolutionNotUsed(input[0],input[1]) public returns (bool r) {\n        r = mint(to,currentIndex);\n        bytes32 hashResult = hashSolution(input[0],input[1]);\n        acceptedSolutions[hashResult] = SolutionState.Used;\n        currentIndex.add(1);\n        return r;\n    }\n\n    function hashSolution(uint a, uint b) private pure returns(bytes32 hashedSolution) {\n        hashedSolution = keccak256(abi.encodePacked(a+b, a*b));\n    }   \n}\n\n\n\n\n\n\n\n\n\n\n\n\n\n\n\n\n\n\n\n\n\n",
  "sourcePath": "/Users/joeyberger/Desktop/Udacity/Blockchain Nanodegree/GitHub Repos/Real-Estate-Token/eth-contracts/contracts/SolnSquareVerifier.sol",
  "compiler": {
    "name": "solc",
    "version": "0.5.7+commit.6da8b019.Emscripten.clang"
  },
  "schemaVersion": "3.0.2",
  "updatedAt": "2019-04-21T05:40:19.291Z",
  "devdoc": {
    "methods": {
      "isApprovedForAll(address,address)": {
        "details": "Tells whether an operator is approved by a given owner",
        "params": {
          "operator": "operator address which you want to query the approval of",
          "owner": "owner address which you want to query the approval of"
        },
        "return": "bool whether the given operator is approved by the given owner"
      },
      "setApprovalForAll(address,bool)": {
        "details": "Sets or unsets the approval of a given operator An operator is allowed to transfer all tokens of the sender on their behalf",
        "params": {
          "approved": "representing the status of the approval to be set",
          "to": "operator address to set the approval"
        }
      },
      "supportsInterface(bytes4)": {
        "details": "implement supportsInterface(bytes4) using a lookup table"
      },
      "tokenByIndex(uint256)": {
        "details": "Gets the token ID at a given index of all the tokens in this contract Reverts if the index is greater or equal to the total number of tokens",
        "params": {
          "index": "uint256 representing the index to be accessed of the tokens list"
        },
        "return": "uint256 token ID at the given index of the tokens list"
      },
      "tokenOfOwnerByIndex(address,uint256)": {
        "details": "Gets the token ID at a given index of the tokens list of the requested owner",
        "params": {
          "index": "uint256 representing the index to be accessed of the requested tokens list",
          "owner": "address owning the tokens list to be accessed"
        },
        "return": "uint256 token ID at the given index of the tokens list owned by the requested address"
      },
      "totalSupply()": {
        "details": "Gets the total amount of tokens stored by the contract",
        "return": "uint256 representing the total amount of tokens"
      }
    }
  },
  "userdoc": {
    "methods": {}
  }
}