{
  "contractName": "SolnSquareVerifier",
  "abi": [
    {
      "constant": true,
      "inputs": [
        {
          "name": "interfaceId",
          "type": "bytes4"
        }
      ],
      "name": "supportsInterface",
      "outputs": [
        {
          "name": "",
          "type": "bool"
        }
      ],
      "payable": false,
      "stateMutability": "view",
      "type": "function",
      "signature": "0x01ffc9a7"
    },
    {
      "constant": true,
      "inputs": [
        {
          "name": "tokenId",
          "type": "uint256"
        }
      ],
      "name": "getApproved",
      "outputs": [
        {
          "name": "",
          "type": "address"
        }
      ],
      "payable": false,
      "stateMutability": "view",
      "type": "function",
      "signature": "0x081812fc"
    },
    {
      "constant": false,
      "inputs": [
        {
          "name": "to",
          "type": "address"
        },
        {
          "name": "tokenId",
          "type": "uint256"
        }
      ],
      "name": "approve",
      "outputs": [],
      "payable": false,
      "stateMutability": "nonpayable",
      "type": "function",
      "signature": "0x095ea7b3"
    },
    {
      "constant": true,
      "inputs": [],
      "name": "totalSupply",
      "outputs": [
        {
          "name": "",
          "type": "uint256"
        }
      ],
      "payable": false,
      "stateMutability": "view",
      "type": "function",
      "signature": "0x18160ddd"
    },
    {
      "constant": false,
      "inputs": [
        {
          "name": "from",
          "type": "address"
        },
        {
          "name": "to",
          "type": "address"
        },
        {
          "name": "tokenId",
          "type": "uint256"
        }
      ],
      "name": "transferFrom",
      "outputs": [],
      "payable": false,
      "stateMutability": "nonpayable",
      "type": "function",
      "signature": "0x23b872dd"
    },
    {
      "constant": false,
      "inputs": [
        {
          "name": "_myid",
          "type": "bytes32"
        },
        {
          "name": "_result",
          "type": "string"
        }
      ],
      "name": "__callback",
      "outputs": [],
      "payable": false,
      "stateMutability": "nonpayable",
      "type": "function",
      "signature": "0x27dc297e"
    },
    {
      "constant": true,
      "inputs": [
        {
          "name": "owner",
          "type": "address"
        },
        {
          "name": "index",
          "type": "uint256"
        }
      ],
      "name": "tokenOfOwnerByIndex",
      "outputs": [
        {
          "name": "",
          "type": "uint256"
        }
      ],
      "payable": false,
      "stateMutability": "view",
      "type": "function",
      "signature": "0x2f745c59"
    },
    {
      "constant": false,
      "inputs": [
        {
          "name": "_myid",
          "type": "bytes32"
        },
        {
          "name": "_result",
          "type": "string"
        },
        {
          "name": "_proof",
          "type": "bytes"
        }
      ],
      "name": "__callback",
      "outputs": [],
      "payable": false,
      "stateMutability": "nonpayable",
      "type": "function",
      "signature": "0x38bbfa50"
    },
    {
      "constant": false,
      "inputs": [
        {
          "name": "to",
          "type": "address"
        },
        {
          "name": "tokenId",
          "type": "uint256"
        }
      ],
      "name": "mint",
      "outputs": [
        {
          "name": "success",
          "type": "bool"
        }
      ],
      "payable": false,
      "stateMutability": "nonpayable",
      "type": "function",
      "signature": "0x40c10f19"
    },
    {
      "constant": false,
      "inputs": [
        {
          "name": "from",
          "type": "address"
        },
        {
          "name": "to",
          "type": "address"
        },
        {
          "name": "tokenId",
          "type": "uint256"
        }
      ],
      "name": "safeTransferFrom",
      "outputs": [],
      "payable": false,
      "stateMutability": "nonpayable",
      "type": "function",
      "signature": "0x42842e0e"
    },
    {
      "constant": true,
      "inputs": [
        {
          "name": "index",
          "type": "uint256"
        }
      ],
      "name": "tokenByIndex",
      "outputs": [
        {
          "name": "",
          "type": "uint256"
        }
      ],
      "payable": false,
      "stateMutability": "view",
      "type": "function",
      "signature": "0x4f6ccce7"
    },
    {
      "constant": true,
      "inputs": [
        {
          "name": "tokenId",
          "type": "uint256"
        }
      ],
      "name": "ownerOf",
      "outputs": [
        {
          "name": "",
          "type": "address"
        }
      ],
      "payable": false,
      "stateMutability": "view",
      "type": "function",
      "signature": "0x6352211e"
    },
    {
      "constant": false,
      "inputs": [],
      "name": "returnContractOwner",
      "outputs": [
        {
          "name": "",
          "type": "address"
        }
      ],
      "payable": false,
      "stateMutability": "nonpayable",
      "type": "function",
      "signature": "0x7035fbff"
    },
    {
      "constant": true,
      "inputs": [
        {
          "name": "owner",
          "type": "address"
        }
      ],
      "name": "balanceOf",
      "outputs": [
        {
          "name": "",
          "type": "uint256"
        }
      ],
      "payable": false,
      "stateMutability": "view",
      "type": "function",
      "signature": "0x70a08231"
    },
    {
      "constant": false,
      "inputs": [],
      "name": "getOwner",
      "outputs": [
        {
          "name": "",
          "type": "address"
        }
      ],
      "payable": false,
      "stateMutability": "nonpayable",
      "type": "function",
      "signature": "0x893d20e8"
    },
    {
      "constant": false,
      "inputs": [
        {
          "name": "to",
          "type": "address"
        },
        {
          "name": "approved",
          "type": "bool"
        }
      ],
      "name": "setApprovalForAll",
      "outputs": [],
      "payable": false,
      "stateMutability": "nonpayable",
      "type": "function",
      "signature": "0xa22cb465"
    },
    {
      "constant": false,
      "inputs": [
        {
          "name": "from",
          "type": "address"
        },
        {
          "name": "to",
          "type": "address"
        },
        {
          "name": "tokenId",
          "type": "uint256"
        },
        {
          "name": "_data",
          "type": "bytes"
        }
      ],
      "name": "safeTransferFrom",
      "outputs": [],
      "payable": false,
      "stateMutability": "nonpayable",
      "type": "function",
      "signature": "0xb88d4fde"
    },
    {
      "constant": true,
      "inputs": [
        {
          "name": "tokenId",
          "type": "uint256"
        }
      ],
      "name": "tokenURI",
      "outputs": [
        {
          "name": "",
          "type": "string"
        }
      ],
      "payable": false,
      "stateMutability": "view",
      "type": "function",
      "signature": "0xc87b56dd"
    },
    {
      "constant": false,
      "inputs": [
        {
          "name": "ipaused",
          "type": "bool"
        }
      ],
      "name": "setPauseState",
      "outputs": [],
      "payable": false,
      "stateMutability": "nonpayable",
      "type": "function",
      "signature": "0xcdb88ad1"
    },
    {
      "constant": true,
      "inputs": [
        {
          "name": "owner",
          "type": "address"
        },
        {
          "name": "operator",
          "type": "address"
        }
      ],
      "name": "isApprovedForAll",
      "outputs": [
        {
          "name": "",
          "type": "bool"
        }
      ],
      "payable": false,
      "stateMutability": "view",
      "type": "function",
      "signature": "0xe985e9c5"
    },
    {
      "constant": false,
      "inputs": [
        {
          "name": "newOwner",
          "type": "address"
        }
      ],
      "name": "transferOwnership",
      "outputs": [],
      "payable": false,
      "stateMutability": "nonpayable",
      "type": "function",
      "signature": "0xf2fde38b"
    },
    {
      "constant": true,
      "inputs": [],
      "name": "getERC721Data",
      "outputs": [
        {
          "name": "name",
          "type": "string"
        },
        {
          "name": "symbol",
          "type": "string"
        },
        {
          "name": "baseTokenURI",
          "type": "string"
        }
      ],
      "payable": false,
      "stateMutability": "view",
      "type": "function",
      "signature": "0xf8bb0f13"
    },
    {
      "constant": false,
      "inputs": [
        {
          "name": "a",
          "type": "uint256[2]"
        },
        {
          "name": "a_p",
          "type": "uint256[2]"
        },
        {
          "name": "b",
          "type": "uint256[2][2]"
        },
        {
          "name": "b_p",
          "type": "uint256[2]"
        },
        {
          "name": "c",
          "type": "uint256[2]"
        },
        {
          "name": "c_p",
          "type": "uint256[2]"
        },
        {
          "name": "h",
          "type": "uint256[2]"
        },
        {
          "name": "k",
          "type": "uint256[2]"
        },
        {
          "name": "input",
          "type": "uint256[2]"
        }
      ],
      "name": "verifyTx",
      "outputs": [
        {
          "name": "r",
          "type": "bool"
        }
      ],
      "payable": false,
      "stateMutability": "nonpayable",
      "type": "function",
      "signature": "0xfe01ff62"
    },
    {
      "inputs": [
        {
          "name": "verifierAddress",
          "type": "address"
        },
        {
          "name": "name",
          "type": "string"
        },
        {
          "name": "symbol",
          "type": "string"
        }
      ],
      "payable": false,
      "stateMutability": "nonpayable",
      "type": "constructor",
      "signature": "constructor"
    },
    {
      "anonymous": false,
      "inputs": [
        {
          "indexed": true,
          "name": "solAddress",
          "type": "address"
        },
        {
          "indexed": true,
          "name": "index",
          "type": "uint256"
        }
      ],
      "name": "SolutionAdded",
      "type": "event",
      "signature": "0x3a01cc868bdb36c1d9b8a262a8ad25064b23ac175b3f8e4453f1daf8ff6bac0d"
    },
    {
      "anonymous": false,
      "inputs": [
        {
          "indexed": false,
          "name": "s",
          "type": "string"
        }
      ],
      "name": "Verified",
      "type": "event",
      "signature": "0x3f3cfdb26fb5f9f1786ab4f1a1f9cd4c0b5e726cbdfc26e495261731aad44e39"
    },
    {
      "anonymous": false,
      "inputs": [
        {
          "indexed": true,
          "name": "from",
          "type": "address"
        },
        {
          "indexed": true,
          "name": "to",
          "type": "address"
        },
        {
          "indexed": true,
          "name": "tokenId",
          "type": "uint256"
        }
      ],
      "name": "Transfer",
      "type": "event",
      "signature": "0xddf252ad1be2c89b69c2b068fc378daa952ba7f163c4a11628f55a4df523b3ef"
    },
    {
      "anonymous": false,
      "inputs": [
        {
          "indexed": true,
          "name": "owner",
          "type": "address"
        },
        {
          "indexed": true,
          "name": "approved",
          "type": "address"
        },
        {
          "indexed": true,
          "name": "tokenId",
          "type": "uint256"
        }
      ],
      "name": "Approval",
      "type": "event",
      "signature": "0x8c5be1e5ebec7d5bd14f71427d1e84f3dd0314c0f7b2291e5b200ac8c7c3b925"
    },
    {
      "anonymous": false,
      "inputs": [
        {
          "indexed": true,
          "name": "owner",
          "type": "address"
        },
        {
          "indexed": true,
          "name": "operator",
          "type": "address"
        },
        {
          "indexed": false,
          "name": "approved",
          "type": "bool"
        }
      ],
      "name": "ApprovalForAll",
      "type": "event",
      "signature": "0x17307eab39ab6107e8899845ad3d59bd9653f200f220920489ca2b5937696c31"
    },
    {
      "anonymous": false,
      "inputs": [
        {
          "indexed": false,
          "name": "callingAddress",
          "type": "address"
        }
      ],
      "name": "Paused",
      "type": "event",
      "signature": "0x62e78cea01bee320cd4e420270b5ea74000d11b0c9f74754ebdbfc544b05a258"
    },
    {
      "anonymous": false,
      "inputs": [
        {
          "indexed": false,
          "name": "callingAddress",
          "type": "address"
        }
      ],
      "name": "Unpaused",
      "type": "event",
      "signature": "0x5db9ee0a495bf2e6ff9c91a7834c1ba4fdd244a5e8aa4e537bd38aeae4b073aa"
    },
    {
      "anonymous": false,
      "inputs": [
        {
          "indexed": false,
          "name": "newOwner",
          "type": "address"
        }
      ],
      "name": "OwnershipTransfered",
      "type": "event",
      "signature": "0x9736aeb40a8f30a5c076a9897428fdf7ec0e909c96dce63533664c9b5c835da6"
    },
    {
      "constant": false,
      "inputs": [
        {
          "name": "a",
          "type": "uint256[2]"
        },
        {
          "name": "a_p",
          "type": "uint256[2]"
        },
        {
          "name": "b",
          "type": "uint256[2][2]"
        },
        {
          "name": "b_p",
          "type": "uint256[2]"
        },
        {
          "name": "c",
          "type": "uint256[2]"
        },
        {
          "name": "c_p",
          "type": "uint256[2]"
        },
        {
          "name": "h",
          "type": "uint256[2]"
        },
        {
          "name": "k",
          "type": "uint256[2]"
        },
        {
          "name": "input",
          "type": "uint256[2]"
        }
      ],
      "name": "addSolution",
      "outputs": [
        {
          "name": "r",
          "type": "bool"
        }
      ],
      "payable": false,
      "stateMutability": "nonpayable",
      "type": "function",
      "signature": "0x5a50ec51"
    },
    {
      "constant": false,
      "inputs": [
        {
          "name": "input",
          "type": "uint256[2]"
        },
        {
          "name": "to",
          "type": "address"
        }
      ],
      "name": "mintNewToken",
      "outputs": [
        {
          "name": "r",
          "type": "bool"
        }
      ],
      "payable": false,
      "stateMutability": "nonpayable",
      "type": "function",
      "signature": "0x2d21947e"
    }
  ],
  "bytecode": "0x60806040523480156200001157600080fd5b506040516200586a3803806200586a833981018060405260608110156200003757600080fd5b810190808051906020019092919080516401000000008111156200005a57600080fd5b828101905060208101848111156200007157600080fd5b81518560018202830111640100000000821117156200008f57600080fd5b50509291906020018051640100000000811115620000ac57600080fd5b82810190506020810184811115620000c357600080fd5b8151856001820283011164010000000082111715620000e157600080fd5b50509291905050508181818160138054600181600116156101000203166002900480601f016020809104026020016040519081016040528092919081815260200182805460018160011615610100020316600290048015620001875780601f106200015b5761010080835404028352916020019162000187565b820191906000526020600020905b8154815290600101906020018083116200016957829003601f168201915b5050505050336000806101000a81548173ffffffffffffffffffffffffffffffffffffffff021916908373ffffffffffffffffffffffffffffffffffffffff1602179055507f9736aeb40a8f30a5c076a9897428fdf7ec0e909c96dce63533664c9b5c835da66000809054906101000a900473ffffffffffffffffffffffffffffffffffffffff16604051808273ffffffffffffffffffffffffffffffffffffffff1673ffffffffffffffffffffffffffffffffffffffff16815260200191505060405180910390a160008060146101000a81548160ff021916908315150217905550620002a76301ffc9a77c010000000000000000000000000000000000000000000000000000000002620004ee640100000000026401000000009004565b620002e46380ac58cd7c010000000000000000000000000000000000000000000000000000000002620004ee640100000000026401000000009004565b6200032163780e9d637c010000000000000000000000000000000000000000000000000000000002620004ee640100000000026401000000009004565b82600f908051906020019062000339929190620005c6565b50816010908051906020019062000352929190620005c6565b5080601190805190602001906200036b929190620005c6565b5050505033601460006101000a81548173ffffffffffffffffffffffffffffffffffffffff021916908373ffffffffffffffffffffffffffffffffffffffff1602179055506040518060600160405280603f81526020016200582b603f913960139080519060200190620003e1929190620005c6565b506200049a60138054600181600116156101000203166002900480601f016020809104026020016040519081016040528092919081815260200182805460018160011615610100020316600290048015620004805780601f10620004545761010080835404028352916020019162000480565b820191906000526020600020905b8154815290600101906020018083116200046257829003601f168201915b5050505050620005aa640100000000026401000000009004565b505082601660006101000a81548173ffffffffffffffffffffffffffffffffffffffff021916908373ffffffffffffffffffffffffffffffffffffffff160217905550600060158190555050505062000675565b63ffffffff7c010000000000000000000000000000000000000000000000000000000002817bffffffffffffffffffffffffffffffffffffffffffffffffffffffff191614156200053e57600080fd5b6001806000837bffffffffffffffffffffffffffffffffffffffffffffffffffffffff19167bffffffffffffffffffffffffffffffffffffffffffffffffffffffff1916815260200190815260200160002060006101000a81548160ff02191690831515021790555050565b8060119080519060200190620005c2929190620005c6565b5050565b828054600181600116156101000203166002900490600052602060002090601f016020900481019282601f106200060957805160ff19168380011785556200063a565b828001600101855582156200063a579182015b82811115620006395782518255916020019190600101906200061c565b5b5090506200064991906200064d565b5090565b6200067291905b808211156200066e57600081600090555060010162000654565b5090565b90565b6151a680620006856000396000f3fe608060405234801561001057600080fd5b5060043610610190576000357c0100000000000000000000000000000000000000000000000000000000900480635a50ec51116100fb578063b88d4fde116100b4578063e985e9c51161008e578063e985e9c514610dbc578063f2fde38b14610e38578063f8bb0f1314610e7c578063fe01ff6214610fd757610190565b8063b88d4fde14610be0578063c87b56dd14610ce5578063cdb88ad114610d8c57610190565b80635a50ec51146107785780636352211e14610a365780637035fbff14610aa457806370a0823114610aee578063893d20e814610b46578063a22cb46514610b9057610190565b80632d21947e1161014d5780632d21947e146104075780632f745c59146104a457806338bbfa501461050657806340c10f191461066257806342842e0e146106c85780634f6ccce71461073657610190565b806301ffc9a714610195578063081812fc146101fa578063095ea7b31461026857806318160ddd146102b657806323b872dd146102d457806327dc297e14610342575b600080fd5b6101e0600480360360208110156101ab57600080fd5b8101908080357bffffffffffffffffffffffffffffffffffffffffffffffffffffffff19169060200190929190505050611295565b604051808215151515815260200191505060405180910390f35b6102266004803603602081101561021057600080fd5b81019080803590602001909291905050506112fd565b604051808273ffffffffffffffffffffffffffffffffffffffff1673ffffffffffffffffffffffffffffffffffffffff16815260200191505060405180910390f35b6102b46004803603604081101561027e57600080fd5b81019080803573ffffffffffffffffffffffffffffffffffffffff1690602001909291908035906020019092919050505061134c565b005b6102be6114d9565b6040518082815260200191505060405180910390f35b610340600480360360608110156102ea57600080fd5b81019080803573ffffffffffffffffffffffffffffffffffffffff169060200190929190803573ffffffffffffffffffffffffffffffffffffffff169060200190929190803590602001909291905050506114e6565b005b6104056004803603604081101561035857600080fd5b81019080803590602001909291908035906020019064010000000081111561037f57600080fd5b82018360208201111561039157600080fd5b803590602001918460018302840111640100000000831117156103b357600080fd5b91908080601f016020809104026020016040519081016040528093929190818152602001838380828437600081840152601f19601f820116905080830192505050505050509192919290505050611509565b005b61048a6004803603606081101561041d57600080fd5b8101908080604001906002806020026040519081016040528092919082600260200280828437600081840152601f19601f8201169050808301925050505050509192919290803573ffffffffffffffffffffffffffffffffffffffff16906020019092919050505061154c565b604051808215151515815260200191505060405180910390f35b6104f0600480360360408110156104ba57600080fd5b81019080803573ffffffffffffffffffffffffffffffffffffffff169060200190929190803590602001909291905050506116a6565b6040518082815260200191505060405180910390f35b6106606004803603606081101561051c57600080fd5b81019080803590602001909291908035906020019064010000000081111561054357600080fd5b82018360208201111561055557600080fd5b8035906020019184600183028401116401000000008311171561057757600080fd5b91908080601f016020809104026020016040519081016040528093929190818152602001838380828437600081840152601f19601f820116905080830192505050505050509192919290803590602001906401000000008111156105da57600080fd5b8201836020820111156105ec57600080fd5b8035906020019184600183028401116401000000008311171561060e57600080fd5b91908080601f016020809104026020016040519081016040528093929190818152602001838380828437600081840152601f19601f820116905080830192505050505050509192919290505050611719565b005b6106ae6004803603604081101561067857600080fd5b81019080803573ffffffffffffffffffffffffffffffffffffffff1690602001909291908035906020019092919050505061171e565b604051808215151515815260200191505060405180910390f35b610734600480360360608110156106de57600080fd5b81019080803573ffffffffffffffffffffffffffffffffffffffff169060200190929190803573ffffffffffffffffffffffffffffffffffffffff169060200190929190803590602001909291905050506117e6565b005b6107626004803603602081101561074c57600080fd5b8101908080359060200190929190505050611806565b6040518082815260200191505060405180910390f35b610a1c600480360361028081101561078f57600080fd5b8101908080604001906002806020026040519081016040528092919082600260200280828437600081840152601f19601f820116905080830192505050505050919291929080604001906002806020026040519081016040528092919082600260200280828437600081840152601f19601f82011690508083019250505050505091929192908060800190600280602002604051908101604052809291906000905b82821015610885578382604002016002806020026040519081016040528092919082600260200280828437600081840152601f19601f82011690508083019250505050505081526020019060010190610831565b50505050919291929080604001906002806020026040519081016040528092919082600260200280828437600081840152601f19601f820116905080830192505050505050919291929080604001906002806020026040519081016040528092919082600260200280828437600081840152601f19601f820116905080830192505050505050919291929080604001906002806020026040519081016040528092919082600260200280828437600081840152601f19601f820116905080830192505050505050919291929080604001906002806020026040519081016040528092919082600260200280828437600081840152601f19601f820116905080830192505050505050919291929080604001906002806020026040519081016040528092919082600260200280828437600081840152601f19601f820116905080830192505050505050919291929080604001906002806020026040519081016040528092919082600260200280828437600081840152601f19601f820116905080830192505050505050919291929050505061183a565b604051808215151515815260200191505060405180910390f35b610a6260048036036020811015610a4c57600080fd5b8101908080359060200190929190505050611c92565b604051808273ffffffffffffffffffffffffffffffffffffffff1673ffffffffffffffffffffffffffffffffffffffff16815260200191505060405180910390f35b610aac611d0e565b604051808273ffffffffffffffffffffffffffffffffffffffff1673ffffffffffffffffffffffffffffffffffffffff16815260200191505060405180910390f35b610b3060048036036020811015610b0457600080fd5b81019080803573ffffffffffffffffffffffffffffffffffffffff169060200190929190505050611dde565b6040518082815260200191505060405180910390f35b610b4e611e67565b604051808273ffffffffffffffffffffffffffffffffffffffff1673ffffffffffffffffffffffffffffffffffffffff16815260200191505060405180910390f35b610bde60048036036040811015610ba657600080fd5b81019080803573ffffffffffffffffffffffffffffffffffffffff169060200190929190803515159060200190929190505050611e90565b005b610ce360048036036080811015610bf657600080fd5b81019080803573ffffffffffffffffffffffffffffffffffffffff169060200190929190803573ffffffffffffffffffffffffffffffffffffffff1690602001909291908035906020019092919080359060200190640100000000811115610c5d57600080fd5b820183602082011115610c6f57600080fd5b80359060200191846001830284011164010000000083111715610c9157600080fd5b91908080601f016020809104026020016040519081016040528093929190818152602001838380828437600081840152601f19601f820116905080830192505050505050509192919290505050611fca565b005b610d1160048036036020811015610cfb57600080fd5b8101908080359060200190929190505050611ff0565b6040518080602001828103825283818151815260200191508051906020019080838360005b83811015610d51578082015181840152602081019050610d36565b50505050905090810190601f168015610d7e5780820380516001836020036101000a031916815260200191505b509250505060405180910390f35b610dba60048036036020811015610da257600080fd5b810190808035151590602001909291905050506120b7565b005b610e1e60048036036040811015610dd257600080fd5b81019080803573ffffffffffffffffffffffffffffffffffffffff169060200190929190803573ffffffffffffffffffffffffffffffffffffffff16906020019092919050505061224b565b604051808215151515815260200191505060405180910390f35b610e7a60048036036020811015610e4e57600080fd5b81019080803573ffffffffffffffffffffffffffffffffffffffff1690602001909291905050506122df565b005b610e8461244f565b60405180806020018060200180602001848103845287818151815260200191508051906020019080838360005b83811015610ecc578082015181840152602081019050610eb1565b50505050905090810190601f168015610ef95780820380516001836020036101000a031916815260200191505b50848103835286818151815260200191508051906020019080838360005b83811015610f32578082015181840152602081019050610f17565b50505050905090810190601f168015610f5f5780820380516001836020036101000a031916815260200191505b50848103825285818151815260200191508051906020019080838360005b83811015610f98578082015181840152602081019050610f7d565b50505050905090810190601f168015610fc55780820380516001836020036101000a031916815260200191505b50965050505050505060405180910390f35b61127b6004803603610280811015610fee57600080fd5b8101908080604001906002806020026040519081016040528092919082600260200280828437600081840152601f19601f820116905080830192505050505050919291929080604001906002806020026040519081016040528092919082600260200280828437600081840152601f19601f82011690508083019250505050505091929192908060800190600280602002604051908101604052809291906000905b828210156110e4578382604002016002806020026040519081016040528092919082600260200280828437600081840152601f19601f82011690508083019250505050505081526020019060010190611090565b50505050919291929080604001906002806020026040519081016040528092919082600260200280828437600081840152601f19601f820116905080830192505050505050919291929080604001906002806020026040519081016040528092919082600260200280828437600081840152601f19601f820116905080830192505050505050919291929080604001906002806020026040519081016040528092919082600260200280828437600081840152601f19601f820116905080830192505050505050919291929080604001906002806020026040519081016040528092919082600260200280828437600081840152601f19601f820116905080830192505050505050919291929080604001906002806020026040519081016040528092919082600260200280828437600081840152601f19601f820116905080830192505050505050919291929080604001906002806020026040519081016040528092919082600260200280828437600081840152601f19601f8201169050808301925050505050509192919290505050612630565b604051808215151515815260200191505060405180910390f35b600060016000837bffffffffffffffffffffffffffffffffffffffffffffffffffffffff19167bffffffffffffffffffffffffffffffffffffffffffffffffffffffff1916815260200190815260200160002060009054906101000a900460ff169050919050565b6000611308826129b7565b61131157600080fd5b6003600083815260200190815260200160002060009054906101000a900473ffffffffffffffffffffffffffffffffffffffff169050919050565b600061135782611c92565b90508073ffffffffffffffffffffffffffffffffffffffff168373ffffffffffffffffffffffffffffffffffffffff16141561139257600080fd5b8073ffffffffffffffffffffffffffffffffffffffff163373ffffffffffffffffffffffffffffffffffffffff1614806113d257506113d1813361224b565b5b611427576040517f08c379a00000000000000000000000000000000000000000000000000000000081526004018080602001828103825260248152602001806150846024913960400191505060405180910390fd5b826003600084815260200190815260200160002060006101000a81548173ffffffffffffffffffffffffffffffffffffffff021916908373ffffffffffffffffffffffffffffffffffffffff160217905550818373ffffffffffffffffffffffffffffffffffffffff168273ffffffffffffffffffffffffffffffffffffffff167f8c5be1e5ebec7d5bd14f71427d1e84f3dd0314c0f7b2291e5b200ac8c7c3b92560405160405180910390a4505050565b6000600880549050905090565b6114f03382612a29565b6114f957600080fd5b611504838383612abe565b505050565b611548828260006040519080825280601f01601f1916602001820160405280156115425781602001600182028038833980820191505090505b50611719565b5050565b60008260006002811061155b57fe5b60200201518360016002811061156d57fe5b6020020151600061157e8383612ae2565b90506001600281111561158d57fe5b6017600083815260200190815260200160002060009054906101000a900460ff1660028111156115b957fe5b1461160f576040517f08c379a000000000000000000000000000000000000000000000000000000000815260040180806020018281038252603181526020018061514a6031913960400191505060405180910390fd5b61161b8560155461171e565b9350600061164b8760006002811061162f57fe5b60200201518860016002811061164157fe5b6020020151612ae2565b905060026017600083815260200190815260200160002060006101000a81548160ff0219169083600281111561167d57fe5b02179055506116986001601554612b1f90919063ffffffff16565b508494505050505092915050565b60006116b183611dde565b82106116bc57600080fd5b600660008473ffffffffffffffffffffffffffffffffffffffff1673ffffffffffffffffffffffffffffffffffffffff168152602001908152602001600020828154811061170657fe5b9060005260206000200154905092915050565b505050565b6000809050601460009054906101000a900473ffffffffffffffffffffffffffffffffffffffff1673ffffffffffffffffffffffffffffffffffffffff163373ffffffffffffffffffffffffffffffffffffffff16146117c9576040517f08c379a000000000000000000000000000000000000000000000000000000000815260040180806020018281038252603081526020018061511a6030913960400191505060405180910390fd5b6117d38383612b3e565b6117dc82612b5f565b6001905092915050565b61180183838360405180602001604052806000815250611fca565b505050565b60006118106114d9565b821061181b57600080fd5b6008828154811061182857fe5b90600052602060002001549050919050565b60008160006002811061184957fe5b60200201518260016002811061185b57fe5b6020020151600061186c8383612ae2565b90506001600281111561187b57fe5b6017600083815260200190815260200160002060009054906101000a900460ff1660028111156118a757fe5b14156118fe576040517f08c379a000000000000000000000000000000000000000000000000000000000815260040180806020018281038252602d8152602001806150a8602d913960400191505060405180910390fd5b601660009054906101000a900473ffffffffffffffffffffffffffffffffffffffff1673ffffffffffffffffffffffffffffffffffffffff1663fe01ff628e8e8e8e8e8e8e8e8e6040518a63ffffffff167c0100000000000000000000000000000000000000000000000000000000028152600401808a600260200280838360005b8381101561199b578082015181840152602081019050611980565b5050505090500189600260200280838360005b838110156119c95780820151818401526020810190506119ae565b505050509050018860026000925b81841015611a1d5782846020020151600260200280838360005b83811015611a0c5780820151818401526020810190506119f1565b5050505090500192600101926119d7565b9250505087600260200280838360005b83811015611a48578082015181840152602081019050611a2d565b5050505090500186600260200280838360005b83811015611a76578082015181840152602081019050611a5b565b5050505090500185600260200280838360005b83811015611aa4578082015181840152602081019050611a89565b5050505090500184600260200280838360005b83811015611ad2578082015181840152602081019050611ab7565b5050505090500183600260200280838360005b83811015611b00578082015181840152602081019050611ae5565b5050505090500182600260200280838360005b83811015611b2e578082015181840152602081019050611b13565b505050509050019950505050505050505050602060405180830381600087803b158015611b5a57600080fd5b505af1158015611b6e573d6000803e3d6000fd5b505050506040513d6020811015611b8457600080fd5b810190808051906020019092919050505093508315611c8257611ba5614d45565b604051806040016040528060155481526020013373ffffffffffffffffffffffffffffffffffffffff1681525090506015543373ffffffffffffffffffffffffffffffffffffffff167f3a01cc868bdb36c1d9b8a262a8ad25064b23ac175b3f8e4453f1daf8ff6bac0d60405160405180910390a36000611c4887600060028110611c2c57fe5b602002015188600160028110611c3e57fe5b6020020151612ae2565b905060016017600083815260200190815260200160002060006101000a81548160ff02191690836002811115611c7a57fe5b021790555050505b5050509998505050505050505050565b6000806002600084815260200190815260200160002060009054906101000a900473ffffffffffffffffffffffffffffffffffffffff169050600073ffffffffffffffffffffffffffffffffffffffff168173ffffffffffffffffffffffffffffffffffffffff161415611d0557600080fd5b80915050919050565b6000601460009054906101000a900473ffffffffffffffffffffffffffffffffffffffff1673ffffffffffffffffffffffffffffffffffffffff163373ffffffffffffffffffffffffffffffffffffffff1614611db6576040517f08c379a000000000000000000000000000000000000000000000000000000000815260040180806020018281038252602c815260200180615033602c913960400191505060405180910390fd5b601460009054906101000a900473ffffffffffffffffffffffffffffffffffffffff16905090565b60008073ffffffffffffffffffffffffffffffffffffffff168273ffffffffffffffffffffffffffffffffffffffff161415611e1957600080fd5b611e60600460008473ffffffffffffffffffffffffffffffffffffffff1673ffffffffffffffffffffffffffffffffffffffff168152602001908152602001600020612c47565b9050919050565b60008060009054906101000a900473ffffffffffffffffffffffffffffffffffffffff16905090565b3373ffffffffffffffffffffffffffffffffffffffff168273ffffffffffffffffffffffffffffffffffffffff161415611ec957600080fd5b80600560003373ffffffffffffffffffffffffffffffffffffffff1673ffffffffffffffffffffffffffffffffffffffff16815260200190815260200160002060008473ffffffffffffffffffffffffffffffffffffffff1673ffffffffffffffffffffffffffffffffffffffff16815260200190815260200160002060006101000a81548160ff0219169083151502179055508173ffffffffffffffffffffffffffffffffffffffff163373ffffffffffffffffffffffffffffffffffffffff167f17307eab39ab6107e8899845ad3d59bd9653f200f220920489ca2b5937696c3183604051808215151515815260200191505060405180910390a35050565b611fd58484846114e6565b611fe184848484612c55565b611fea57600080fd5b50505050565b6060611ffb826129b7565b61200457600080fd5b601260008381526020019081526020016000208054600181600116156101000203166002900480601f0160208091040260200160405190810160405280929190818152602001828054600181600116156101000203166002900480156120ab5780601f10612080576101008083540402835291602001916120ab565b820191906000526020600020905b81548152906001019060200180831161208e57829003601f168201915b50505050509050919050565b6000809054906101000a900473ffffffffffffffffffffffffffffffffffffffff1673ffffffffffffffffffffffffffffffffffffffff163373ffffffffffffffffffffffffffffffffffffffff161461215c576040517f08c379a000000000000000000000000000000000000000000000000000000000815260040180806020018281038252602581526020018061505f6025913960400191505060405180910390fd5b80156121ca577f62e78cea01bee320cd4e420270b5ea74000d11b0c9f74754ebdbfc544b05a25833604051808273ffffffffffffffffffffffffffffffffffffffff1673ffffffffffffffffffffffffffffffffffffffff16815260200191505060405180910390a161222e565b7f5db9ee0a495bf2e6ff9c91a7834c1ba4fdd244a5e8aa4e537bd38aeae4b073aa33604051808273ffffffffffffffffffffffffffffffffffffffff1673ffffffffffffffffffffffffffffffffffffffff16815260200191505060405180910390a15b80600060146101000a81548160ff02191690831515021790555050565b6000600560008473ffffffffffffffffffffffffffffffffffffffff1673ffffffffffffffffffffffffffffffffffffffff16815260200190815260200160002060008373ffffffffffffffffffffffffffffffffffffffff1673ffffffffffffffffffffffffffffffffffffffff16815260200190815260200160002060009054906101000a900460ff16905092915050565b6000809054906101000a900473ffffffffffffffffffffffffffffffffffffffff1673ffffffffffffffffffffffffffffffffffffffff163373ffffffffffffffffffffffffffffffffffffffff1614612384576040517f08c379a000000000000000000000000000000000000000000000000000000000815260040180806020018281038252602581526020018061505f6025913960400191505060405180910390fd5b80600073ffffffffffffffffffffffffffffffffffffffff168173ffffffffffffffffffffffffffffffffffffffff16141561240b576040517f08c379a00000000000000000000000000000000000000000000000000000000081526004018080602001828103825260238152602001806150d56023913960400191505060405180910390fd5b816000806101000a81548173ffffffffffffffffffffffffffffffffffffffff021916908373ffffffffffffffffffffffffffffffffffffffff1602179055505050565b6060806060600f8054600181600116156101000203166002900480601f0160208091040260200160405190810160405280929190818152602001828054600181600116156101000203166002900480156124ea5780601f106124bf576101008083540402835291602001916124ea565b820191906000526020600020905b8154815290600101906020018083116124cd57829003601f168201915b5050505050925060108054600181600116156101000203166002900480601f0160208091040260200160405190810160405280929190818152602001828054600181600116156101000203166002900480156125875780601f1061255c57610100808354040283529160200191612587565b820191906000526020600020905b81548152906001019060200180831161256a57829003601f168201915b5050505050915060118054600181600116156101000203166002900480601f0160208091040260200160405190810160405280929190818152602001828054600181600116156101000203166002900480156126245780601f106125f957610100808354040283529160200191612624565b820191906000526020600020905b81548152906001019060200180831161260757829003601f168201915b50505050509050909192565b600061263a614d75565b60405180604001604052808c60006002811061265257fe5b602002015181526020018c60016002811061266957fe5b6020020151815250816000018190525060405180604001604052808b60006002811061269157fe5b602002015181526020018b6001600281106126a857fe5b60200201518152508160200181905250604051806040016040528060405180604001604052808c6000600281106126db57fe5b60200201516000600281106126ec57fe5b602002015181526020018c60006002811061270357fe5b602002015160016002811061271457fe5b6020020151815250815260200160405180604001604052808c60016002811061273957fe5b602002015160006002811061274a57fe5b602002015181526020018c60016002811061276157fe5b602002015160016002811061277257fe5b6020020151815250815250816040018190525060405180604001604052808960006002811061279d57fe5b60200201518152602001896001600281106127b457fe5b602002015181525081606001819052506040518060400160405280886000600281106127dc57fe5b60200201518152602001886001600281106127f357fe5b6020020151815250816080018190525060405180604001604052808760006002811061281b57fe5b602002015181526020018760016002811061283257fe5b60200201518152508160a0018190525060405180604001604052808660006002811061285a57fe5b602002015181526020018660016002811061287157fe5b60200201518152508160e0018190525060405180604001604052808560006002811061289957fe5b60200201518152602001856001600281106128b057fe5b60200201518152508160c00181905250606060026040519080825280602002602001820160405280156128f25781602001602082028038833980820191505090505b50905060008090505b600281101561293a5784816002811061291057fe5b602002015182828151811061292157fe5b60200260200101818152505080806001019150506128fb565b5060006129478284612e76565b14156129a3577f3f3cfdb26fb5f9f1786ab4f1a1f9cd4c0b5e726cbdfc26e495261731aad44e396040518080602001828103825260228152602001806150f86022913960400191505060405180910390a16001925050506129aa565b6000925050505b9998505050505050505050565b6000806002600084815260200190815260200160002060009054906101000a900473ffffffffffffffffffffffffffffffffffffffff169050600073ffffffffffffffffffffffffffffffffffffffff168173ffffffffffffffffffffffffffffffffffffffff161415915050919050565b600080612a3583611c92565b90508073ffffffffffffffffffffffffffffffffffffffff168473ffffffffffffffffffffffffffffffffffffffff161480612aa457508373ffffffffffffffffffffffffffffffffffffffff16612a8c846112fd565b73ffffffffffffffffffffffffffffffffffffffff16145b80612ab55750612ab4818561224b565b5b91505092915050565b612ac983838361309e565b612ad383826133de565b612add828261357c565b505050565b6000818301828402604051602001808381526020018281526020019250505060405160208183030381529060405280519060200120905092915050565b600080828401905083811015612b3457600080fd5b8091505092915050565b612b488282613643565b612b52828261357c565b612b5b816138e1565b5050565b612b68816129b7565b612b7157600080fd5b612c1d60118054600181600116156101000203166002900480601f016020809104026020016040519081016040528092919081815260200182805460018160011615610100020316600290048015612c0a5780601f10612bdf57610100808354040283529160200191612c0a565b820191906000526020600020905b815481529060010190602001808311612bed57829003601f168201915b5050505050612c188361392d565b613a79565b601260008381526020019081526020016000209080519060200190612c43929190614dea565b5050565b600081600001549050919050565b6000612c768473ffffffffffffffffffffffffffffffffffffffff16613abd565b612c835760019050612e6e565b60008473ffffffffffffffffffffffffffffffffffffffff1663150b7a02338887876040518563ffffffff167c0100000000000000000000000000000000000000000000000000000000028152600401808573ffffffffffffffffffffffffffffffffffffffff1673ffffffffffffffffffffffffffffffffffffffff1681526020018473ffffffffffffffffffffffffffffffffffffffff1673ffffffffffffffffffffffffffffffffffffffff16815260200183815260200180602001828103825283818151815260200191508051906020019080838360005b83811015612d7a578082015181840152602081019050612d5f565b50505050905090810190601f168015612da75780820380516001836020036101000a031916815260200191505b5095505050505050602060405180830381600087803b158015612dc957600080fd5b505af1158015612ddd573d6000803e3d6000fd5b505050506040513d6020811015612df357600080fd5b8101908080519060200190929190505050905063150b7a027c0100000000000000000000000000000000000000000000000000000000027bffffffffffffffffffffffffffffffffffffffffffffffffffffffff1916817bffffffffffffffffffffffffffffffffffffffffffffffffffffffff1916149150505b949350505050565b6000612e80614e6a565b612e88613ad0565b90508060e0015151600185510114612e9f57600080fd5b612ea7614ed9565b6040518060400160405280600081526020016000815250905060008090505b8551811015612f1e57612f0f82612f0a8560e001516001850181518110612ee957fe5b6020026020010151898581518110612efd57fe5b6020026020010151614105565b614199565b91508080600101915050612ec6565b50612f41818360e00151600081518110612f3457fe5b6020026020010151614199565b9050612f6a84600001518360000151612f5d876020015161424c565b612f656142e6565b6143b0565b612f7957600192505050613098565b612fa082602001518560400151612f93876060015161424c565b612f9b6142e6565b6143b0565b612faf57600292505050613098565b612fd684608001518360400151612fc98760a0015161424c565b612fd16142e6565b6143b0565b612fe557600392505050613098565b6130318460c0015183606001516130156130108561300b8a600001518b60800151614199565b614199565b61424c565b8560a00151613027876080015161424c565b89604001516144ac565b61304057600492505050613098565b613082613051828660000151614199565b85604001516130638760e0015161424c565b8560c00151613075896080015161424c565b61307d6142e6565b6144ac565b61309157600592505050613098565b6000925050505b92915050565b8273ffffffffffffffffffffffffffffffffffffffff166002600083815260200190815260200160002060009054906101000a900473ffffffffffffffffffffffffffffffffffffffff1673ffffffffffffffffffffffffffffffffffffffff1614613172576040517f08c379a00000000000000000000000000000000000000000000000000000000081526004018080602001828103825260198152602001807f41646472657373206d757374206f776e20746f6b656e2049440000000000000081525060200191505060405180910390fd5b600015156131958373ffffffffffffffffffffffffffffffffffffffff16613abd565b15151480156131d15750600073ffffffffffffffffffffffffffffffffffffffff168273ffffffffffffffffffffffffffffffffffffffff1614155b613243576040517f08c379a00000000000000000000000000000000000000000000000000000000081526004018080602001828103825260198152602001807f56616c696420616464726573732069732072657175697265640000000000000081525060200191505060405180910390fd5b61324c816145dc565b816003600083815260200190815260200160002060006101000a81548173ffffffffffffffffffffffffffffffffffffffff021916908373ffffffffffffffffffffffffffffffffffffffff1602179055506132e5600460008573ffffffffffffffffffffffffffffffffffffffff1673ffffffffffffffffffffffffffffffffffffffff16815260200190815260200160002061469a565b61332c600460008473ffffffffffffffffffffffffffffffffffffffff1673ffffffffffffffffffffffffffffffffffffffff1681526020019081526020016000206146bd565b826002600083815260200190815260200160002060006101000a81548173ffffffffffffffffffffffffffffffffffffffff021916908373ffffffffffffffffffffffffffffffffffffffff160217905550808273ffffffffffffffffffffffffffffffffffffffff168473ffffffffffffffffffffffffffffffffffffffff167fddf252ad1be2c89b69c2b068fc378daa952ba7f163c4a11628f55a4df523b3ef60405160405180910390a4505050565b60006134366001600660008673ffffffffffffffffffffffffffffffffffffffff1673ffffffffffffffffffffffffffffffffffffffff168152602001908152602001600020805490506146d390919063ffffffff16565b9050600060076000848152602001908152602001600020549050818114613523576000600660008673ffffffffffffffffffffffffffffffffffffffff1673ffffffffffffffffffffffffffffffffffffffff16815260200190815260200160002083815481106134a357fe5b9060005260206000200154905080600660008773ffffffffffffffffffffffffffffffffffffffff1673ffffffffffffffffffffffffffffffffffffffff16815260200190815260200160002083815481106134fb57fe5b9060005260206000200181905550816007600083815260200190815260200160002081905550505b600660008573ffffffffffffffffffffffffffffffffffffffff1673ffffffffffffffffffffffffffffffffffffffff1681526020019081526020016000208054809190600190036135759190614ef3565b5050505050565b600660008373ffffffffffffffffffffffffffffffffffffffff1673ffffffffffffffffffffffffffffffffffffffff168152602001908152602001600020805490506007600083815260200190815260200160002081905550600660008373ffffffffffffffffffffffffffffffffffffffff1673ffffffffffffffffffffffffffffffffffffffff1681526020019081526020016000208190806001815401808255809150509060018203906000526020600020016000909192909190915055505050565b600073ffffffffffffffffffffffffffffffffffffffff166003600083815260200190815260200160002060009054906101000a900473ffffffffffffffffffffffffffffffffffffffff1673ffffffffffffffffffffffffffffffffffffffff1614613718576040517f08c379a00000000000000000000000000000000000000000000000000000000081526004018080602001828103825260178152602001807f546f6b656e20494420616c72656164792065786973747300000000000000000081525060200191505060405180910390fd5b6000151561373b8373ffffffffffffffffffffffffffffffffffffffff16613abd565b15151480156137775750600073ffffffffffffffffffffffffffffffffffffffff168273ffffffffffffffffffffffffffffffffffffffff1614155b6137e9576040517f08c379a00000000000000000000000000000000000000000000000000000000081526004018080602001828103825260198152602001807f56616c696420616464726573732069732072657175697265640000000000000081525060200191505060405180910390fd5b816002600083815260200190815260200160002060006101000a81548173ffffffffffffffffffffffffffffffffffffffff021916908373ffffffffffffffffffffffffffffffffffffffff160217905550613882600460008473ffffffffffffffffffffffffffffffffffffffff1673ffffffffffffffffffffffffffffffffffffffff1681526020019081526020016000206146bd565b808273ffffffffffffffffffffffffffffffffffffffff163373ffffffffffffffffffffffffffffffffffffffff167fddf252ad1be2c89b69c2b068fc378daa952ba7f163c4a11628f55a4df523b3ef60405160405180910390a45050565b6008805490506009600083815260200190815260200160002081905550600881908060018154018082558091505090600182039060005260206000200160009091929091909150555050565b60606000821415613975576040518060400160405280600181526020017f30000000000000000000000000000000000000000000000000000000000000008152509050613a74565b600082905060005b6000821461399f578080600101915050600a828161399757fe5b04915061397d565b6060816040519080825280601f01601f1916602001820160405280156139d45781602001600182028038833980820191505090505b50905060006001830390505b60008614613a6c57600a86816139f257fe5b066030017f01000000000000000000000000000000000000000000000000000000000000000282828060019003935081518110613a2b57fe5b60200101907effffffffffffffffffffffffffffffffffffffffffffffffffffffffffffff1916908160001a905350600a8681613a6457fe5b0495506139e0565b819450505050505b919050565b6060613ab583836040518060200160405280600081525060405180602001604052806000815250604051806020016040528060008152506146f3565b905092915050565b600080823b905060008111915050919050565b613ad8614e6a565b604051806040016040528060405180604001604052807f124f25e459cb0cc2af8637ba6fd5d00f052f9069e14b282f2778f30fb6c8bc8881526020017f23afd23e4c588f7e2b5cc378c173ff1f168d680123ef192564dc8ebc9e752d22815250815260200160405180604001604052807f0ca5f2ec0979d718c7ca4a73d0c51c6b46a1731ab12176e0e64770053df73de281526020017f175fd471bc0c7e781b5b0068e7b59300b030b92d9993d8d62c232838bba45381815250815250816000018190525060405180604001604052807f1209015799d52cbe1bf8615e3c9eda3a310b26daf4b949f553147d4e569dd71581526020017f02bcd5f4e3867685b9c2c64b758cf5bfef7fc3ed498f1c08760416acc01dcfd38152508160200181905250604051806040016040528060405180604001604052807f28632caebd23d1d729bd33051e6e256ee06e1892abd04069e89cfefe2cb06eda81526020017f1595650b4983b57389de943264d7835da00d8905532ea88c725d551bb0da96e9815250815260200160405180604001604052807f21731e3804223c31331181e67681d39171ba8c33986cf2f010056e2d2a77fa5b81526020017f0d4eb2fb065594ebfb7177d9c3a4905155987c47ec5e726edeed06e582bb3b3b8152508152508160400181905250604051806040016040528060405180604001604052807f2f8c13a08758c996b6cc1cf7222e43bedf21a5132a4a73e165c67dc71cbd3d9581526020017f16cb763e58daa37d5334be26cb2c687538f8cc3ef0e496b60f672c643381698f815250815260200160405180604001604052807f1d3059c69b8269c0ae8d69ab72a4e925063f0827cc5f3b17a9f7668b1b69306f81526020017f0973f54a3c12560ff05f7f9c2f10857c0fb68e931150e447d89789a80ad97b40815250815250816060018190525060405180604001604052807f18218deb364e84cc27ec952e0d5d86300307f663ce5d26be556f6e93c958953f81526020017f0dedc59da1aba00251592774c7fd153ea7b4fc08a379135a6a52f591069d63168152508160800181905250604051806040016040528060405180604001604052807f0b51e55eabcbab3fefa674af59fbc62b914579c0a2e52edc63da03bc1ebd0e7f81526020017f10e72dde3034d07d18be7c5d357cfa24c96ddcca6360892e77fe6aa07478d040815250815260200160405180604001604052807f128d7ee5a970c5e4350927411e9c5a97f066cfacb9c2c4cf2ba5fcc2f378481d81526020017f20d63654b96b208c2b819a301f8962bc57f464190761104dcf67c72360f299458152508152508160a00181905250604051806040016040528060405180604001604052807f0ce64300b221e264b50789afbb4ecde52fe7f4334e6aa7ba08e100e1f172e97381526020017f0fdeb333da2803e6581fe19c43dd5ff4e3435df4fb1fb9342768db42abd68ded815250815260200160405180604001604052807f21e3d058af3257c8b2cfc3fe1748d8b4eb1879106b7f41d62df985c4ee4887dc81526020017f0e4621035baba7d516fcea38167aaee5fd46f579f1a51032248ec651018bfad58152508152508160c001819052506003604051908082528060200260200182016040528015613fa657816020015b613f93614f1f565b815260200190600190039081613f8b5790505b508160e0018190525060405180604001604052807f13c966ebc58d6b834ef606b9a51a3e540d0177fa4439a5986f934ee2632c223e81526020017f106ac57d777338b6c71d36f2b25160037c0b6cbbb93abbf467d2ea6b5cc8a0d58152508160e0015160008151811061401557fe5b602002602001018190525060405180604001604052807f073508cc87513974b79386b222a1fcb37ee4882b38cd6d717616a8cd7c4f0b4481526020017f2499b923f6b17bbebddc353f926c58a2c29f5c93eff794b5c211eb66084779958152508160e0015160018151811061408657fe5b602002602001018190525060405180604001604052807f133e18907519e7420261602ef51f53e889cd71321f6ecc218c11c69ac3adb2f981526020017f0a6e14669d1a276c72e2a38db6c7d7a9320a9bfd1f2aebb6a647c466ecf49dad8152508160e001516002815181106140f757fe5b602002602001018190525090565b61410d614ed9565b614115614f39565b83600001518160006003811061412757fe5b60200201818152505083602001518160016003811061414257fe5b602002018181525050828160026003811061415957fe5b6020020181815250506000606083608084600060076107d05a03f19050806000811461418457614186565bfe5b508061419157600080fd5b505092915050565b6141a1614ed9565b6141a9614f5b565b8360000151816000600481106141bb57fe5b6020020181815250508360200151816001600481106141d657fe5b6020020181815250508260000151816002600481106141f157fe5b60200201818152505082602001518160036004811061420c57fe5b602002018181525050600060608360c084600060066107d05a03f19050806000811461423757614239565bfe5b508061424457600080fd5b505092915050565b614254614ed9565b60007f30644e72e131a029b85045b68181585d97816a916871ca8d3c208c16d87cfd47905060008360000151148015614291575060008360200151145b156142b55760405180604001604052806000815260200160008152509150506142e1565b604051806040016040528084600001518152602001828560200151816142d757fe5b0683038152509150505b919050565b6142ee614f7d565b604051806040016040528060405180604001604052807f198e9393920d483a7260bfb731fb5d25f1aa493335a9e71297e485b7aef312c281526020017f1800deef121f1e76426a00665e5c4479674322d4f75edadd46debd5cd992f6ed815250815260200160405180604001604052807f090689d0585ff075ec9e99ad690c3395bc4b313370b38ef355acdadcd122975b81526020017f12c85ea5db8c6deb4aab71808dcb408fe3d1e7690c43d37b4ce6cc0166fa7daa815250815250905090565b6000606060026040519080825280602002602001820160405280156143ef57816020015b6143dc614f1f565b8152602001906001900390816143d45790505b5090506060600260405190808252806020026020018201604052801561442f57816020015b61441c614fa3565b8152602001906001900390816144145790505b509050868260008151811061444057fe5b6020026020010181905250848260018151811061445957fe5b6020026020010181905250858160008151811061447257fe5b6020026020010181905250838160018151811061448b57fe5b60200260200101819052506144a08282614af0565b92505050949350505050565b6000606060036040519080825280602002602001820160405280156144eb57816020015b6144d8614f1f565b8152602001906001900390816144d05790505b5090506060600360405190808252806020026020018201604052801561452b57816020015b614518614fa3565b8152602001906001900390816145105790505b509050888260008151811061453c57fe5b6020026020010181905250868260018151811061455557fe5b6020026020010181905250848260028151811061456e57fe5b6020026020010181905250878160008151811061458757fe5b602002602001018190525085816001815181106145a057fe5b602002602001018190525083816002815181106145b957fe5b60200260200101819052506145ce8282614af0565b925050509695505050505050565b600073ffffffffffffffffffffffffffffffffffffffff166003600083815260200190815260200160002060009054906101000a900473ffffffffffffffffffffffffffffffffffffffff1673ffffffffffffffffffffffffffffffffffffffff16146146975760006003600083815260200190815260200160002060006101000a81548173ffffffffffffffffffffffffffffffffffffffff021916908373ffffffffffffffffffffffffffffffffffffffff1602179055505b50565b6146b2600182600001546146d390919063ffffffff16565b816000018190555050565b6001816000016000828254019250508190555050565b6000828211156146e257600080fd5b600082840390508091505092915050565b6060808690506060869050606086905060608690506060869050606081518351855187518951010101016040519080825280601f01601f19166020018201604052801561474f5781602001600182028038833980820191505090505b509050606081905060008090506000809050600090505b88518110156148135788818151811061477b57fe5b60200101517f010000000000000000000000000000000000000000000000000000000000000090047f0100000000000000000000000000000000000000000000000000000000000000028383806001019450815181106147d757fe5b60200101907effffffffffffffffffffffffffffffffffffffffffffffffffffffffffffff1916908160001a9053508080600101915050614766565b600090505b87518110156148c55787818151811061482d57fe5b60200101517f010000000000000000000000000000000000000000000000000000000000000090047f01000000000000000000000000000000000000000000000000000000000000000283838060010194508151811061488957fe5b60200101907effffffffffffffffffffffffffffffffffffffffffffffffffffffffffffff1916908160001a9053508080600101915050614818565b600090505b8651811015614977578681815181106148df57fe5b60200101517f010000000000000000000000000000000000000000000000000000000000000090047f01000000000000000000000000000000000000000000000000000000000000000283838060010194508151811061493b57fe5b60200101907effffffffffffffffffffffffffffffffffffffffffffffffffffffffffffff1916908160001a90535080806001019150506148ca565b600090505b8551811015614a295785818151811061499157fe5b60200101517f010000000000000000000000000000000000000000000000000000000000000090047f0100000000000000000000000000000000000000000000000000000000000000028383806001019450815181106149ed57fe5b60200101907effffffffffffffffffffffffffffffffffffffffffffffffffffffffffffff1916908160001a905350808060010191505061497c565b600090505b8451811015614adb57848181518110614a4357fe5b60200101517f010000000000000000000000000000000000000000000000000000000000000090047f010000000000000000000000000000000000000000000000000000000000000002838380600101945081518110614a9f57fe5b60200101907effffffffffffffffffffffffffffffffffffffffffffffffffffffffffffff1916908160001a9053508080600101915050614a2e565b82995050505050505050505095945050505050565b60008151835114614b0057600080fd5b6000835190506000600682029050606081604051908082528060200260200182016040528015614b3f5781602001602082028038833980820191505090505b50905060008090505b83811015614ce557868181518110614b5c57fe5b602002602001015160000151826000600684020181518110614b7a57fe5b602002602001018181525050868181518110614b9257fe5b602002602001015160200151826001600684020181518110614bb057fe5b602002602001018181525050858181518110614bc857fe5b602002602001015160000151600060028110614be057fe5b6020020151826002600684020181518110614bf757fe5b602002602001018181525050858181518110614c0f57fe5b602002602001015160000151600160028110614c2757fe5b6020020151826003600684020181518110614c3e57fe5b602002602001018181525050858181518110614c5657fe5b602002602001015160200151600060028110614c6e57fe5b6020020151826004600684020181518110614c8557fe5b602002602001018181525050858181518110614c9d57fe5b602002602001015160200151600160028110614cb557fe5b6020020151826005600684020181518110614ccc57fe5b6020026020010181815250508080600101915050614b48565b50614cee614fc9565b60006020826020860260208601600060086107d05a03f190508060008114614d1557614d17565bfe5b5080614d2257600080fd5b600082600060018110614d3157fe5b602002015114159550505050505092915050565b604051806040016040528060008152602001600073ffffffffffffffffffffffffffffffffffffffff1681525090565b604051806102400160405280614d89614f1f565b8152602001614d96614f1f565b8152602001614da3614fa3565b8152602001614db0614f1f565b8152602001614dbd614f1f565b8152602001614dca614f1f565b8152602001614dd7614f1f565b8152602001614de4614f1f565b81525090565b828054600181600116156101000203166002900490600052602060002090601f016020900481019282601f10614e2b57805160ff1916838001178555614e59565b82800160010185558215614e59579182015b82811115614e58578251825591602001919060010190614e3d565b5b509050614e669190614feb565b5090565b604051806103200160405280614e7e614fa3565b8152602001614e8b614f1f565b8152602001614e98614fa3565b8152602001614ea5614fa3565b8152602001614eb2614f1f565b8152602001614ebf614fa3565b8152602001614ecc614fa3565b8152602001606081525090565b604051806040016040528060008152602001600081525090565b815481835581811115614f1a57818360005260206000209182019101614f199190614feb565b5b505050565b604051806040016040528060008152602001600081525090565b6040518060600160405280600390602082028038833980820191505090505090565b6040518060800160405280600490602082028038833980820191505090505090565b6040518060800160405280614f90615010565b8152602001614f9d615010565b81525090565b6040518060800160405280614fb6615010565b8152602001614fc3615010565b81525090565b6040518060200160405280600190602082028038833980820191505090505090565b61500d91905b80821115615009576000816000905550600101614ff1565b5090565b90565b604051806040016040528060029060208202803883398082019150509050509056fe46756e6374696f6e206d757374206f6e6c792063616c6c656420627920636f6e7472616374206f776e65722e4163636f756e74206d7573742062656c6f6e6720746f20636f6e7472616374206f776e657253656e646572206d757374206265206f776e6572206f662074686520636f6e7472616374536f6c7574696f6e207468617420616c7265616479206578697374732063616e6e6f742062652061646465642e53656e64696e67206163636f756e74206d757374206e6f7420626520696e76616c69645472616e73616374696f6e207375636365737366756c6c792076657269666965642e4d6574686f642063616e206f6e6c792062652063616c6c65642062792074686520636f6e7472616374206f776e65722e536f6c7574696f6e20646f6573206e6f74206578697374206f7220736f6c7574696f6e20686173206265656e2075736564a165627a7a72305820b04e21c3b1b71add991a7e7e2e537f16cdb86409ba72eae3bd6660d9935ae95e002968747470733a2f2f73332d75732d776573742d322e616d617a6f6e6177732e636f6d2f756461636974792d626c6f636b636861696e2f63617073746f6e652f",
  "source": "pragma solidity >=0.4.21 <0.6.0;\n\nimport './ERC721Mintable.sol';\nimport './verifier.sol';\n\n// TODO define another contract named SolnSquareVerifier that inherits from your ERC721Mintable class\ncontract SolnSquareVerifier is ERC721MintableComplete, Verifier {\n    \n    uint256 currentIndex;\n    Verifier verifierInstance;\n\n    constructor(address verifierAddress, string memory name, string memory symbol) ERC721MintableComplete(name, symbol) public {         \n        verifierInstance = Verifier(verifierAddress);\n        currentIndex = 0;     \n    }\n\n    // TODO define a solutions struct that can hold an index & an address\n    struct Solution {\n        uint256 index;\n        address solAddress;\n    }\n\n    //enumerator to track state of solution\n    enum SolutionState { Unverfied, Verified, Used }\n\n    // TODO define a mapping to store unique solutions submitted\n    mapping(bytes32 => SolutionState) private acceptedSolutions;\n\n    // TODO Create an event to emit when a solution is added\n    event SolutionAdded(address indexed solAddress, uint256 indexed index);\n\n    modifier verifiedSolutionNotUsed(uint a, uint b) {\n        bytes32 hasedResult = hashSolution(a,b);\n        require(acceptedSolutions[hasedResult] == SolutionState.Verified, \"Solution does not exist or solution has been used\");\n        _;\n    }\n\n    modifier solutionDoesNotExists(uint a, uint b) {\n        bytes32 hasedResult = hashSolution(a,b);\n        require(acceptedSolutions[hasedResult] != SolutionState.Verified, \"Solution that already exists cannot be added.\");\n        _;\n    }\n\n    // TODO Create a function to add the solutions to the array and emit the event\n    function addSolution(\n            uint[2] memory a,\n            uint[2] memory a_p,\n            uint[2][2] memory b,\n            uint[2] memory b_p,\n            uint[2] memory c,\n            uint[2] memory c_p,\n            uint[2] memory h,\n            uint[2] memory k,\n            uint[2] memory input\n        ) public solutionDoesNotExists(input[0],input[1]) returns (bool r)\n        {\n            r = verifierInstance.verifyTx(a,a_p,b,b_p,c,c_p,h,k,input);\n            if (r) {\n                Solution memory newSolution = Solution(currentIndex,msg.sender);\n                emit SolutionAdded(msg.sender,currentIndex);                \n                bytes32 hashResult = hashSolution(input[0],input[1]);\n                acceptedSolutions[hashResult] = SolutionState.Verified;\n            }\n        }\n    \n\n    // TODO Create a function to mint new NFT only after the solution has been verified\n    //  - make sure the solution is unique (has not been used before)\n    //  - make sure you handle metadata as well as tokenSupply\n    //function mintNewToken (address to, uint256 tokenId) public returns(bool success) {\n\n    //TODO:need to satisfy new solution\n    function mintNewToken (uint[2] memory input, address to) verifiedSolutionNotUsed(input[0],input[1]) public returns (bool r) {\n        r = mint(to,currentIndex);\n        bytes32 hashResult = hashSolution(input[0],input[1]);\n        acceptedSolutions[hashResult] = SolutionState.Used;\n        currentIndex.add(1);\n        return r;\n    }\n\n    function hashSolution(uint a, uint b) private returns(bytes32 hashedSolution) {\n        hashedSolution = keccak256(abi.encodePacked(a+b, a*b));\n    }   \n}\n\n\n\n\n\n\n\n\n\n\n\n\n\n\n\n\n\n\n\n\n\n",
  "sourcePath": "/Users/joeyberger/Desktop/Udacity/Blockchain Nanodegree/GitHub Repos/Real-Estate-Token/eth-contracts/contracts/SolnSquareVerifier.sol",
  "compiler": {
    "name": "solc",
    "version": "0.5.7+commit.6da8b019.Emscripten.clang"
  },
  "schemaVersion": "3.0.2",
  "updatedAt": "2019-04-20T04:17:32.110Z",
  "devdoc": {
    "methods": {
      "isApprovedForAll(address,address)": {
        "details": "Tells whether an operator is approved by a given owner",
        "params": {
          "operator": "operator address which you want to query the approval of",
          "owner": "owner address which you want to query the approval of"
        },
        "return": "bool whether the given operator is approved by the given owner"
      },
      "setApprovalForAll(address,bool)": {
        "details": "Sets or unsets the approval of a given operator An operator is allowed to transfer all tokens of the sender on their behalf",
        "params": {
          "approved": "representing the status of the approval to be set",
          "to": "operator address to set the approval"
        }
      },
      "supportsInterface(bytes4)": {
        "details": "implement supportsInterface(bytes4) using a lookup table"
      },
      "tokenByIndex(uint256)": {
        "details": "Gets the token ID at a given index of all the tokens in this contract Reverts if the index is greater or equal to the total number of tokens",
        "params": {
          "index": "uint256 representing the index to be accessed of the tokens list"
        },
        "return": "uint256 token ID at the given index of the tokens list"
      },
      "tokenOfOwnerByIndex(address,uint256)": {
        "details": "Gets the token ID at a given index of the tokens list of the requested owner",
        "params": {
          "index": "uint256 representing the index to be accessed of the requested tokens list",
          "owner": "address owning the tokens list to be accessed"
        },
        "return": "uint256 token ID at the given index of the tokens list owned by the requested address"
      },
      "totalSupply()": {
        "details": "Gets the total amount of tokens stored by the contract",
        "return": "uint256 representing the total amount of tokens"
      }
    }
  },
  "userdoc": {
    "methods": {}
  }
}