{
  "contractName": "SolnSquareVerifier",
  "abi": [
    {
      "constant": true,
      "inputs": [
        {
          "name": "interfaceId",
          "type": "bytes4"
        }
      ],
      "name": "supportsInterface",
      "outputs": [
        {
          "name": "",
          "type": "bool"
        }
      ],
      "payable": false,
      "stateMutability": "view",
      "type": "function",
      "signature": "0x01ffc9a7"
    },
    {
      "constant": false,
      "inputs": [],
      "name": "testFunc",
      "outputs": [
        {
          "name": "",
          "type": "bool"
        }
      ],
      "payable": false,
      "stateMutability": "nonpayable",
      "type": "function",
      "signature": "0x037a417c"
    },
    {
      "constant": true,
      "inputs": [
        {
          "name": "tokenId",
          "type": "uint256"
        }
      ],
      "name": "getApproved",
      "outputs": [
        {
          "name": "",
          "type": "address"
        }
      ],
      "payable": false,
      "stateMutability": "view",
      "type": "function",
      "signature": "0x081812fc"
    },
    {
      "constant": false,
      "inputs": [
        {
          "name": "to",
          "type": "address"
        },
        {
          "name": "tokenId",
          "type": "uint256"
        }
      ],
      "name": "approve",
      "outputs": [],
      "payable": false,
      "stateMutability": "nonpayable",
      "type": "function",
      "signature": "0x095ea7b3"
    },
    {
      "constant": true,
      "inputs": [],
      "name": "totalSupply",
      "outputs": [
        {
          "name": "",
          "type": "uint256"
        }
      ],
      "payable": false,
      "stateMutability": "view",
      "type": "function",
      "signature": "0x18160ddd"
    },
    {
      "constant": false,
      "inputs": [
        {
          "name": "from",
          "type": "address"
        },
        {
          "name": "to",
          "type": "address"
        },
        {
          "name": "tokenId",
          "type": "uint256"
        }
      ],
      "name": "transferFrom",
      "outputs": [],
      "payable": false,
      "stateMutability": "nonpayable",
      "type": "function",
      "signature": "0x23b872dd"
    },
    {
      "constant": false,
      "inputs": [
        {
          "name": "_myid",
          "type": "bytes32"
        },
        {
          "name": "_result",
          "type": "string"
        }
      ],
      "name": "__callback",
      "outputs": [],
      "payable": false,
      "stateMutability": "nonpayable",
      "type": "function",
      "signature": "0x27dc297e"
    },
    {
      "constant": true,
      "inputs": [
        {
          "name": "owner",
          "type": "address"
        },
        {
          "name": "index",
          "type": "uint256"
        }
      ],
      "name": "tokenOfOwnerByIndex",
      "outputs": [
        {
          "name": "",
          "type": "uint256"
        }
      ],
      "payable": false,
      "stateMutability": "view",
      "type": "function",
      "signature": "0x2f745c59"
    },
    {
      "constant": false,
      "inputs": [
        {
          "name": "_myid",
          "type": "bytes32"
        },
        {
          "name": "_result",
          "type": "string"
        },
        {
          "name": "_proof",
          "type": "bytes"
        }
      ],
      "name": "__callback",
      "outputs": [],
      "payable": false,
      "stateMutability": "nonpayable",
      "type": "function",
      "signature": "0x38bbfa50"
    },
    {
      "constant": false,
      "inputs": [
        {
          "name": "to",
          "type": "address"
        },
        {
          "name": "tokenId",
          "type": "uint256"
        }
      ],
      "name": "mint",
      "outputs": [
        {
          "name": "success",
          "type": "bool"
        }
      ],
      "payable": false,
      "stateMutability": "nonpayable",
      "type": "function",
      "signature": "0x40c10f19"
    },
    {
      "constant": false,
      "inputs": [
        {
          "name": "from",
          "type": "address"
        },
        {
          "name": "to",
          "type": "address"
        },
        {
          "name": "tokenId",
          "type": "uint256"
        }
      ],
      "name": "safeTransferFrom",
      "outputs": [],
      "payable": false,
      "stateMutability": "nonpayable",
      "type": "function",
      "signature": "0x42842e0e"
    },
    {
      "constant": true,
      "inputs": [
        {
          "name": "index",
          "type": "uint256"
        }
      ],
      "name": "tokenByIndex",
      "outputs": [
        {
          "name": "",
          "type": "uint256"
        }
      ],
      "payable": false,
      "stateMutability": "view",
      "type": "function",
      "signature": "0x4f6ccce7"
    },
    {
      "constant": true,
      "inputs": [
        {
          "name": "tokenId",
          "type": "uint256"
        }
      ],
      "name": "ownerOf",
      "outputs": [
        {
          "name": "",
          "type": "address"
        }
      ],
      "payable": false,
      "stateMutability": "view",
      "type": "function",
      "signature": "0x6352211e"
    },
    {
      "constant": false,
      "inputs": [],
      "name": "returnContractOwner",
      "outputs": [
        {
          "name": "",
          "type": "address"
        }
      ],
      "payable": false,
      "stateMutability": "nonpayable",
      "type": "function",
      "signature": "0x7035fbff"
    },
    {
      "constant": true,
      "inputs": [
        {
          "name": "owner",
          "type": "address"
        }
      ],
      "name": "balanceOf",
      "outputs": [
        {
          "name": "",
          "type": "uint256"
        }
      ],
      "payable": false,
      "stateMutability": "view",
      "type": "function",
      "signature": "0x70a08231"
    },
    {
      "constant": false,
      "inputs": [],
      "name": "getOwner",
      "outputs": [
        {
          "name": "",
          "type": "address"
        }
      ],
      "payable": false,
      "stateMutability": "nonpayable",
      "type": "function",
      "signature": "0x893d20e8"
    },
    {
      "constant": false,
      "inputs": [
        {
          "name": "to",
          "type": "address"
        },
        {
          "name": "approved",
          "type": "bool"
        }
      ],
      "name": "setApprovalForAll",
      "outputs": [],
      "payable": false,
      "stateMutability": "nonpayable",
      "type": "function",
      "signature": "0xa22cb465"
    },
    {
      "constant": false,
      "inputs": [
        {
          "name": "from",
          "type": "address"
        },
        {
          "name": "to",
          "type": "address"
        },
        {
          "name": "tokenId",
          "type": "uint256"
        },
        {
          "name": "_data",
          "type": "bytes"
        }
      ],
      "name": "safeTransferFrom",
      "outputs": [],
      "payable": false,
      "stateMutability": "nonpayable",
      "type": "function",
      "signature": "0xb88d4fde"
    },
    {
      "constant": true,
      "inputs": [
        {
          "name": "tokenId",
          "type": "uint256"
        }
      ],
      "name": "tokenURI",
      "outputs": [
        {
          "name": "",
          "type": "string"
        }
      ],
      "payable": false,
      "stateMutability": "view",
      "type": "function",
      "signature": "0xc87b56dd"
    },
    {
      "constant": false,
      "inputs": [
        {
          "name": "ipaused",
          "type": "bool"
        }
      ],
      "name": "setPauseState",
      "outputs": [],
      "payable": false,
      "stateMutability": "nonpayable",
      "type": "function",
      "signature": "0xcdb88ad1"
    },
    {
      "constant": true,
      "inputs": [],
      "name": "_baseTokenURI",
      "outputs": [
        {
          "name": "",
          "type": "string"
        }
      ],
      "payable": false,
      "stateMutability": "view",
      "type": "function",
      "signature": "0xcfc86f7b"
    },
    {
      "constant": true,
      "inputs": [
        {
          "name": "owner",
          "type": "address"
        },
        {
          "name": "operator",
          "type": "address"
        }
      ],
      "name": "isApprovedForAll",
      "outputs": [
        {
          "name": "",
          "type": "bool"
        }
      ],
      "payable": false,
      "stateMutability": "view",
      "type": "function",
      "signature": "0xe985e9c5"
    },
    {
      "constant": false,
      "inputs": [
        {
          "name": "newOwner",
          "type": "address"
        }
      ],
      "name": "transferOwnership",
      "outputs": [],
      "payable": false,
      "stateMutability": "nonpayable",
      "type": "function",
      "signature": "0xf2fde38b"
    },
    {
      "constant": true,
      "inputs": [],
      "name": "getERC721Data",
      "outputs": [
        {
          "name": "name",
          "type": "string"
        },
        {
          "name": "symbol",
          "type": "string"
        },
        {
          "name": "baseTokenURI",
          "type": "string"
        }
      ],
      "payable": false,
      "stateMutability": "view",
      "type": "function",
      "signature": "0xf8bb0f13"
    },
    {
      "constant": false,
      "inputs": [
        {
          "name": "a",
          "type": "uint256[2]"
        },
        {
          "name": "a_p",
          "type": "uint256[2]"
        },
        {
          "name": "b",
          "type": "uint256[2][2]"
        },
        {
          "name": "b_p",
          "type": "uint256[2]"
        },
        {
          "name": "c",
          "type": "uint256[2]"
        },
        {
          "name": "c_p",
          "type": "uint256[2]"
        },
        {
          "name": "h",
          "type": "uint256[2]"
        },
        {
          "name": "k",
          "type": "uint256[2]"
        },
        {
          "name": "input",
          "type": "uint256[2]"
        }
      ],
      "name": "verifyTx",
      "outputs": [
        {
          "name": "r",
          "type": "bool"
        }
      ],
      "payable": false,
      "stateMutability": "nonpayable",
      "type": "function",
      "signature": "0xfe01ff62"
    },
    {
      "inputs": [
        {
          "name": "name",
          "type": "string"
        },
        {
          "name": "symbol",
          "type": "string"
        }
      ],
      "payable": false,
      "stateMutability": "nonpayable",
      "type": "constructor",
      "signature": "constructor"
    },
    {
      "anonymous": false,
      "inputs": [
        {
          "indexed": true,
          "name": "solAddress",
          "type": "address"
        },
        {
          "indexed": true,
          "name": "index",
          "type": "uint256"
        }
      ],
      "name": "SolutionAdded",
      "type": "event",
      "signature": "0x3a01cc868bdb36c1d9b8a262a8ad25064b23ac175b3f8e4453f1daf8ff6bac0d"
    },
    {
      "anonymous": false,
      "inputs": [
        {
          "indexed": false,
          "name": "s",
          "type": "string"
        }
      ],
      "name": "Verified",
      "type": "event",
      "signature": "0x3f3cfdb26fb5f9f1786ab4f1a1f9cd4c0b5e726cbdfc26e495261731aad44e39"
    },
    {
      "anonymous": false,
      "inputs": [
        {
          "indexed": true,
          "name": "from",
          "type": "address"
        },
        {
          "indexed": true,
          "name": "to",
          "type": "address"
        },
        {
          "indexed": true,
          "name": "tokenId",
          "type": "uint256"
        }
      ],
      "name": "Transfer",
      "type": "event",
      "signature": "0xddf252ad1be2c89b69c2b068fc378daa952ba7f163c4a11628f55a4df523b3ef"
    },
    {
      "anonymous": false,
      "inputs": [
        {
          "indexed": true,
          "name": "owner",
          "type": "address"
        },
        {
          "indexed": true,
          "name": "approved",
          "type": "address"
        },
        {
          "indexed": true,
          "name": "tokenId",
          "type": "uint256"
        }
      ],
      "name": "Approval",
      "type": "event",
      "signature": "0x8c5be1e5ebec7d5bd14f71427d1e84f3dd0314c0f7b2291e5b200ac8c7c3b925"
    },
    {
      "anonymous": false,
      "inputs": [
        {
          "indexed": true,
          "name": "owner",
          "type": "address"
        },
        {
          "indexed": true,
          "name": "operator",
          "type": "address"
        },
        {
          "indexed": false,
          "name": "approved",
          "type": "bool"
        }
      ],
      "name": "ApprovalForAll",
      "type": "event",
      "signature": "0x17307eab39ab6107e8899845ad3d59bd9653f200f220920489ca2b5937696c31"
    },
    {
      "anonymous": false,
      "inputs": [
        {
          "indexed": false,
          "name": "callingAddress",
          "type": "address"
        }
      ],
      "name": "Paused",
      "type": "event",
      "signature": "0x62e78cea01bee320cd4e420270b5ea74000d11b0c9f74754ebdbfc544b05a258"
    },
    {
      "anonymous": false,
      "inputs": [
        {
          "indexed": false,
          "name": "callingAddress",
          "type": "address"
        }
      ],
      "name": "Unpaused",
      "type": "event",
      "signature": "0x5db9ee0a495bf2e6ff9c91a7834c1ba4fdd244a5e8aa4e537bd38aeae4b073aa"
    },
    {
      "anonymous": false,
      "inputs": [
        {
          "indexed": false,
          "name": "newOwner",
          "type": "address"
        }
      ],
      "name": "OwnershipTransfered",
      "type": "event",
      "signature": "0x9736aeb40a8f30a5c076a9897428fdf7ec0e909c96dce63533664c9b5c835da6"
    },
    {
      "constant": false,
      "inputs": [
        {
          "name": "a",
          "type": "uint256[2]"
        },
        {
          "name": "a_p",
          "type": "uint256[2]"
        },
        {
          "name": "b",
          "type": "uint256[2][2]"
        },
        {
          "name": "b_p",
          "type": "uint256[2]"
        },
        {
          "name": "c",
          "type": "uint256[2]"
        },
        {
          "name": "c_p",
          "type": "uint256[2]"
        },
        {
          "name": "h",
          "type": "uint256[2]"
        },
        {
          "name": "k",
          "type": "uint256[2]"
        },
        {
          "name": "input",
          "type": "uint256[2]"
        }
      ],
      "name": "addSolution",
      "outputs": [
        {
          "name": "r",
          "type": "bool"
        }
      ],
      "payable": false,
      "stateMutability": "nonpayable",
      "type": "function",
      "signature": "0x5a50ec51"
    },
    {
      "constant": false,
      "inputs": [
        {
          "name": "input",
          "type": "uint256[2]"
        },
        {
          "name": "to",
          "type": "address"
        }
      ],
      "name": "mintNewToken",
      "outputs": [
        {
          "name": "r",
          "type": "bool"
        }
      ],
      "payable": false,
      "stateMutability": "nonpayable",
      "type": "function",
      "signature": "0x2d21947e"
    }
  ],
  "bytecode": "0x60806040523480156200001157600080fd5b506040516200563e3803806200563e833981018060405260408110156200003757600080fd5b8101908080516401000000008111156200005057600080fd5b828101905060208101848111156200006757600080fd5b81518560018202830111640100000000821117156200008557600080fd5b50509291906020018051640100000000811115620000a257600080fd5b82810190506020810184811115620000b957600080fd5b8151856001820283011164010000000082111715620000d757600080fd5b50509291905050508181818160138054600181600116156101000203166002900480601f0160208091040260200160405190810160405280929190818152602001828054600181600116156101000203166002900480156200017d5780601f1062000151576101008083540402835291602001916200017d565b820191906000526020600020905b8154815290600101906020018083116200015f57829003601f168201915b5050505050336000806101000a81548173ffffffffffffffffffffffffffffffffffffffff021916908373ffffffffffffffffffffffffffffffffffffffff1602179055507f9736aeb40a8f30a5c076a9897428fdf7ec0e909c96dce63533664c9b5c835da66000809054906101000a900473ffffffffffffffffffffffffffffffffffffffff16604051808273ffffffffffffffffffffffffffffffffffffffff1673ffffffffffffffffffffffffffffffffffffffff16815260200191505060405180910390a160008060146101000a81548160ff0219169083151502179055506200029d6301ffc9a77c0100000000000000000000000000000000000000000000000000000000026200041c640100000000026401000000009004565b620002da6380ac58cd7c0100000000000000000000000000000000000000000000000000000000026200041c640100000000026401000000009004565b6200031763780e9d637c0100000000000000000000000000000000000000000000000000000000026200041c640100000000026401000000009004565b82600f90805190602001906200032f929190620004d8565b50816010908051906020019062000348929190620004d8565b50806011908051906020019062000361929190620004d8565b5050505033601460006101000a81548173ffffffffffffffffffffffffffffffffffffffff021916908373ffffffffffffffffffffffffffffffffffffffff1602179055506040518060600160405280603f8152602001620055ff603f913960139080519060200190620003d7929190620004d8565b506040518060600160405280603f8152602001620055ff603f91396011908051906020019062000409929190620004d8565b5050506000601581905550505062000587565b63ffffffff7c010000000000000000000000000000000000000000000000000000000002817bffffffffffffffffffffffffffffffffffffffffffffffffffffffff191614156200046c57600080fd5b6001806000837bffffffffffffffffffffffffffffffffffffffffffffffffffffffff19167bffffffffffffffffffffffffffffffffffffffffffffffffffffffff1916815260200190815260200160002060006101000a81548160ff02191690831515021790555050565b828054600181600116156101000203166002900490600052602060002090601f016020900481019282601f106200051b57805160ff19168380011785556200054c565b828001600101855582156200054c579182015b828111156200054b5782518255916020019190600101906200052e565b5b5090506200055b91906200055f565b5090565b6200058491905b808211156200058057600081600090555060010162000566565b5090565b90565b61506880620005976000396000f3fe608060405234801561001057600080fd5b50600436106101c6576000357c0100000000000000000000000000000000000000000000000000000000900480635a50ec5111610116578063c87b56dd116100b4578063e985e9c51161008e578063e985e9c514610e97578063f2fde38b14610f13578063f8bb0f1314610f57578063fe01ff62146110b2576101c6565b8063c87b56dd14610d3d578063cdb88ad114610de4578063cfc86f7b14610e14576101c6565b806370a08231116100f057806370a0823114610b46578063893d20e814610b9e578063a22cb46514610be8578063b88d4fde14610c38576101c6565b80635a50ec51146107d05780636352211e14610a8e5780637035fbff14610afc576101c6565b806327dc297e1161018357806338bbfa501161015d57806338bbfa501461055e57806340c10f19146106ba57806342842e0e146107205780634f6ccce71461078e576101c6565b806327dc297e1461039a5780632d21947e1461045f5780632f745c59146104fc576101c6565b806301ffc9a7146101cb578063037a417c14610230578063081812fc14610252578063095ea7b3146102c057806318160ddd1461030e57806323b872dd1461032c575b600080fd5b610216600480360360208110156101e157600080fd5b8101908080357bffffffffffffffffffffffffffffffffffffffffffffffffffffffff19169060200190929190505050611370565b604051808215151515815260200191505060405180910390f35b6102386113d8565b604051808215151515815260200191505060405180910390f35b61027e6004803603602081101561026857600080fd5b81019080803590602001909291905050506113e1565b604051808273ffffffffffffffffffffffffffffffffffffffff1673ffffffffffffffffffffffffffffffffffffffff16815260200191505060405180910390f35b61030c600480360360408110156102d657600080fd5b81019080803573ffffffffffffffffffffffffffffffffffffffff16906020019092919080359060200190929190505050611430565b005b610316611631565b6040518082815260200191505060405180910390f35b6103986004803603606081101561034257600080fd5b81019080803573ffffffffffffffffffffffffffffffffffffffff169060200190929190803573ffffffffffffffffffffffffffffffffffffffff1690602001909291908035906020019092919050505061163e565b005b61045d600480360360408110156103b057600080fd5b8101908080359060200190929190803590602001906401000000008111156103d757600080fd5b8201836020820111156103e957600080fd5b8035906020019184600183028401116401000000008311171561040b57600080fd5b91908080601f016020809104026020016040519081016040528093929190818152602001838380828437600081840152601f19601f820116905080830192505050505050509192919290505050611661565b005b6104e26004803603606081101561047557600080fd5b8101908080604001906002806020026040519081016040528092919082600260200280828437600081840152601f19601f8201169050808301925050505050509192919290803573ffffffffffffffffffffffffffffffffffffffff1690602001909291905050506116a4565b604051808215151515815260200191505060405180910390f35b6105486004803603604081101561051257600080fd5b81019080803573ffffffffffffffffffffffffffffffffffffffff169060200190929190803590602001909291905050506117ff565b6040518082815260200191505060405180910390f35b6106b86004803603606081101561057457600080fd5b81019080803590602001909291908035906020019064010000000081111561059b57600080fd5b8201836020820111156105ad57600080fd5b803590602001918460018302840111640100000000831117156105cf57600080fd5b91908080601f016020809104026020016040519081016040528093929190818152602001838380828437600081840152601f19601f8201169050808301925050505050505091929192908035906020019064010000000081111561063257600080fd5b82018360208201111561064457600080fd5b8035906020019184600183028401116401000000008311171561066657600080fd5b91908080601f016020809104026020016040519081016040528093929190818152602001838380828437600081840152601f19601f820116905080830192505050505050509192919290505050611872565b005b610706600480360360408110156106d057600080fd5b81019080803573ffffffffffffffffffffffffffffffffffffffff16906020019092919080359060200190929190505050611877565b604051808215151515815260200191505060405180910390f35b61078c6004803603606081101561073657600080fd5b81019080803573ffffffffffffffffffffffffffffffffffffffff169060200190929190803573ffffffffffffffffffffffffffffffffffffffff1690602001909291908035906020019092919050505061193f565b005b6107ba600480360360208110156107a457600080fd5b810190808035906020019092919050505061195f565b6040518082815260200191505060405180910390f35b610a7460048036036102808110156107e757600080fd5b8101908080604001906002806020026040519081016040528092919082600260200280828437600081840152601f19601f820116905080830192505050505050919291929080604001906002806020026040519081016040528092919082600260200280828437600081840152601f19601f82011690508083019250505050505091929192908060800190600280602002604051908101604052809291906000905b828210156108dd578382604002016002806020026040519081016040528092919082600260200280828437600081840152601f19601f82011690508083019250505050505081526020019060010190610889565b50505050919291929080604001906002806020026040519081016040528092919082600260200280828437600081840152601f19601f820116905080830192505050505050919291929080604001906002806020026040519081016040528092919082600260200280828437600081840152601f19601f820116905080830192505050505050919291929080604001906002806020026040519081016040528092919082600260200280828437600081840152601f19601f820116905080830192505050505050919291929080604001906002806020026040519081016040528092919082600260200280828437600081840152601f19601f820116905080830192505050505050919291929080604001906002806020026040519081016040528092919082600260200280828437600081840152601f19601f820116905080830192505050505050919291929080604001906002806020026040519081016040528092919082600260200280828437600081840152601f19601f8201169050808301925050505050509192919290505050611993565b604051808215151515815260200191505060405180910390f35b610aba60048036036020811015610aa457600080fd5b8101908080359060200190929190505050611b65565b604051808273ffffffffffffffffffffffffffffffffffffffff1673ffffffffffffffffffffffffffffffffffffffff16815260200191505060405180910390f35b610b04611be1565b604051808273ffffffffffffffffffffffffffffffffffffffff1673ffffffffffffffffffffffffffffffffffffffff16815260200191505060405180910390f35b610b8860048036036020811015610b5c57600080fd5b81019080803573ffffffffffffffffffffffffffffffffffffffff169060200190929190505050611c0b565b6040518082815260200191505060405180910390f35b610ba6611c94565b604051808273ffffffffffffffffffffffffffffffffffffffff1673ffffffffffffffffffffffffffffffffffffffff16815260200191505060405180910390f35b610c3660048036036040811015610bfe57600080fd5b81019080803573ffffffffffffffffffffffffffffffffffffffff169060200190929190803515159060200190929190505050611cbd565b005b610d3b60048036036080811015610c4e57600080fd5b81019080803573ffffffffffffffffffffffffffffffffffffffff169060200190929190803573ffffffffffffffffffffffffffffffffffffffff1690602001909291908035906020019092919080359060200190640100000000811115610cb557600080fd5b820183602082011115610cc757600080fd5b80359060200191846001830284011164010000000083111715610ce957600080fd5b91908080601f016020809104026020016040519081016040528093929190818152602001838380828437600081840152601f19601f820116905080830192505050505050509192919290505050611df7565b005b610d6960048036036020811015610d5357600080fd5b8101908080359060200190929190505050611e1d565b6040518080602001828103825283818151815260200191508051906020019080838360005b83811015610da9578082015181840152602081019050610d8e565b50505050905090810190601f168015610dd65780820380516001836020036101000a031916815260200191505b509250505060405180910390f35b610e1260048036036020811015610dfa57600080fd5b81019080803515159060200190929190505050611ee4565b005b610e1c612078565b6040518080602001828103825283818151815260200191508051906020019080838360005b83811015610e5c578082015181840152602081019050610e41565b50505050905090810190601f168015610e895780820380516001836020036101000a031916815260200191505b509250505060405180910390f35b610ef960048036036040811015610ead57600080fd5b81019080803573ffffffffffffffffffffffffffffffffffffffff169060200190929190803573ffffffffffffffffffffffffffffffffffffffff169060200190929190505050612116565b604051808215151515815260200191505060405180910390f35b610f5560048036036020811015610f2957600080fd5b81019080803573ffffffffffffffffffffffffffffffffffffffff1690602001909291905050506121aa565b005b610f5f61231a565b60405180806020018060200180602001848103845287818151815260200191508051906020019080838360005b83811015610fa7578082015181840152602081019050610f8c565b50505050905090810190601f168015610fd45780820380516001836020036101000a031916815260200191505b50848103835286818151815260200191508051906020019080838360005b8381101561100d578082015181840152602081019050610ff2565b50505050905090810190601f16801561103a5780820380516001836020036101000a031916815260200191505b50848103825285818151815260200191508051906020019080838360005b83811015611073578082015181840152602081019050611058565b50505050905090810190601f1680156110a05780820380516001836020036101000a031916815260200191505b50965050505050505060405180910390f35b61135660048036036102808110156110c957600080fd5b8101908080604001906002806020026040519081016040528092919082600260200280828437600081840152601f19601f820116905080830192505050505050919291929080604001906002806020026040519081016040528092919082600260200280828437600081840152601f19601f82011690508083019250505050505091929192908060800190600280602002604051908101604052809291906000905b828210156111bf578382604002016002806020026040519081016040528092919082600260200280828437600081840152601f19601f8201169050808301925050505050508152602001906001019061116b565b50505050919291929080604001906002806020026040519081016040528092919082600260200280828437600081840152601f19601f820116905080830192505050505050919291929080604001906002806020026040519081016040528092919082600260200280828437600081840152601f19601f820116905080830192505050505050919291929080604001906002806020026040519081016040528092919082600260200280828437600081840152601f19601f820116905080830192505050505050919291929080604001906002806020026040519081016040528092919082600260200280828437600081840152601f19601f820116905080830192505050505050919291929080604001906002806020026040519081016040528092919082600260200280828437600081840152601f19601f820116905080830192505050505050919291929080604001906002806020026040519081016040528092919082600260200280828437600081840152601f19601f82011690508083019250505050505091929192905050506124fb565b604051808215151515815260200191505060405180910390f35b600060016000837bffffffffffffffffffffffffffffffffffffffffffffffffffffffff19167bffffffffffffffffffffffffffffffffffffffffffffffffffffffff1916815260200190815260200160002060009054906101000a900460ff169050919050565b60006001905090565b60006113ec82612882565b6113f557600080fd5b6003600083815260200190815260200160002060009054906101000a900473ffffffffffffffffffffffffffffffffffffffff169050919050565b8173ffffffffffffffffffffffffffffffffffffffff166002600083815260200190815260200160002060009054906101000a900473ffffffffffffffffffffffffffffffffffffffff1673ffffffffffffffffffffffffffffffffffffffff16146114e7576040517f08c379a000000000000000000000000000000000000000000000000000000000815260040180806020018281038252602381526020018061501a6023913960400191505060405180910390fd5b600115156114f533836128f4565b15151461154d576040517f08c379a0000000000000000000000000000000000000000000000000000000008152600401808060200182810382526024815260200180614f236024913960400191505060405180910390fd5b816003600083815260200190815260200160002060006101000a81548173ffffffffffffffffffffffffffffffffffffffff021916908373ffffffffffffffffffffffffffffffffffffffff160217905550808273ffffffffffffffffffffffffffffffffffffffff166002600084815260200190815260200160002060009054906101000a900473ffffffffffffffffffffffffffffffffffffffff1673ffffffffffffffffffffffffffffffffffffffff167f8c5be1e5ebec7d5bd14f71427d1e84f3dd0314c0f7b2291e5b200ac8c7c3b92560405160405180910390a45050565b6000600880549050905090565b61164833826128f4565b61165157600080fd5b61165c838383612989565b505050565b6116a0828260006040519080825280601f01601f19166020018201604052801561169a5781602001600182028038833980820191505090505b50611872565b5050565b6000826000600281106116b357fe5b6020020151836001600281106116c557fe5b602002015160006116d683836129ad565b9050600160028111156116e557fe5b6016600083815260200190815260200160002060009054906101000a900460ff16600281111561171157fe5b14611767576040517f08c379a0000000000000000000000000000000000000000000000000000000008152600401808060200182810382526031815260200180614fe96031913960400191505060405180910390fd5b61177385601554611877565b935060006117a38760006002811061178757fe5b60200201518860016002811061179957fe5b60200201516129ad565b905060026016600083815260200190815260200160002060006101000a81548160ff021916908360028111156117d557fe5b02179055506117f060016015546129ea90919063ffffffff16565b50600194505050505092915050565b600061180a83611c0b565b821061181557600080fd5b600660008473ffffffffffffffffffffffffffffffffffffffff1673ffffffffffffffffffffffffffffffffffffffff168152602001908152602001600020828154811061185f57fe5b9060005260206000200154905092915050565b505050565b6000809050601460009054906101000a900473ffffffffffffffffffffffffffffffffffffffff1673ffffffffffffffffffffffffffffffffffffffff163373ffffffffffffffffffffffffffffffffffffffff1614611922576040517f08c379a0000000000000000000000000000000000000000000000000000000008152600401808060200182810382526030815260200180614fb96030913960400191505060405180910390fd5b61192c8383612a09565b61193582612a2a565b6001905092915050565b61195a83838360405180602001604052806000815250611df7565b505050565b6000611969611631565b821061197457600080fd5b6008828154811061198157fe5b90600052602060002001549050919050565b6000816000600281106119a257fe5b6020020151826001600281106119b457fe5b602002015160006119c583836129ad565b9050600160028111156119d457fe5b6016600083815260200190815260200160002060009054906101000a900460ff166002811115611a0057fe5b1415611a57576040517f08c379a000000000000000000000000000000000000000000000000000000000815260040180806020018281038252602d815260200180614f47602d913960400191505060405180910390fd5b611a688d8d8d8d8d8d8d8d8d6124fb565b93508315611b5557611a78614c10565b604051806040016040528060155481526020013373ffffffffffffffffffffffffffffffffffffffff1681525090506015543373ffffffffffffffffffffffffffffffffffffffff167f3a01cc868bdb36c1d9b8a262a8ad25064b23ac175b3f8e4453f1daf8ff6bac0d60405160405180910390a36000611b1b87600060028110611aff57fe5b602002015188600160028110611b1157fe5b60200201516129ad565b905060016016600083815260200190815260200160002060006101000a81548160ff02191690836002811115611b4d57fe5b021790555050505b5050509998505050505050505050565b6000806002600084815260200190815260200160002060009054906101000a900473ffffffffffffffffffffffffffffffffffffffff169050600073ffffffffffffffffffffffffffffffffffffffff168173ffffffffffffffffffffffffffffffffffffffff161415611bd857600080fd5b80915050919050565b6000601460009054906101000a900473ffffffffffffffffffffffffffffffffffffffff16905090565b60008073ffffffffffffffffffffffffffffffffffffffff168273ffffffffffffffffffffffffffffffffffffffff161415611c4657600080fd5b611c8d600460008473ffffffffffffffffffffffffffffffffffffffff1673ffffffffffffffffffffffffffffffffffffffff168152602001908152602001600020612b12565b9050919050565b60008060009054906101000a900473ffffffffffffffffffffffffffffffffffffffff16905090565b3373ffffffffffffffffffffffffffffffffffffffff168273ffffffffffffffffffffffffffffffffffffffff161415611cf657600080fd5b80600560003373ffffffffffffffffffffffffffffffffffffffff1673ffffffffffffffffffffffffffffffffffffffff16815260200190815260200160002060008473ffffffffffffffffffffffffffffffffffffffff1673ffffffffffffffffffffffffffffffffffffffff16815260200190815260200160002060006101000a81548160ff0219169083151502179055508173ffffffffffffffffffffffffffffffffffffffff163373ffffffffffffffffffffffffffffffffffffffff167f17307eab39ab6107e8899845ad3d59bd9653f200f220920489ca2b5937696c3183604051808215151515815260200191505060405180910390a35050565b611e0284848461163e565b611e0e84848484612b20565b611e1757600080fd5b50505050565b6060611e2882612882565b611e3157600080fd5b601260008381526020019081526020016000208054600181600116156101000203166002900480601f016020809104026020016040519081016040528092919081815260200182805460018160011615610100020316600290048015611ed85780601f10611ead57610100808354040283529160200191611ed8565b820191906000526020600020905b815481529060010190602001808311611ebb57829003601f168201915b50505050509050919050565b6000809054906101000a900473ffffffffffffffffffffffffffffffffffffffff1673ffffffffffffffffffffffffffffffffffffffff163373ffffffffffffffffffffffffffffffffffffffff1614611f89576040517f08c379a0000000000000000000000000000000000000000000000000000000008152600401808060200182810382526025815260200180614efe6025913960400191505060405180910390fd5b80600060146101000a81548160ff0219169083151502179055508015612011577f62e78cea01bee320cd4e420270b5ea74000d11b0c9f74754ebdbfc544b05a25833604051808273ffffffffffffffffffffffffffffffffffffffff1673ffffffffffffffffffffffffffffffffffffffff16815260200191505060405180910390a1612075565b7f5db9ee0a495bf2e6ff9c91a7834c1ba4fdd244a5e8aa4e537bd38aeae4b073aa33604051808273ffffffffffffffffffffffffffffffffffffffff1673ffffffffffffffffffffffffffffffffffffffff16815260200191505060405180910390a15b50565b60118054600181600116156101000203166002900480601f01602080910402602001604051908101604052809291908181526020018280546001816001161561010002031660029004801561210e5780601f106120e35761010080835404028352916020019161210e565b820191906000526020600020905b8154815290600101906020018083116120f157829003601f168201915b505050505081565b6000600560008473ffffffffffffffffffffffffffffffffffffffff1673ffffffffffffffffffffffffffffffffffffffff16815260200190815260200160002060008373ffffffffffffffffffffffffffffffffffffffff1673ffffffffffffffffffffffffffffffffffffffff16815260200190815260200160002060009054906101000a900460ff16905092915050565b6000809054906101000a900473ffffffffffffffffffffffffffffffffffffffff1673ffffffffffffffffffffffffffffffffffffffff163373ffffffffffffffffffffffffffffffffffffffff161461224f576040517f08c379a0000000000000000000000000000000000000000000000000000000008152600401808060200182810382526025815260200180614efe6025913960400191505060405180910390fd5b80600073ffffffffffffffffffffffffffffffffffffffff168173ffffffffffffffffffffffffffffffffffffffff1614156122d6576040517f08c379a0000000000000000000000000000000000000000000000000000000008152600401808060200182810382526023815260200180614f746023913960400191505060405180910390fd5b816000806101000a81548173ffffffffffffffffffffffffffffffffffffffff021916908373ffffffffffffffffffffffffffffffffffffffff1602179055505050565b6060806060600f8054600181600116156101000203166002900480601f0160208091040260200160405190810160405280929190818152602001828054600181600116156101000203166002900480156123b55780601f1061238a576101008083540402835291602001916123b5565b820191906000526020600020905b81548152906001019060200180831161239857829003601f168201915b5050505050925060108054600181600116156101000203166002900480601f0160208091040260200160405190810160405280929190818152602001828054600181600116156101000203166002900480156124525780601f1061242757610100808354040283529160200191612452565b820191906000526020600020905b81548152906001019060200180831161243557829003601f168201915b5050505050915060118054600181600116156101000203166002900480601f0160208091040260200160405190810160405280929190818152602001828054600181600116156101000203166002900480156124ef5780601f106124c4576101008083540402835291602001916124ef565b820191906000526020600020905b8154815290600101906020018083116124d257829003601f168201915b50505050509050909192565b6000612505614c40565b60405180604001604052808c60006002811061251d57fe5b602002015181526020018c60016002811061253457fe5b6020020151815250816000018190525060405180604001604052808b60006002811061255c57fe5b602002015181526020018b60016002811061257357fe5b60200201518152508160200181905250604051806040016040528060405180604001604052808c6000600281106125a657fe5b60200201516000600281106125b757fe5b602002015181526020018c6000600281106125ce57fe5b60200201516001600281106125df57fe5b6020020151815250815260200160405180604001604052808c60016002811061260457fe5b602002015160006002811061261557fe5b602002015181526020018c60016002811061262c57fe5b602002015160016002811061263d57fe5b6020020151815250815250816040018190525060405180604001604052808960006002811061266857fe5b602002015181526020018960016002811061267f57fe5b602002015181525081606001819052506040518060400160405280886000600281106126a757fe5b60200201518152602001886001600281106126be57fe5b602002015181525081608001819052506040518060400160405280876000600281106126e657fe5b60200201518152602001876001600281106126fd57fe5b60200201518152508160a0018190525060405180604001604052808660006002811061272557fe5b602002015181526020018660016002811061273c57fe5b60200201518152508160e0018190525060405180604001604052808560006002811061276457fe5b602002015181526020018560016002811061277b57fe5b60200201518152508160c00181905250606060026040519080825280602002602001820160405280156127bd5781602001602082028038833980820191505090505b50905060008090505b6002811015612805578481600281106127db57fe5b60200201518282815181106127ec57fe5b60200260200101818152505080806001019150506127c6565b5060006128128284612d41565b141561286e577f3f3cfdb26fb5f9f1786ab4f1a1f9cd4c0b5e726cbdfc26e495261731aad44e39604051808060200182810382526022815260200180614f976022913960400191505060405180910390a1600192505050612875565b6000925050505b9998505050505050505050565b6000806002600084815260200190815260200160002060009054906101000a900473ffffffffffffffffffffffffffffffffffffffff169050600073ffffffffffffffffffffffffffffffffffffffff168173ffffffffffffffffffffffffffffffffffffffff161415915050919050565b60008061290083611b65565b90508073ffffffffffffffffffffffffffffffffffffffff168473ffffffffffffffffffffffffffffffffffffffff16148061296f57508373ffffffffffffffffffffffffffffffffffffffff16612957846113e1565b73ffffffffffffffffffffffffffffffffffffffff16145b80612980575061297f8185612116565b5b91505092915050565b612994838383612f69565b61299e83826132a9565b6129a88282613447565b505050565b6000818301828402604051602001808381526020018281526020019250505060405160208183030381529060405280519060200120905092915050565b6000808284019050838110156129ff57600080fd5b8091505092915050565b612a13828261350e565b612a1d8282613447565b612a26816137ac565b5050565b612a3381612882565b612a3c57600080fd5b612ae860118054600181600116156101000203166002900480601f016020809104026020016040519081016040528092919081815260200182805460018160011615610100020316600290048015612ad55780601f10612aaa57610100808354040283529160200191612ad5565b820191906000526020600020905b815481529060010190602001808311612ab857829003601f168201915b5050505050612ae3836137f8565b613944565b601260008381526020019081526020016000209080519060200190612b0e929190614cb5565b5050565b600081600001549050919050565b6000612b418473ffffffffffffffffffffffffffffffffffffffff16613988565b612b4e5760019050612d39565b60008473ffffffffffffffffffffffffffffffffffffffff1663150b7a02338887876040518563ffffffff167c0100000000000000000000000000000000000000000000000000000000028152600401808573ffffffffffffffffffffffffffffffffffffffff1673ffffffffffffffffffffffffffffffffffffffff1681526020018473ffffffffffffffffffffffffffffffffffffffff1673ffffffffffffffffffffffffffffffffffffffff16815260200183815260200180602001828103825283818151815260200191508051906020019080838360005b83811015612c45578082015181840152602081019050612c2a565b50505050905090810190601f168015612c725780820380516001836020036101000a031916815260200191505b5095505050505050602060405180830381600087803b158015612c9457600080fd5b505af1158015612ca8573d6000803e3d6000fd5b505050506040513d6020811015612cbe57600080fd5b8101908080519060200190929190505050905063150b7a027c0100000000000000000000000000000000000000000000000000000000027bffffffffffffffffffffffffffffffffffffffffffffffffffffffff1916817bffffffffffffffffffffffffffffffffffffffffffffffffffffffff1916149150505b949350505050565b6000612d4b614d35565b612d5361399b565b90508060e0015151600185510114612d6a57600080fd5b612d72614da4565b6040518060400160405280600081526020016000815250905060008090505b8551811015612de957612dda82612dd58560e001516001850181518110612db457fe5b6020026020010151898581518110612dc857fe5b6020026020010151613fd0565b614064565b91508080600101915050612d91565b50612e0c818360e00151600081518110612dff57fe5b6020026020010151614064565b9050612e3584600001518360000151612e288760200151614117565b612e306141b1565b61427b565b612e4457600192505050612f63565b612e6b82602001518560400151612e5e8760600151614117565b612e666141b1565b61427b565b612e7a57600292505050612f63565b612ea184608001518360400151612e948760a00151614117565b612e9c6141b1565b61427b565b612eb057600392505050612f63565b612efc8460c001518360600151612ee0612edb85612ed68a600001518b60800151614064565b614064565b614117565b8560a00151612ef28760800151614117565b8960400151614377565b612f0b57600492505050612f63565b612f4d612f1c828660000151614064565b8560400151612f2e8760e00151614117565b8560c00151612f408960800151614117565b612f486141b1565b614377565b612f5c57600592505050612f63565b6000925050505b92915050565b8273ffffffffffffffffffffffffffffffffffffffff166002600083815260200190815260200160002060009054906101000a900473ffffffffffffffffffffffffffffffffffffffff1673ffffffffffffffffffffffffffffffffffffffff161461303d576040517f08c379a00000000000000000000000000000000000000000000000000000000081526004018080602001828103825260198152602001807f41646472657373206d757374206f776e20746f6b656e2049440000000000000081525060200191505060405180910390fd5b600015156130608373ffffffffffffffffffffffffffffffffffffffff16613988565b151514801561309c5750600073ffffffffffffffffffffffffffffffffffffffff168273ffffffffffffffffffffffffffffffffffffffff1614155b61310e576040517f08c379a00000000000000000000000000000000000000000000000000000000081526004018080602001828103825260198152602001807f56616c696420616464726573732069732072657175697265640000000000000081525060200191505060405180910390fd5b613117816144a7565b816003600083815260200190815260200160002060006101000a81548173ffffffffffffffffffffffffffffffffffffffff021916908373ffffffffffffffffffffffffffffffffffffffff1602179055506131b0600460008573ffffffffffffffffffffffffffffffffffffffff1673ffffffffffffffffffffffffffffffffffffffff168152602001908152602001600020614565565b6131f7600460008473ffffffffffffffffffffffffffffffffffffffff1673ffffffffffffffffffffffffffffffffffffffff168152602001908152602001600020614588565b826002600083815260200190815260200160002060006101000a81548173ffffffffffffffffffffffffffffffffffffffff021916908373ffffffffffffffffffffffffffffffffffffffff160217905550808273ffffffffffffffffffffffffffffffffffffffff168473ffffffffffffffffffffffffffffffffffffffff167fddf252ad1be2c89b69c2b068fc378daa952ba7f163c4a11628f55a4df523b3ef60405160405180910390a4505050565b60006133016001600660008673ffffffffffffffffffffffffffffffffffffffff1673ffffffffffffffffffffffffffffffffffffffff1681526020019081526020016000208054905061459e90919063ffffffff16565b90506000600760008481526020019081526020016000205490508181146133ee576000600660008673ffffffffffffffffffffffffffffffffffffffff1673ffffffffffffffffffffffffffffffffffffffff168152602001908152602001600020838154811061336e57fe5b9060005260206000200154905080600660008773ffffffffffffffffffffffffffffffffffffffff1673ffffffffffffffffffffffffffffffffffffffff16815260200190815260200160002083815481106133c657fe5b9060005260206000200181905550816007600083815260200190815260200160002081905550505b600660008573ffffffffffffffffffffffffffffffffffffffff1673ffffffffffffffffffffffffffffffffffffffff1681526020019081526020016000208054809190600190036134409190614dbe565b5050505050565b600660008373ffffffffffffffffffffffffffffffffffffffff1673ffffffffffffffffffffffffffffffffffffffff168152602001908152602001600020805490506007600083815260200190815260200160002081905550600660008373ffffffffffffffffffffffffffffffffffffffff1673ffffffffffffffffffffffffffffffffffffffff1681526020019081526020016000208190806001815401808255809150509060018203906000526020600020016000909192909190915055505050565b600073ffffffffffffffffffffffffffffffffffffffff166003600083815260200190815260200160002060009054906101000a900473ffffffffffffffffffffffffffffffffffffffff1673ffffffffffffffffffffffffffffffffffffffff16146135e3576040517f08c379a00000000000000000000000000000000000000000000000000000000081526004018080602001828103825260178152602001807f546f6b656e20494420616c72656164792065786973747300000000000000000081525060200191505060405180910390fd5b600015156136068373ffffffffffffffffffffffffffffffffffffffff16613988565b15151480156136425750600073ffffffffffffffffffffffffffffffffffffffff168273ffffffffffffffffffffffffffffffffffffffff1614155b6136b4576040517f08c379a00000000000000000000000000000000000000000000000000000000081526004018080602001828103825260198152602001807f56616c696420616464726573732069732072657175697265640000000000000081525060200191505060405180910390fd5b816002600083815260200190815260200160002060006101000a81548173ffffffffffffffffffffffffffffffffffffffff021916908373ffffffffffffffffffffffffffffffffffffffff16021790555061374d600460008473ffffffffffffffffffffffffffffffffffffffff1673ffffffffffffffffffffffffffffffffffffffff168152602001908152602001600020614588565b808273ffffffffffffffffffffffffffffffffffffffff163373ffffffffffffffffffffffffffffffffffffffff167fddf252ad1be2c89b69c2b068fc378daa952ba7f163c4a11628f55a4df523b3ef60405160405180910390a45050565b6008805490506009600083815260200190815260200160002081905550600881908060018154018082558091505090600182039060005260206000200160009091929091909150555050565b60606000821415613840576040518060400160405280600181526020017f3000000000000000000000000000000000000000000000000000000000000000815250905061393f565b600082905060005b6000821461386a578080600101915050600a828161386257fe5b049150613848565b6060816040519080825280601f01601f19166020018201604052801561389f5781602001600182028038833980820191505090505b50905060006001830390505b6000861461393757600a86816138bd57fe5b066030017f010000000000000000000000000000000000000000000000000000000000000002828280600190039350815181106138f657fe5b60200101907effffffffffffffffffffffffffffffffffffffffffffffffffffffffffffff1916908160001a905350600a868161392f57fe5b0495506138ab565b819450505050505b919050565b606061398083836040518060200160405280600081525060405180602001604052806000815250604051806020016040528060008152506145be565b905092915050565b600080823b905060008111915050919050565b6139a3614d35565b604051806040016040528060405180604001604052807f124f25e459cb0cc2af8637ba6fd5d00f052f9069e14b282f2778f30fb6c8bc8881526020017f23afd23e4c588f7e2b5cc378c173ff1f168d680123ef192564dc8ebc9e752d22815250815260200160405180604001604052807f0ca5f2ec0979d718c7ca4a73d0c51c6b46a1731ab12176e0e64770053df73de281526020017f175fd471bc0c7e781b5b0068e7b59300b030b92d9993d8d62c232838bba45381815250815250816000018190525060405180604001604052807f1209015799d52cbe1bf8615e3c9eda3a310b26daf4b949f553147d4e569dd71581526020017f02bcd5f4e3867685b9c2c64b758cf5bfef7fc3ed498f1c08760416acc01dcfd38152508160200181905250604051806040016040528060405180604001604052807f28632caebd23d1d729bd33051e6e256ee06e1892abd04069e89cfefe2cb06eda81526020017f1595650b4983b57389de943264d7835da00d8905532ea88c725d551bb0da96e9815250815260200160405180604001604052807f21731e3804223c31331181e67681d39171ba8c33986cf2f010056e2d2a77fa5b81526020017f0d4eb2fb065594ebfb7177d9c3a4905155987c47ec5e726edeed06e582bb3b3b8152508152508160400181905250604051806040016040528060405180604001604052807f2f8c13a08758c996b6cc1cf7222e43bedf21a5132a4a73e165c67dc71cbd3d9581526020017f16cb763e58daa37d5334be26cb2c687538f8cc3ef0e496b60f672c643381698f815250815260200160405180604001604052807f1d3059c69b8269c0ae8d69ab72a4e925063f0827cc5f3b17a9f7668b1b69306f81526020017f0973f54a3c12560ff05f7f9c2f10857c0fb68e931150e447d89789a80ad97b40815250815250816060018190525060405180604001604052807f18218deb364e84cc27ec952e0d5d86300307f663ce5d26be556f6e93c958953f81526020017f0dedc59da1aba00251592774c7fd153ea7b4fc08a379135a6a52f591069d63168152508160800181905250604051806040016040528060405180604001604052807f0b51e55eabcbab3fefa674af59fbc62b914579c0a2e52edc63da03bc1ebd0e7f81526020017f10e72dde3034d07d18be7c5d357cfa24c96ddcca6360892e77fe6aa07478d040815250815260200160405180604001604052807f128d7ee5a970c5e4350927411e9c5a97f066cfacb9c2c4cf2ba5fcc2f378481d81526020017f20d63654b96b208c2b819a301f8962bc57f464190761104dcf67c72360f299458152508152508160a00181905250604051806040016040528060405180604001604052807f0ce64300b221e264b50789afbb4ecde52fe7f4334e6aa7ba08e100e1f172e97381526020017f0fdeb333da2803e6581fe19c43dd5ff4e3435df4fb1fb9342768db42abd68ded815250815260200160405180604001604052807f21e3d058af3257c8b2cfc3fe1748d8b4eb1879106b7f41d62df985c4ee4887dc81526020017f0e4621035baba7d516fcea38167aaee5fd46f579f1a51032248ec651018bfad58152508152508160c001819052506003604051908082528060200260200182016040528015613e7157816020015b613e5e614dea565b815260200190600190039081613e565790505b508160e0018190525060405180604001604052807f13c966ebc58d6b834ef606b9a51a3e540d0177fa4439a5986f934ee2632c223e81526020017f106ac57d777338b6c71d36f2b25160037c0b6cbbb93abbf467d2ea6b5cc8a0d58152508160e00151600081518110613ee057fe5b602002602001018190525060405180604001604052807f073508cc87513974b79386b222a1fcb37ee4882b38cd6d717616a8cd7c4f0b4481526020017f2499b923f6b17bbebddc353f926c58a2c29f5c93eff794b5c211eb66084779958152508160e00151600181518110613f5157fe5b602002602001018190525060405180604001604052807f133e18907519e7420261602ef51f53e889cd71321f6ecc218c11c69ac3adb2f981526020017f0a6e14669d1a276c72e2a38db6c7d7a9320a9bfd1f2aebb6a647c466ecf49dad8152508160e00151600281518110613fc257fe5b602002602001018190525090565b613fd8614da4565b613fe0614e04565b836000015181600060038110613ff257fe5b60200201818152505083602001518160016003811061400d57fe5b602002018181525050828160026003811061402457fe5b6020020181815250506000606083608084600060076107d05a03f19050806000811461404f57614051565bfe5b508061405c57600080fd5b505092915050565b61406c614da4565b614074614e26565b83600001518160006004811061408657fe5b6020020181815250508360200151816001600481106140a157fe5b6020020181815250508260000151816002600481106140bc57fe5b6020020181815250508260200151816003600481106140d757fe5b602002018181525050600060608360c084600060066107d05a03f19050806000811461410257614104565bfe5b508061410f57600080fd5b505092915050565b61411f614da4565b60007f30644e72e131a029b85045b68181585d97816a916871ca8d3c208c16d87cfd4790506000836000015114801561415c575060008360200151145b156141805760405180604001604052806000815260200160008152509150506141ac565b604051806040016040528084600001518152602001828560200151816141a257fe5b0683038152509150505b919050565b6141b9614e48565b604051806040016040528060405180604001604052807f198e9393920d483a7260bfb731fb5d25f1aa493335a9e71297e485b7aef312c281526020017f1800deef121f1e76426a00665e5c4479674322d4f75edadd46debd5cd992f6ed815250815260200160405180604001604052807f090689d0585ff075ec9e99ad690c3395bc4b313370b38ef355acdadcd122975b81526020017f12c85ea5db8c6deb4aab71808dcb408fe3d1e7690c43d37b4ce6cc0166fa7daa815250815250905090565b6000606060026040519080825280602002602001820160405280156142ba57816020015b6142a7614dea565b81526020019060019003908161429f5790505b509050606060026040519080825280602002602001820160405280156142fa57816020015b6142e7614e6e565b8152602001906001900390816142df5790505b509050868260008151811061430b57fe5b6020026020010181905250848260018151811061432457fe5b6020026020010181905250858160008151811061433d57fe5b6020026020010181905250838160018151811061435657fe5b602002602001018190525061436b82826149bb565b92505050949350505050565b6000606060036040519080825280602002602001820160405280156143b657816020015b6143a3614dea565b81526020019060019003908161439b5790505b509050606060036040519080825280602002602001820160405280156143f657816020015b6143e3614e6e565b8152602001906001900390816143db5790505b509050888260008151811061440757fe5b6020026020010181905250868260018151811061442057fe5b6020026020010181905250848260028151811061443957fe5b6020026020010181905250878160008151811061445257fe5b6020026020010181905250858160018151811061446b57fe5b6020026020010181905250838160028151811061448457fe5b602002602001018190525061449982826149bb565b925050509695505050505050565b600073ffffffffffffffffffffffffffffffffffffffff166003600083815260200190815260200160002060009054906101000a900473ffffffffffffffffffffffffffffffffffffffff1673ffffffffffffffffffffffffffffffffffffffff16146145625760006003600083815260200190815260200160002060006101000a81548173ffffffffffffffffffffffffffffffffffffffff021916908373ffffffffffffffffffffffffffffffffffffffff1602179055505b50565b61457d6001826000015461459e90919063ffffffff16565b816000018190555050565b6001816000016000828254019250508190555050565b6000828211156145ad57600080fd5b600082840390508091505092915050565b6060808690506060869050606086905060608690506060869050606081518351855187518951010101016040519080825280601f01601f19166020018201604052801561461a5781602001600182028038833980820191505090505b509050606081905060008090506000809050600090505b88518110156146de5788818151811061464657fe5b60200101517f010000000000000000000000000000000000000000000000000000000000000090047f0100000000000000000000000000000000000000000000000000000000000000028383806001019450815181106146a257fe5b60200101907effffffffffffffffffffffffffffffffffffffffffffffffffffffffffffff1916908160001a9053508080600101915050614631565b600090505b8751811015614790578781815181106146f857fe5b60200101517f010000000000000000000000000000000000000000000000000000000000000090047f01000000000000000000000000000000000000000000000000000000000000000283838060010194508151811061475457fe5b60200101907effffffffffffffffffffffffffffffffffffffffffffffffffffffffffffff1916908160001a90535080806001019150506146e3565b600090505b8651811015614842578681815181106147aa57fe5b60200101517f010000000000000000000000000000000000000000000000000000000000000090047f01000000000000000000000000000000000000000000000000000000000000000283838060010194508151811061480657fe5b60200101907effffffffffffffffffffffffffffffffffffffffffffffffffffffffffffff1916908160001a9053508080600101915050614795565b600090505b85518110156148f45785818151811061485c57fe5b60200101517f010000000000000000000000000000000000000000000000000000000000000090047f0100000000000000000000000000000000000000000000000000000000000000028383806001019450815181106148b857fe5b60200101907effffffffffffffffffffffffffffffffffffffffffffffffffffffffffffff1916908160001a9053508080600101915050614847565b600090505b84518110156149a65784818151811061490e57fe5b60200101517f010000000000000000000000000000000000000000000000000000000000000090047f01000000000000000000000000000000000000000000000000000000000000000283838060010194508151811061496a57fe5b60200101907effffffffffffffffffffffffffffffffffffffffffffffffffffffffffffff1916908160001a90535080806001019150506148f9565b82995050505050505050505095945050505050565b600081518351146149cb57600080fd5b6000835190506000600682029050606081604051908082528060200260200182016040528015614a0a5781602001602082028038833980820191505090505b50905060008090505b83811015614bb057868181518110614a2757fe5b602002602001015160000151826000600684020181518110614a4557fe5b602002602001018181525050868181518110614a5d57fe5b602002602001015160200151826001600684020181518110614a7b57fe5b602002602001018181525050858181518110614a9357fe5b602002602001015160000151600060028110614aab57fe5b6020020151826002600684020181518110614ac257fe5b602002602001018181525050858181518110614ada57fe5b602002602001015160000151600160028110614af257fe5b6020020151826003600684020181518110614b0957fe5b602002602001018181525050858181518110614b2157fe5b602002602001015160200151600060028110614b3957fe5b6020020151826004600684020181518110614b5057fe5b602002602001018181525050858181518110614b6857fe5b602002602001015160200151600160028110614b8057fe5b6020020151826005600684020181518110614b9757fe5b6020026020010181815250508080600101915050614a13565b50614bb9614e94565b60006020826020860260208601600060086107d05a03f190508060008114614be057614be2565bfe5b5080614bed57600080fd5b600082600060018110614bfc57fe5b602002015114159550505050505092915050565b604051806040016040528060008152602001600073ffffffffffffffffffffffffffffffffffffffff1681525090565b604051806102400160405280614c54614dea565b8152602001614c61614dea565b8152602001614c6e614e6e565b8152602001614c7b614dea565b8152602001614c88614dea565b8152602001614c95614dea565b8152602001614ca2614dea565b8152602001614caf614dea565b81525090565b828054600181600116156101000203166002900490600052602060002090601f016020900481019282601f10614cf657805160ff1916838001178555614d24565b82800160010185558215614d24579182015b82811115614d23578251825591602001919060010190614d08565b5b509050614d319190614eb6565b5090565b604051806103200160405280614d49614e6e565b8152602001614d56614dea565b8152602001614d63614e6e565b8152602001614d70614e6e565b8152602001614d7d614dea565b8152602001614d8a614e6e565b8152602001614d97614e6e565b8152602001606081525090565b604051806040016040528060008152602001600081525090565b815481835581811115614de557818360005260206000209182019101614de49190614eb6565b5b505050565b604051806040016040528060008152602001600081525090565b6040518060600160405280600390602082028038833980820191505090505090565b6040518060800160405280600490602082028038833980820191505090505090565b6040518060800160405280614e5b614edb565b8152602001614e68614edb565b81525090565b6040518060800160405280614e81614edb565b8152602001614e8e614edb565b81525090565b6040518060200160405280600190602082028038833980820191505090505090565b614ed891905b80821115614ed4576000816000905550600101614ebc565b5090565b90565b604051806040016040528060029060208202803883398082019150509050509056fe4163636f756e74206d7573742062656c6f6e6720746f20636f6e7472616374206f776e657253656e646572206d757374206265206f776e6572206f662074686520636f6e7472616374536f6c7574696f6e207468617420616c7265616479206578697374732063616e6e6f742062652061646465642e53656e64696e67206163636f756e74206d757374206e6f7420626520696e76616c69645472616e73616374696f6e207375636365737366756c6c792076657269666965642e4d6574686f642063616e206f6e6c792062652063616c6c65642062792074686520636f6e7472616374206f776e65722e536f6c7574696f6e20646f6573206e6f74206578697374206f7220736f6c7574696f6e20686173206265656e207573656443616e6e6f74207472616e7366657220746f6b656e20746f206f6e6527732073656c66a165627a7a72305820641a16a1431b83060e9a87cc5f3d923af440117ef738ca7f613aab3b7c5f800f002968747470733a2f2f73332d75732d776573742d322e616d617a6f6e6177732e636f6d2f756461636974792d626c6f636b636861696e2f63617073746f6e652f",
  "source": "pragma solidity >=0.4.21 <0.6.0;\n\nimport './ERC721Mintable.sol';\nimport './verifier.sol';\n\n// TODO define another contract named SolnSquareVerifier that inherits from your ERC721Mintable class\ncontract SolnSquareVerifier is ERC721MintableComplete, Verifier {\n\n    //VerifierInterface verifierInterface;\n    uint256 currentIndex;\n\n    constructor(string memory name, string memory symbol) ERC721MintableComplete(name, symbol) public {         \n        //verifierInterface = VerifierInterface(verifierAddress);   \n        //verifierInterface = VerifierInterface(verifierAddress);   \n        currentIndex = 0;     \n    }\n\n    // TODO define a solutions struct that can hold an index & an address\n    struct Solution {\n        uint256 index;\n        address solAddress;\n    }\n\n    //enumerator to track state of solution\n    enum SolutionState { Unverfied, Verified, Used }\n\n    // TODO define a mapping to store unique solutions submitted\n    mapping(bytes32 => SolutionState) private acceptedSolutions;\n\n    // TODO Create an event to emit when a solution is added\n    event SolutionAdded(address indexed solAddress, uint256 indexed index);\n\n    modifier verifiedSolutionNotUsed(uint a, uint b) {\n        bytes32 hasedResult = hashSolution(a,b);\n        require(acceptedSolutions[hasedResult] == SolutionState.Verified, \"Solution does not exist or solution has been used\");\n        _;\n    }\n\n    modifier solutionDoesNotExists(uint a, uint b) {\n        bytes32 hasedResult = hashSolution(a,b);\n        require(acceptedSolutions[hasedResult] != SolutionState.Verified, \"Solution that already exists cannot be added.\");\n        _;\n    }\n\n    // TODO Create a function to add the solutions to the array and emit the event\n    function addSolution(\n            uint[2] memory a,\n            uint[2] memory a_p,\n            uint[2][2] memory b,\n            uint[2] memory b_p,\n            uint[2] memory c,\n            uint[2] memory c_p,\n            uint[2] memory h,\n            uint[2] memory k,\n            uint[2] memory input\n        ) public solutionDoesNotExists(input[0],input[1]) returns (bool r)\n        {\n            //r = verifierInterface.verifyTx(a,a_p,b,b_p,c,c_p,h,k,input);\n            // r = verifierInterface.test();\n            // if (r) {\n            //     // Solution memory newSolution = Solution(index,solAddress);\n            //     // emit SolutionAdded(solAddress,index);\n            //     // currentIndex.add(1);\n            // }         \n            \n            r = verifyTx(a,a_p,b,b_p,c,c_p,h,k,input);\n            if (r) {\n                Solution memory newSolution = Solution(currentIndex,msg.sender);\n                emit SolutionAdded(msg.sender,currentIndex);                \n                bytes32 hashResult = hashSolution(input[0],input[1]);\n                acceptedSolutions[hashResult] = SolutionState.Verified;\n            }\n        }\n    \n\n    // TODO Create a function to mint new NFT only after the solution has been verified\n    //  - make sure the solution is unique (has not been used before)\n    //  - make sure you handle metadata as well as tokenSupply\n    //function mintNewToken (address to, uint256 tokenId) public returns(bool success) {\n\n    //TODO:need to satisfy new solution\n    function mintNewToken (uint[2] memory input, address to) verifiedSolutionNotUsed(input[0],input[1]) public returns (bool r) {\n        r = mint(to,currentIndex);\n        bytes32 hashResult = hashSolution(input[0],input[1]);\n        acceptedSolutions[hashResult] = SolutionState.Used;\n        currentIndex.add(1);\n        return true;\n    }\n\n    function hashSolution(uint a, uint b) private returns(bytes32 hashedSolution) {\n        hashedSolution = keccak256(abi.encodePacked(a+b, a*b));\n    }   \n}\n\n// TODO define a contract call to the zokrates generated solidity contract <Verifier> or <renamedVerifier>\n\n//Data Interface\n// contract VerifierInterface //is Verifier  \n// {\n//     function verifyTx(\n//             uint[2] memory a,\n//             uint[2] memory a_p,\n//             uint[2][2] memory b,\n//             uint[2] memory b_p,\n//             uint[2] memory c,\n//             uint[2] memory c_p,\n//             uint[2] memory h,\n//             uint[2] memory k,\n//             uint[2] memory input\n//         ) public returns (bool r) \n//         {\n//             r = true;\n//             // r = verifyTx(\n//             //     a,\n//             //     a_p,\n//             //     b,\n//             //     b_p,\n//             //     c,\n//             //     c_p,\n//             //     h,\n//             //     k,\n//             //     input\n//             // );\n//         }\n\n//     function test() public returns(bool) {\n//         return true;\n//     }\n// }\n\n// contract SquareVerifier {\n//     function verifyTxTEST(\n//         uint[2] memory a,\n//         uint[2] memory a_p,\n//         uint[2][2] memory b,\n//         uint[2] memory b_p,\n//         uint[2] memory c,\n//         uint[2] memory c_p,\n//         uint[2] memory h,\n//         uint[2] memory k,\n//         uint[2] memory input\n//     ) public returns (bool r) \n//     {\n//         //r = true;\n//         r = verifyTx(\n//             a,\n//             a_p,\n//             b,\n//             b_p,\n//             c,\n//             c_p,\n//             h,\n//             k,\n//             input\n//         );\n//     }\n// }\n\n\n\n\n\n\n\n\n\n\n\n\n\n\n\n\n\n\n\n\n\n",
  "sourcePath": "/Users/joeyberger/Desktop/Real-Estate-Token-succesful migration/eth-contracts/contracts/SolnSquareVerifier.sol",
  "compiler": {
    "name": "solc",
    "version": "0.5.7+commit.6da8b019.Emscripten.clang"
  },
  "schemaVersion": "3.0.2",
  "updatedAt": "2019-04-19T04:33:58.945Z",
  "devdoc": {
    "methods": {
      "isApprovedForAll(address,address)": {
        "details": "Tells whether an operator is approved by a given owner",
        "params": {
          "operator": "operator address which you want to query the approval of",
          "owner": "owner address which you want to query the approval of"
        },
        "return": "bool whether the given operator is approved by the given owner"
      },
      "setApprovalForAll(address,bool)": {
        "details": "Sets or unsets the approval of a given operator An operator is allowed to transfer all tokens of the sender on their behalf",
        "params": {
          "approved": "representing the status of the approval to be set",
          "to": "operator address to set the approval"
        }
      },
      "supportsInterface(bytes4)": {
        "details": "implement supportsInterface(bytes4) using a lookup table"
      },
      "tokenByIndex(uint256)": {
        "details": "Gets the token ID at a given index of all the tokens in this contract Reverts if the index is greater or equal to the total number of tokens",
        "params": {
          "index": "uint256 representing the index to be accessed of the tokens list"
        },
        "return": "uint256 token ID at the given index of the tokens list"
      },
      "tokenOfOwnerByIndex(address,uint256)": {
        "details": "Gets the token ID at a given index of the tokens list of the requested owner",
        "params": {
          "index": "uint256 representing the index to be accessed of the requested tokens list",
          "owner": "address owning the tokens list to be accessed"
        },
        "return": "uint256 token ID at the given index of the tokens list owned by the requested address"
      },
      "totalSupply()": {
        "details": "Gets the total amount of tokens stored by the contract",
        "return": "uint256 representing the total amount of tokens"
      }
    }
  },
  "userdoc": {
    "methods": {}
  }
}