{
  "contractName": "SolnSquareVerifier",
  "abi": [
    {
      "constant": true,
      "inputs": [
        {
          "name": "interfaceId",
          "type": "bytes4"
        }
      ],
      "name": "supportsInterface",
      "outputs": [
        {
          "name": "",
          "type": "bool"
        }
      ],
      "payable": false,
      "stateMutability": "view",
      "type": "function",
      "signature": "0x01ffc9a7"
    },
    {
      "constant": true,
      "inputs": [
        {
          "name": "tokenId",
          "type": "uint256"
        }
      ],
      "name": "getApproved",
      "outputs": [
        {
          "name": "",
          "type": "address"
        }
      ],
      "payable": false,
      "stateMutability": "view",
      "type": "function",
      "signature": "0x081812fc"
    },
    {
      "constant": false,
      "inputs": [
        {
          "name": "to",
          "type": "address"
        },
        {
          "name": "tokenId",
          "type": "uint256"
        }
      ],
      "name": "approve",
      "outputs": [],
      "payable": false,
      "stateMutability": "nonpayable",
      "type": "function",
      "signature": "0x095ea7b3"
    },
    {
      "constant": true,
      "inputs": [],
      "name": "totalSupply",
      "outputs": [
        {
          "name": "",
          "type": "uint256"
        }
      ],
      "payable": false,
      "stateMutability": "view",
      "type": "function",
      "signature": "0x18160ddd"
    },
    {
      "constant": false,
      "inputs": [
        {
          "name": "from",
          "type": "address"
        },
        {
          "name": "to",
          "type": "address"
        },
        {
          "name": "tokenId",
          "type": "uint256"
        }
      ],
      "name": "transferFrom",
      "outputs": [],
      "payable": false,
      "stateMutability": "nonpayable",
      "type": "function",
      "signature": "0x23b872dd"
    },
    {
      "constant": false,
      "inputs": [
        {
          "name": "_myid",
          "type": "bytes32"
        },
        {
          "name": "_result",
          "type": "string"
        }
      ],
      "name": "__callback",
      "outputs": [],
      "payable": false,
      "stateMutability": "nonpayable",
      "type": "function",
      "signature": "0x27dc297e"
    },
    {
      "constant": true,
      "inputs": [
        {
          "name": "owner",
          "type": "address"
        },
        {
          "name": "index",
          "type": "uint256"
        }
      ],
      "name": "tokenOfOwnerByIndex",
      "outputs": [
        {
          "name": "",
          "type": "uint256"
        }
      ],
      "payable": false,
      "stateMutability": "view",
      "type": "function",
      "signature": "0x2f745c59"
    },
    {
      "constant": false,
      "inputs": [
        {
          "name": "_myid",
          "type": "bytes32"
        },
        {
          "name": "_result",
          "type": "string"
        },
        {
          "name": "_proof",
          "type": "bytes"
        }
      ],
      "name": "__callback",
      "outputs": [],
      "payable": false,
      "stateMutability": "nonpayable",
      "type": "function",
      "signature": "0x38bbfa50"
    },
    {
      "constant": false,
      "inputs": [
        {
          "name": "to",
          "type": "address"
        },
        {
          "name": "tokenId",
          "type": "uint256"
        }
      ],
      "name": "mint",
      "outputs": [
        {
          "name": "success",
          "type": "bool"
        }
      ],
      "payable": false,
      "stateMutability": "nonpayable",
      "type": "function",
      "signature": "0x40c10f19"
    },
    {
      "constant": false,
      "inputs": [
        {
          "name": "from",
          "type": "address"
        },
        {
          "name": "to",
          "type": "address"
        },
        {
          "name": "tokenId",
          "type": "uint256"
        }
      ],
      "name": "safeTransferFrom",
      "outputs": [],
      "payable": false,
      "stateMutability": "nonpayable",
      "type": "function",
      "signature": "0x42842e0e"
    },
    {
      "constant": true,
      "inputs": [
        {
          "name": "index",
          "type": "uint256"
        }
      ],
      "name": "tokenByIndex",
      "outputs": [
        {
          "name": "",
          "type": "uint256"
        }
      ],
      "payable": false,
      "stateMutability": "view",
      "type": "function",
      "signature": "0x4f6ccce7"
    },
    {
      "constant": true,
      "inputs": [
        {
          "name": "tokenId",
          "type": "uint256"
        }
      ],
      "name": "ownerOf",
      "outputs": [
        {
          "name": "",
          "type": "address"
        }
      ],
      "payable": false,
      "stateMutability": "view",
      "type": "function",
      "signature": "0x6352211e"
    },
    {
      "constant": false,
      "inputs": [],
      "name": "returnContractOwner",
      "outputs": [
        {
          "name": "",
          "type": "address"
        }
      ],
      "payable": false,
      "stateMutability": "nonpayable",
      "type": "function",
      "signature": "0x7035fbff"
    },
    {
      "constant": true,
      "inputs": [
        {
          "name": "owner",
          "type": "address"
        }
      ],
      "name": "balanceOf",
      "outputs": [
        {
          "name": "",
          "type": "uint256"
        }
      ],
      "payable": false,
      "stateMutability": "view",
      "type": "function",
      "signature": "0x70a08231"
    },
    {
      "constant": false,
      "inputs": [
        {
          "name": "to",
          "type": "address"
        },
        {
          "name": "approved",
          "type": "bool"
        }
      ],
      "name": "setApprovalForAll",
      "outputs": [],
      "payable": false,
      "stateMutability": "nonpayable",
      "type": "function",
      "signature": "0xa22cb465"
    },
    {
      "constant": false,
      "inputs": [
        {
          "name": "from",
          "type": "address"
        },
        {
          "name": "to",
          "type": "address"
        },
        {
          "name": "tokenId",
          "type": "uint256"
        },
        {
          "name": "_data",
          "type": "bytes"
        }
      ],
      "name": "safeTransferFrom",
      "outputs": [],
      "payable": false,
      "stateMutability": "nonpayable",
      "type": "function",
      "signature": "0xb88d4fde"
    },
    {
      "constant": true,
      "inputs": [
        {
          "name": "tokenId",
          "type": "uint256"
        }
      ],
      "name": "tokenURI",
      "outputs": [
        {
          "name": "",
          "type": "string"
        }
      ],
      "payable": false,
      "stateMutability": "view",
      "type": "function",
      "signature": "0xc87b56dd"
    },
    {
      "constant": false,
      "inputs": [
        {
          "name": "ipaused",
          "type": "bool"
        }
      ],
      "name": "setPauseState",
      "outputs": [],
      "payable": false,
      "stateMutability": "nonpayable",
      "type": "function",
      "signature": "0xcdb88ad1"
    },
    {
      "constant": true,
      "inputs": [],
      "name": "_baseTokenURI",
      "outputs": [
        {
          "name": "",
          "type": "string"
        }
      ],
      "payable": false,
      "stateMutability": "view",
      "type": "function",
      "signature": "0xcfc86f7b"
    },
    {
      "constant": true,
      "inputs": [
        {
          "name": "owner",
          "type": "address"
        },
        {
          "name": "operator",
          "type": "address"
        }
      ],
      "name": "isApprovedForAll",
      "outputs": [
        {
          "name": "",
          "type": "bool"
        }
      ],
      "payable": false,
      "stateMutability": "view",
      "type": "function",
      "signature": "0xe985e9c5"
    },
    {
      "constant": false,
      "inputs": [
        {
          "name": "newOwner",
          "type": "address"
        }
      ],
      "name": "transferOwnership",
      "outputs": [],
      "payable": false,
      "stateMutability": "nonpayable",
      "type": "function",
      "signature": "0xf2fde38b"
    },
    {
      "constant": true,
      "inputs": [],
      "name": "getERC721Data",
      "outputs": [
        {
          "name": "name",
          "type": "string"
        },
        {
          "name": "symbol",
          "type": "string"
        },
        {
          "name": "baseTokenURI",
          "type": "string"
        }
      ],
      "payable": false,
      "stateMutability": "view",
      "type": "function",
      "signature": "0xf8bb0f13"
    },
    {
      "constant": false,
      "inputs": [
        {
          "name": "a",
          "type": "uint256[2]"
        },
        {
          "name": "a_p",
          "type": "uint256[2]"
        },
        {
          "name": "b",
          "type": "uint256[2][2]"
        },
        {
          "name": "b_p",
          "type": "uint256[2]"
        },
        {
          "name": "c",
          "type": "uint256[2]"
        },
        {
          "name": "c_p",
          "type": "uint256[2]"
        },
        {
          "name": "h",
          "type": "uint256[2]"
        },
        {
          "name": "k",
          "type": "uint256[2]"
        },
        {
          "name": "input",
          "type": "uint256[2]"
        }
      ],
      "name": "verifyTx",
      "outputs": [
        {
          "name": "r",
          "type": "bool"
        }
      ],
      "payable": false,
      "stateMutability": "nonpayable",
      "type": "function",
      "signature": "0xfe01ff62"
    },
    {
      "inputs": [
        {
          "name": "verifierAddress",
          "type": "address"
        },
        {
          "name": "name",
          "type": "string"
        },
        {
          "name": "symbol",
          "type": "string"
        }
      ],
      "payable": false,
      "stateMutability": "nonpayable",
      "type": "constructor",
      "signature": "constructor"
    },
    {
      "anonymous": false,
      "inputs": [
        {
          "indexed": true,
          "name": "solAddress",
          "type": "address"
        },
        {
          "indexed": true,
          "name": "index",
          "type": "uint256"
        }
      ],
      "name": "SolutionAdded",
      "type": "event",
      "signature": "0x3a01cc868bdb36c1d9b8a262a8ad25064b23ac175b3f8e4453f1daf8ff6bac0d"
    },
    {
      "anonymous": false,
      "inputs": [
        {
          "indexed": false,
          "name": "s",
          "type": "string"
        }
      ],
      "name": "Verified",
      "type": "event",
      "signature": "0x3f3cfdb26fb5f9f1786ab4f1a1f9cd4c0b5e726cbdfc26e495261731aad44e39"
    },
    {
      "anonymous": false,
      "inputs": [
        {
          "indexed": true,
          "name": "from",
          "type": "address"
        },
        {
          "indexed": true,
          "name": "to",
          "type": "address"
        },
        {
          "indexed": true,
          "name": "tokenId",
          "type": "uint256"
        }
      ],
      "name": "Transfer",
      "type": "event",
      "signature": "0xddf252ad1be2c89b69c2b068fc378daa952ba7f163c4a11628f55a4df523b3ef"
    },
    {
      "anonymous": false,
      "inputs": [
        {
          "indexed": true,
          "name": "owner",
          "type": "address"
        },
        {
          "indexed": true,
          "name": "approved",
          "type": "address"
        },
        {
          "indexed": true,
          "name": "tokenId",
          "type": "uint256"
        }
      ],
      "name": "Approval",
      "type": "event",
      "signature": "0x8c5be1e5ebec7d5bd14f71427d1e84f3dd0314c0f7b2291e5b200ac8c7c3b925"
    },
    {
      "anonymous": false,
      "inputs": [
        {
          "indexed": true,
          "name": "owner",
          "type": "address"
        },
        {
          "indexed": true,
          "name": "operator",
          "type": "address"
        },
        {
          "indexed": false,
          "name": "approved",
          "type": "bool"
        }
      ],
      "name": "ApprovalForAll",
      "type": "event",
      "signature": "0x17307eab39ab6107e8899845ad3d59bd9653f200f220920489ca2b5937696c31"
    },
    {
      "anonymous": false,
      "inputs": [
        {
          "indexed": false,
          "name": "callingAddress",
          "type": "address"
        }
      ],
      "name": "Paused",
      "type": "event",
      "signature": "0x62e78cea01bee320cd4e420270b5ea74000d11b0c9f74754ebdbfc544b05a258"
    },
    {
      "anonymous": false,
      "inputs": [
        {
          "indexed": false,
          "name": "callingAddress",
          "type": "address"
        }
      ],
      "name": "Unpaused",
      "type": "event",
      "signature": "0x5db9ee0a495bf2e6ff9c91a7834c1ba4fdd244a5e8aa4e537bd38aeae4b073aa"
    },
    {
      "anonymous": false,
      "inputs": [
        {
          "indexed": false,
          "name": "newOwner",
          "type": "address"
        }
      ],
      "name": "OwnershipTransfered",
      "type": "event",
      "signature": "0x9736aeb40a8f30a5c076a9897428fdf7ec0e909c96dce63533664c9b5c835da6"
    },
    {
      "constant": false,
      "inputs": [
        {
          "name": "a",
          "type": "uint256[2]"
        },
        {
          "name": "a_p",
          "type": "uint256[2]"
        },
        {
          "name": "b",
          "type": "uint256[2][2]"
        },
        {
          "name": "b_p",
          "type": "uint256[2]"
        },
        {
          "name": "c",
          "type": "uint256[2]"
        },
        {
          "name": "c_p",
          "type": "uint256[2]"
        },
        {
          "name": "h",
          "type": "uint256[2]"
        },
        {
          "name": "k",
          "type": "uint256[2]"
        },
        {
          "name": "input",
          "type": "uint256[2]"
        }
      ],
      "name": "addSolution",
      "outputs": [
        {
          "name": "r",
          "type": "bool"
        }
      ],
      "payable": false,
      "stateMutability": "nonpayable",
      "type": "function",
      "signature": "0x5a50ec51"
    },
    {
      "constant": false,
      "inputs": [
        {
          "name": "input",
          "type": "uint256[2]"
        },
        {
          "name": "to",
          "type": "address"
        }
      ],
      "name": "mintNewToken",
      "outputs": [
        {
          "name": "r",
          "type": "bool"
        }
      ],
      "payable": false,
      "stateMutability": "nonpayable",
      "type": "function",
      "signature": "0x2d21947e"
    }
  ],
  "bytecode": "0x60806040523480156200001157600080fd5b50604051620055fe380380620055fe833981018060405260608110156200003757600080fd5b810190808051906020019092919080516401000000008111156200005a57600080fd5b828101905060208101848111156200007157600080fd5b81518560018202830111640100000000821117156200008f57600080fd5b50509291906020018051640100000000811115620000ac57600080fd5b82810190506020810184811115620000c357600080fd5b8151856001820283011164010000000082111715620000e157600080fd5b50509291905050508181818160138054600181600116156101000203166002900480601f016020809104026020016040519081016040528092919081815260200182805460018160011615610100020316600290048015620001875780601f106200015b5761010080835404028352916020019162000187565b820191906000526020600020905b8154815290600101906020018083116200016957829003601f168201915b5050505050336000806101000a81548173ffffffffffffffffffffffffffffffffffffffff021916908373ffffffffffffffffffffffffffffffffffffffff1602179055507f9736aeb40a8f30a5c076a9897428fdf7ec0e909c96dce63533664c9b5c835da66000809054906101000a900473ffffffffffffffffffffffffffffffffffffffff16604051808273ffffffffffffffffffffffffffffffffffffffff1673ffffffffffffffffffffffffffffffffffffffff16815260200191505060405180910390a160008060146101000a81548160ff021916908315150217905550620002a76301ffc9a77c01000000000000000000000000000000000000000000000000000000000262000468640100000000026401000000009004565b620002e46380ac58cd7c01000000000000000000000000000000000000000000000000000000000262000468640100000000026401000000009004565b6200032163780e9d637c01000000000000000000000000000000000000000000000000000000000262000468640100000000026401000000009004565b82600f90805190602001906200033992919062000524565b5081601090805190602001906200035292919062000524565b5080601190805190602001906200036b92919062000524565b5050505033601460006101000a81548173ffffffffffffffffffffffffffffffffffffffff021916908373ffffffffffffffffffffffffffffffffffffffff1602179055506040518060600160405280603f8152602001620055bf603f913960139080519060200190620003e192919062000524565b506040518060600160405280603f8152602001620055bf603f9139601190805190602001906200041392919062000524565b50505082601560006101000a81548173ffffffffffffffffffffffffffffffffffffffff021916908373ffffffffffffffffffffffffffffffffffffffff1602179055506000601681905550505050620005d3565b63ffffffff7c010000000000000000000000000000000000000000000000000000000002817bffffffffffffffffffffffffffffffffffffffffffffffffffffffff19161415620004b857600080fd5b6001806000837bffffffffffffffffffffffffffffffffffffffffffffffffffffffff19167bffffffffffffffffffffffffffffffffffffffffffffffffffffffff1916815260200190815260200160002060006101000a81548160ff02191690831515021790555050565b828054600181600116156101000203166002900490600052602060002090601f016020900481019282601f106200056757805160ff191683800117855562000598565b8280016001018555821562000598579182015b82811115620005975782518255916020019190600101906200057a565b5b509050620005a79190620005ab565b5090565b620005d091905b80821115620005cc576000816000905550600101620005b2565b5090565b90565b614fdc80620005e36000396000f3fe608060405234801561001057600080fd5b5060043610610190576000357c0100000000000000000000000000000000000000000000000000000000900480635a50ec51116100fb578063c87b56dd116100b4578063e985e9c51161008e578063e985e9c514610df5578063f2fde38b14610e71578063f8bb0f1314610eb5578063fe01ff621461101057610190565b8063c87b56dd14610c9b578063cdb88ad114610d42578063cfc86f7b14610d7257610190565b80635a50ec51146107785780636352211e14610a365780637035fbff14610aa457806370a0823114610aee578063a22cb46514610b46578063b88d4fde14610b9657610190565b80632d21947e1161014d5780632d21947e146104075780632f745c59146104a457806338bbfa501461050657806340c10f191461066257806342842e0e146106c85780634f6ccce71461073657610190565b806301ffc9a714610195578063081812fc146101fa578063095ea7b31461026857806318160ddd146102b657806323b872dd146102d457806327dc297e14610342575b600080fd5b6101e0600480360360208110156101ab57600080fd5b8101908080357bffffffffffffffffffffffffffffffffffffffffffffffffffffffff191690602001909291905050506112ce565b604051808215151515815260200191505060405180910390f35b6102266004803603602081101561021057600080fd5b8101908080359060200190929190505050611336565b604051808273ffffffffffffffffffffffffffffffffffffffff1673ffffffffffffffffffffffffffffffffffffffff16815260200191505060405180910390f35b6102b46004803603604081101561027e57600080fd5b81019080803573ffffffffffffffffffffffffffffffffffffffff16906020019092919080359060200190929190505050611373565b005b6102be611574565b6040518082815260200191505060405180910390f35b610340600480360360608110156102ea57600080fd5b81019080803573ffffffffffffffffffffffffffffffffffffffff169060200190929190803573ffffffffffffffffffffffffffffffffffffffff16906020019092919080359060200190929190505050611581565b005b6104056004803603604081101561035857600080fd5b81019080803590602001909291908035906020019064010000000081111561037f57600080fd5b82018360208201111561039157600080fd5b803590602001918460018302840111640100000000831117156103b357600080fd5b91908080601f016020809104026020016040519081016040528093929190818152602001838380828437600081840152601f19601f8201169050808301925050505050505091929192905050506115a4565b005b61048a6004803603606081101561041d57600080fd5b8101908080604001906002806020026040519081016040528092919082600260200280828437600081840152601f19601f8201169050808301925050505050509192919290803573ffffffffffffffffffffffffffffffffffffffff1690602001909291905050506115e7565b604051808215151515815260200191505060405180910390f35b6104f0600480360360408110156104ba57600080fd5b81019080803573ffffffffffffffffffffffffffffffffffffffff16906020019092919080359060200190929190505050611742565b6040518082815260200191505060405180910390f35b6106606004803603606081101561051c57600080fd5b81019080803590602001909291908035906020019064010000000081111561054357600080fd5b82018360208201111561055557600080fd5b8035906020019184600183028401116401000000008311171561057757600080fd5b91908080601f016020809104026020016040519081016040528093929190818152602001838380828437600081840152601f19601f820116905080830192505050505050509192919290803590602001906401000000008111156105da57600080fd5b8201836020820111156105ec57600080fd5b8035906020019184600183028401116401000000008311171561060e57600080fd5b91908080601f016020809104026020016040519081016040528093929190818152602001838380828437600081840152601f19601f8201169050808301925050505050505091929192905050506117b5565b005b6106ae6004803603604081101561067857600080fd5b81019080803573ffffffffffffffffffffffffffffffffffffffff169060200190929190803590602001909291905050506117ba565b604051808215151515815260200191505060405180910390f35b610734600480360360608110156106de57600080fd5b81019080803573ffffffffffffffffffffffffffffffffffffffff169060200190929190803573ffffffffffffffffffffffffffffffffffffffff16906020019092919080359060200190929190505050611882565b005b6107626004803603602081101561074c57600080fd5b81019080803590602001909291905050506118a2565b6040518082815260200191505060405180910390f35b610a1c600480360361028081101561078f57600080fd5b8101908080604001906002806020026040519081016040528092919082600260200280828437600081840152601f19601f820116905080830192505050505050919291929080604001906002806020026040519081016040528092919082600260200280828437600081840152601f19601f82011690508083019250505050505091929192908060800190600280602002604051908101604052809291906000905b82821015610885578382604002016002806020026040519081016040528092919082600260200280828437600081840152601f19601f82011690508083019250505050505081526020019060010190610831565b50505050919291929080604001906002806020026040519081016040528092919082600260200280828437600081840152601f19601f820116905080830192505050505050919291929080604001906002806020026040519081016040528092919082600260200280828437600081840152601f19601f820116905080830192505050505050919291929080604001906002806020026040519081016040528092919082600260200280828437600081840152601f19601f820116905080830192505050505050919291929080604001906002806020026040519081016040528092919082600260200280828437600081840152601f19601f820116905080830192505050505050919291929080604001906002806020026040519081016040528092919082600260200280828437600081840152601f19601f820116905080830192505050505050919291929080604001906002806020026040519081016040528092919082600260200280828437600081840152601f19601f82011690508083019250505050505091929192905050506118d6565b604051808215151515815260200191505060405180910390f35b610a6260048036036020811015610a4c57600080fd5b8101908080359060200190929190505050611aa8565b604051808273ffffffffffffffffffffffffffffffffffffffff1673ffffffffffffffffffffffffffffffffffffffff16815260200191505060405180910390f35b610aac611ae5565b604051808273ffffffffffffffffffffffffffffffffffffffff1673ffffffffffffffffffffffffffffffffffffffff16815260200191505060405180910390f35b610b3060048036036020811015610b0457600080fd5b81019080803573ffffffffffffffffffffffffffffffffffffffff169060200190929190505050611bb5565b6040518082815260200191505060405180910390f35b610b9460048036036040811015610b5c57600080fd5b81019080803573ffffffffffffffffffffffffffffffffffffffff169060200190929190803515159060200190929190505050611c05565b005b610c9960048036036080811015610bac57600080fd5b81019080803573ffffffffffffffffffffffffffffffffffffffff169060200190929190803573ffffffffffffffffffffffffffffffffffffffff1690602001909291908035906020019092919080359060200190640100000000811115610c1357600080fd5b820183602082011115610c2557600080fd5b80359060200191846001830284011164010000000083111715610c4757600080fd5b91908080601f016020809104026020016040519081016040528093929190818152602001838380828437600081840152601f19601f820116905080830192505050505050509192919290505050611d3f565b005b610cc760048036036020811015610cb157600080fd5b8101908080359060200190929190505050611d65565b6040518080602001828103825283818151815260200191508051906020019080838360005b83811015610d07578082015181840152602081019050610cec565b50505050905090810190601f168015610d345780820380516001836020036101000a031916815260200191505b509250505060405180910390f35b610d7060048036036020811015610d5857600080fd5b81019080803515159060200190929190505050611e2c565b005b610d7a611fc0565b6040518080602001828103825283818151815260200191508051906020019080838360005b83811015610dba578082015181840152602081019050610d9f565b50505050905090810190601f168015610de75780820380516001836020036101000a031916815260200191505b509250505060405180910390f35b610e5760048036036040811015610e0b57600080fd5b81019080803573ffffffffffffffffffffffffffffffffffffffff169060200190929190803573ffffffffffffffffffffffffffffffffffffffff16906020019092919050505061205e565b604051808215151515815260200191505060405180910390f35b610eb360048036036020811015610e8757600080fd5b81019080803573ffffffffffffffffffffffffffffffffffffffff1690602001909291905050506120f2565b005b610ebd612262565b60405180806020018060200180602001848103845287818151815260200191508051906020019080838360005b83811015610f05578082015181840152602081019050610eea565b50505050905090810190601f168015610f325780820380516001836020036101000a031916815260200191505b50848103835286818151815260200191508051906020019080838360005b83811015610f6b578082015181840152602081019050610f50565b50505050905090810190601f168015610f985780820380516001836020036101000a031916815260200191505b50848103825285818151815260200191508051906020019080838360005b83811015610fd1578082015181840152602081019050610fb6565b50505050905090810190601f168015610ffe5780820380516001836020036101000a031916815260200191505b50965050505050505060405180910390f35b6112b4600480360361028081101561102757600080fd5b8101908080604001906002806020026040519081016040528092919082600260200280828437600081840152601f19601f820116905080830192505050505050919291929080604001906002806020026040519081016040528092919082600260200280828437600081840152601f19601f82011690508083019250505050505091929192908060800190600280602002604051908101604052809291906000905b8282101561111d578382604002016002806020026040519081016040528092919082600260200280828437600081840152601f19601f820116905080830192505050505050815260200190600101906110c9565b50505050919291929080604001906002806020026040519081016040528092919082600260200280828437600081840152601f19601f820116905080830192505050505050919291929080604001906002806020026040519081016040528092919082600260200280828437600081840152601f19601f820116905080830192505050505050919291929080604001906002806020026040519081016040528092919082600260200280828437600081840152601f19601f820116905080830192505050505050919291929080604001906002806020026040519081016040528092919082600260200280828437600081840152601f19601f820116905080830192505050505050919291929080604001906002806020026040519081016040528092919082600260200280828437600081840152601f19601f820116905080830192505050505050919291929080604001906002806020026040519081016040528092919082600260200280828437600081840152601f19601f8201169050808301925050505050509192919290505050612443565b604051808215151515815260200191505060405180910390f35b600060016000837bffffffffffffffffffffffffffffffffffffffffffffffffffffffff19167bffffffffffffffffffffffffffffffffffffffffffffffffffffffff1916815260200190815260200160002060009054906101000a900460ff169050919050565b60006003600083815260200190815260200160002060009054906101000a900473ffffffffffffffffffffffffffffffffffffffff169050919050565b8173ffffffffffffffffffffffffffffffffffffffff166002600083815260200190815260200160002060009054906101000a900473ffffffffffffffffffffffffffffffffffffffff1673ffffffffffffffffffffffffffffffffffffffff161461142a576040517f08c379a0000000000000000000000000000000000000000000000000000000008152600401808060200182810382526023815260200180614f8e6023913960400191505060405180910390fd5b6001151561143833836127ca565b151514611490576040517f08c379a0000000000000000000000000000000000000000000000000000000008152600401808060200182810382526024815260200180614e976024913960400191505060405180910390fd5b816003600083815260200190815260200160002060006101000a81548173ffffffffffffffffffffffffffffffffffffffff021916908373ffffffffffffffffffffffffffffffffffffffff160217905550808273ffffffffffffffffffffffffffffffffffffffff166002600084815260200190815260200160002060009054906101000a900473ffffffffffffffffffffffffffffffffffffffff1673ffffffffffffffffffffffffffffffffffffffff167f8c5be1e5ebec7d5bd14f71427d1e84f3dd0314c0f7b2291e5b200ac8c7c3b92560405160405180910390a45050565b6000600880549050905090565b61158b33826127ca565b61159457600080fd5b61159f83838361285f565b505050565b6115e3828260006040519080825280601f01601f1916602001820160405280156115dd5781602001600182028038833980820191505090505b506117b5565b5050565b6000826000600281106115f657fe5b60200201518360016002811061160857fe5b602002015160006116198383612883565b90506001600281111561162857fe5b6017600083815260200190815260200160002060009054906101000a900460ff16600281111561165457fe5b146116aa576040517f08c379a0000000000000000000000000000000000000000000000000000000008152600401808060200182810382526031815260200180614f5d6031913960400191505060405180910390fd5b6116b6856016546117ba565b935060006116e6876000600281106116ca57fe5b6020020151886001600281106116dc57fe5b6020020151612883565b905060026017600083815260200190815260200160002060006101000a81548160ff0219169083600281111561171857fe5b021790555061173360016016546128c090919063ffffffff16565b50600194505050505092915050565b600061174d83611bb5565b821061175857600080fd5b600660008473ffffffffffffffffffffffffffffffffffffffff1673ffffffffffffffffffffffffffffffffffffffff16815260200190815260200160002082815481106117a257fe5b9060005260206000200154905092915050565b505050565b6000809050601460009054906101000a900473ffffffffffffffffffffffffffffffffffffffff1673ffffffffffffffffffffffffffffffffffffffff163373ffffffffffffffffffffffffffffffffffffffff1614611865576040517f08c379a0000000000000000000000000000000000000000000000000000000008152600401808060200182810382526030815260200180614f2d6030913960400191505060405180910390fd5b61186f83836128df565b61187882612900565b6001905092915050565b61189d83838360405180602001604052806000815250611d3f565b505050565b60006118ac611574565b82106118b757600080fd5b600882815481106118c457fe5b90600052602060002001549050919050565b6000816000600281106118e557fe5b6020020151826001600281106118f757fe5b602002015160006119088383612883565b90506001600281111561191757fe5b6017600083815260200190815260200160002060009054906101000a900460ff16600281111561194357fe5b141561199a576040517f08c379a000000000000000000000000000000000000000000000000000000000815260040180806020018281038252602d815260200180614ebb602d913960400191505060405180910390fd5b6119ab8d8d8d8d8d8d8d8d8d612443565b93508315611a98576119bb614b58565b604051806040016040528060165481526020013373ffffffffffffffffffffffffffffffffffffffff1681525090506016543373ffffffffffffffffffffffffffffffffffffffff167f3a01cc868bdb36c1d9b8a262a8ad25064b23ac175b3f8e4453f1daf8ff6bac0d60405160405180910390a36000611a5e87600060028110611a4257fe5b602002015188600160028110611a5457fe5b6020020151612883565b905060016017600083815260200190815260200160002060006101000a81548160ff02191690836002811115611a9057fe5b021790555050505b5050509998505050505050505050565b60006002600083815260200190815260200160002060009054906101000a900473ffffffffffffffffffffffffffffffffffffffff169050919050565b6000601460009054906101000a900473ffffffffffffffffffffffffffffffffffffffff1673ffffffffffffffffffffffffffffffffffffffff163373ffffffffffffffffffffffffffffffffffffffff1614611b8d576040517f08c379a000000000000000000000000000000000000000000000000000000000815260040180806020018281038252602c815260200180614e46602c913960400191505060405180910390fd5b601460009054906101000a900473ffffffffffffffffffffffffffffffffffffffff16905090565b6000611bfe600460008473ffffffffffffffffffffffffffffffffffffffff1673ffffffffffffffffffffffffffffffffffffffff1681526020019081526020016000206129e8565b9050919050565b3373ffffffffffffffffffffffffffffffffffffffff168273ffffffffffffffffffffffffffffffffffffffff161415611c3e57600080fd5b80600560003373ffffffffffffffffffffffffffffffffffffffff1673ffffffffffffffffffffffffffffffffffffffff16815260200190815260200160002060008473ffffffffffffffffffffffffffffffffffffffff1673ffffffffffffffffffffffffffffffffffffffff16815260200190815260200160002060006101000a81548160ff0219169083151502179055508173ffffffffffffffffffffffffffffffffffffffff163373ffffffffffffffffffffffffffffffffffffffff167f17307eab39ab6107e8899845ad3d59bd9653f200f220920489ca2b5937696c3183604051808215151515815260200191505060405180910390a35050565b611d4a848484611581565b611d56848484846129f6565b611d5f57600080fd5b50505050565b6060611d7082612c17565b611d7957600080fd5b601260008381526020019081526020016000208054600181600116156101000203166002900480601f016020809104026020016040519081016040528092919081815260200182805460018160011615610100020316600290048015611e205780601f10611df557610100808354040283529160200191611e20565b820191906000526020600020905b815481529060010190602001808311611e0357829003601f168201915b50505050509050919050565b6000809054906101000a900473ffffffffffffffffffffffffffffffffffffffff1673ffffffffffffffffffffffffffffffffffffffff163373ffffffffffffffffffffffffffffffffffffffff1614611ed1576040517f08c379a0000000000000000000000000000000000000000000000000000000008152600401808060200182810382526025815260200180614e726025913960400191505060405180910390fd5b80600060146101000a81548160ff0219169083151502179055508015611f59577f62e78cea01bee320cd4e420270b5ea74000d11b0c9f74754ebdbfc544b05a25833604051808273ffffffffffffffffffffffffffffffffffffffff1673ffffffffffffffffffffffffffffffffffffffff16815260200191505060405180910390a1611fbd565b7f5db9ee0a495bf2e6ff9c91a7834c1ba4fdd244a5e8aa4e537bd38aeae4b073aa33604051808273ffffffffffffffffffffffffffffffffffffffff1673ffffffffffffffffffffffffffffffffffffffff16815260200191505060405180910390a15b50565b60118054600181600116156101000203166002900480601f0160208091040260200160405190810160405280929190818152602001828054600181600116156101000203166002900480156120565780601f1061202b57610100808354040283529160200191612056565b820191906000526020600020905b81548152906001019060200180831161203957829003601f168201915b505050505081565b6000600560008473ffffffffffffffffffffffffffffffffffffffff1673ffffffffffffffffffffffffffffffffffffffff16815260200190815260200160002060008373ffffffffffffffffffffffffffffffffffffffff1673ffffffffffffffffffffffffffffffffffffffff16815260200190815260200160002060009054906101000a900460ff16905092915050565b6000809054906101000a900473ffffffffffffffffffffffffffffffffffffffff1673ffffffffffffffffffffffffffffffffffffffff163373ffffffffffffffffffffffffffffffffffffffff1614612197576040517f08c379a0000000000000000000000000000000000000000000000000000000008152600401808060200182810382526025815260200180614e726025913960400191505060405180910390fd5b80600073ffffffffffffffffffffffffffffffffffffffff168173ffffffffffffffffffffffffffffffffffffffff16141561221e576040517f08c379a0000000000000000000000000000000000000000000000000000000008152600401808060200182810382526023815260200180614ee86023913960400191505060405180910390fd5b816000806101000a81548173ffffffffffffffffffffffffffffffffffffffff021916908373ffffffffffffffffffffffffffffffffffffffff1602179055505050565b6060806060600f8054600181600116156101000203166002900480601f0160208091040260200160405190810160405280929190818152602001828054600181600116156101000203166002900480156122fd5780601f106122d2576101008083540402835291602001916122fd565b820191906000526020600020905b8154815290600101906020018083116122e057829003601f168201915b5050505050925060108054600181600116156101000203166002900480601f01602080910402602001604051908101604052809291908181526020018280546001816001161561010002031660029004801561239a5780601f1061236f5761010080835404028352916020019161239a565b820191906000526020600020905b81548152906001019060200180831161237d57829003601f168201915b5050505050915060118054600181600116156101000203166002900480601f0160208091040260200160405190810160405280929190818152602001828054600181600116156101000203166002900480156124375780601f1061240c57610100808354040283529160200191612437565b820191906000526020600020905b81548152906001019060200180831161241a57829003601f168201915b50505050509050909192565b600061244d614b88565b60405180604001604052808c60006002811061246557fe5b602002015181526020018c60016002811061247c57fe5b6020020151815250816000018190525060405180604001604052808b6000600281106124a457fe5b602002015181526020018b6001600281106124bb57fe5b60200201518152508160200181905250604051806040016040528060405180604001604052808c6000600281106124ee57fe5b60200201516000600281106124ff57fe5b602002015181526020018c60006002811061251657fe5b602002015160016002811061252757fe5b6020020151815250815260200160405180604001604052808c60016002811061254c57fe5b602002015160006002811061255d57fe5b602002015181526020018c60016002811061257457fe5b602002015160016002811061258557fe5b602002015181525081525081604001819052506040518060400160405280896000600281106125b057fe5b60200201518152602001896001600281106125c757fe5b602002015181525081606001819052506040518060400160405280886000600281106125ef57fe5b602002015181526020018860016002811061260657fe5b6020020151815250816080018190525060405180604001604052808760006002811061262e57fe5b602002015181526020018760016002811061264557fe5b60200201518152508160a0018190525060405180604001604052808660006002811061266d57fe5b602002015181526020018660016002811061268457fe5b60200201518152508160e001819052506040518060400160405280856000600281106126ac57fe5b60200201518152602001856001600281106126c357fe5b60200201518152508160c00181905250606060026040519080825280602002602001820160405280156127055781602001602082028038833980820191505090505b50905060008090505b600281101561274d5784816002811061272357fe5b602002015182828151811061273457fe5b602002602001018181525050808060010191505061270e565b50600061275a8284612c89565b14156127b6577f3f3cfdb26fb5f9f1786ab4f1a1f9cd4c0b5e726cbdfc26e495261731aad44e39604051808060200182810382526022815260200180614f0b6022913960400191505060405180910390a16001925050506127bd565b6000925050505b9998505050505050505050565b6000806127d683611aa8565b90508073ffffffffffffffffffffffffffffffffffffffff168473ffffffffffffffffffffffffffffffffffffffff16148061284557508373ffffffffffffffffffffffffffffffffffffffff1661282d84611336565b73ffffffffffffffffffffffffffffffffffffffff16145b806128565750612855818561205e565b5b91505092915050565b61286a838383612eb1565b61287483826131f1565b61287e828261338f565b505050565b6000818301828402604051602001808381526020018281526020019250505060405160208183030381529060405280519060200120905092915050565b6000808284019050838110156128d557600080fd5b8091505092915050565b6128e98282613456565b6128f3828261338f565b6128fc816136f4565b5050565b61290981612c17565b61291257600080fd5b6129be60118054600181600116156101000203166002900480601f0160208091040260200160405190810160405280929190818152602001828054600181600116156101000203166002900480156129ab5780601f10612980576101008083540402835291602001916129ab565b820191906000526020600020905b81548152906001019060200180831161298e57829003601f168201915b50505050506129b983613740565b61388c565b6012600083815260200190815260200160002090805190602001906129e4929190614bfd565b5050565b600081600001549050919050565b6000612a178473ffffffffffffffffffffffffffffffffffffffff166138d0565b612a245760019050612c0f565b60008473ffffffffffffffffffffffffffffffffffffffff1663150b7a02338887876040518563ffffffff167c0100000000000000000000000000000000000000000000000000000000028152600401808573ffffffffffffffffffffffffffffffffffffffff1673ffffffffffffffffffffffffffffffffffffffff1681526020018473ffffffffffffffffffffffffffffffffffffffff1673ffffffffffffffffffffffffffffffffffffffff16815260200183815260200180602001828103825283818151815260200191508051906020019080838360005b83811015612b1b578082015181840152602081019050612b00565b50505050905090810190601f168015612b485780820380516001836020036101000a031916815260200191505b5095505050505050602060405180830381600087803b158015612b6a57600080fd5b505af1158015612b7e573d6000803e3d6000fd5b505050506040513d6020811015612b9457600080fd5b8101908080519060200190929190505050905063150b7a027c0100000000000000000000000000000000000000000000000000000000027bffffffffffffffffffffffffffffffffffffffffffffffffffffffff1916817bffffffffffffffffffffffffffffffffffffffffffffffffffffffff1916149150505b949350505050565b6000806002600084815260200190815260200160002060009054906101000a900473ffffffffffffffffffffffffffffffffffffffff169050600073ffffffffffffffffffffffffffffffffffffffff168173ffffffffffffffffffffffffffffffffffffffff161415915050919050565b6000612c93614c7d565b612c9b6138e3565b90508060e0015151600185510114612cb257600080fd5b612cba614cec565b6040518060400160405280600081526020016000815250905060008090505b8551811015612d3157612d2282612d1d8560e001516001850181518110612cfc57fe5b6020026020010151898581518110612d1057fe5b6020026020010151613f18565b613fac565b91508080600101915050612cd9565b50612d54818360e00151600081518110612d4757fe5b6020026020010151613fac565b9050612d7d84600001518360000151612d70876020015161405f565b612d786140f9565b6141c3565b612d8c57600192505050612eab565b612db382602001518560400151612da6876060015161405f565b612dae6140f9565b6141c3565b612dc257600292505050612eab565b612de984608001518360400151612ddc8760a0015161405f565b612de46140f9565b6141c3565b612df857600392505050612eab565b612e448460c001518360600151612e28612e2385612e1e8a600001518b60800151613fac565b613fac565b61405f565b8560a00151612e3a876080015161405f565b89604001516142bf565b612e5357600492505050612eab565b612e95612e64828660000151613fac565b8560400151612e768760e0015161405f565b8560c00151612e88896080015161405f565b612e906140f9565b6142bf565b612ea457600592505050612eab565b6000925050505b92915050565b8273ffffffffffffffffffffffffffffffffffffffff166002600083815260200190815260200160002060009054906101000a900473ffffffffffffffffffffffffffffffffffffffff1673ffffffffffffffffffffffffffffffffffffffff1614612f85576040517f08c379a00000000000000000000000000000000000000000000000000000000081526004018080602001828103825260198152602001807f41646472657373206d757374206f776e20746f6b656e2049440000000000000081525060200191505060405180910390fd5b60001515612fa88373ffffffffffffffffffffffffffffffffffffffff166138d0565b1515148015612fe45750600073ffffffffffffffffffffffffffffffffffffffff168273ffffffffffffffffffffffffffffffffffffffff1614155b613056576040517f08c379a00000000000000000000000000000000000000000000000000000000081526004018080602001828103825260198152602001807f56616c696420616464726573732069732072657175697265640000000000000081525060200191505060405180910390fd5b61305f816143ef565b816003600083815260200190815260200160002060006101000a81548173ffffffffffffffffffffffffffffffffffffffff021916908373ffffffffffffffffffffffffffffffffffffffff1602179055506130f8600460008573ffffffffffffffffffffffffffffffffffffffff1673ffffffffffffffffffffffffffffffffffffffff1681526020019081526020016000206144ad565b61313f600460008473ffffffffffffffffffffffffffffffffffffffff1673ffffffffffffffffffffffffffffffffffffffff1681526020019081526020016000206144d0565b826002600083815260200190815260200160002060006101000a81548173ffffffffffffffffffffffffffffffffffffffff021916908373ffffffffffffffffffffffffffffffffffffffff160217905550808273ffffffffffffffffffffffffffffffffffffffff168473ffffffffffffffffffffffffffffffffffffffff167fddf252ad1be2c89b69c2b068fc378daa952ba7f163c4a11628f55a4df523b3ef60405160405180910390a4505050565b60006132496001600660008673ffffffffffffffffffffffffffffffffffffffff1673ffffffffffffffffffffffffffffffffffffffff168152602001908152602001600020805490506144e690919063ffffffff16565b9050600060076000848152602001908152602001600020549050818114613336576000600660008673ffffffffffffffffffffffffffffffffffffffff1673ffffffffffffffffffffffffffffffffffffffff16815260200190815260200160002083815481106132b657fe5b9060005260206000200154905080600660008773ffffffffffffffffffffffffffffffffffffffff1673ffffffffffffffffffffffffffffffffffffffff168152602001908152602001600020838154811061330e57fe5b9060005260206000200181905550816007600083815260200190815260200160002081905550505b600660008573ffffffffffffffffffffffffffffffffffffffff1673ffffffffffffffffffffffffffffffffffffffff1681526020019081526020016000208054809190600190036133889190614d06565b5050505050565b600660008373ffffffffffffffffffffffffffffffffffffffff1673ffffffffffffffffffffffffffffffffffffffff168152602001908152602001600020805490506007600083815260200190815260200160002081905550600660008373ffffffffffffffffffffffffffffffffffffffff1673ffffffffffffffffffffffffffffffffffffffff1681526020019081526020016000208190806001815401808255809150509060018203906000526020600020016000909192909190915055505050565b600073ffffffffffffffffffffffffffffffffffffffff166003600083815260200190815260200160002060009054906101000a900473ffffffffffffffffffffffffffffffffffffffff1673ffffffffffffffffffffffffffffffffffffffff161461352b576040517f08c379a00000000000000000000000000000000000000000000000000000000081526004018080602001828103825260178152602001807f546f6b656e20494420616c72656164792065786973747300000000000000000081525060200191505060405180910390fd5b6000151561354e8373ffffffffffffffffffffffffffffffffffffffff166138d0565b151514801561358a5750600073ffffffffffffffffffffffffffffffffffffffff168273ffffffffffffffffffffffffffffffffffffffff1614155b6135fc576040517f08c379a00000000000000000000000000000000000000000000000000000000081526004018080602001828103825260198152602001807f56616c696420616464726573732069732072657175697265640000000000000081525060200191505060405180910390fd5b816002600083815260200190815260200160002060006101000a81548173ffffffffffffffffffffffffffffffffffffffff021916908373ffffffffffffffffffffffffffffffffffffffff160217905550613695600460008473ffffffffffffffffffffffffffffffffffffffff1673ffffffffffffffffffffffffffffffffffffffff1681526020019081526020016000206144d0565b808273ffffffffffffffffffffffffffffffffffffffff163373ffffffffffffffffffffffffffffffffffffffff167fddf252ad1be2c89b69c2b068fc378daa952ba7f163c4a11628f55a4df523b3ef60405160405180910390a45050565b6008805490506009600083815260200190815260200160002081905550600881908060018154018082558091505090600182039060005260206000200160009091929091909150555050565b60606000821415613788576040518060400160405280600181526020017f30000000000000000000000000000000000000000000000000000000000000008152509050613887565b600082905060005b600082146137b2578080600101915050600a82816137aa57fe5b049150613790565b6060816040519080825280601f01601f1916602001820160405280156137e75781602001600182028038833980820191505090505b50905060006001830390505b6000861461387f57600a868161380557fe5b066030017f0100000000000000000000000000000000000000000000000000000000000000028282806001900393508151811061383e57fe5b60200101907effffffffffffffffffffffffffffffffffffffffffffffffffffffffffffff1916908160001a905350600a868161387757fe5b0495506137f3565b819450505050505b919050565b60606138c88383604051806020016040528060008152506040518060200160405280600081525060405180602001604052806000815250614506565b905092915050565b600080823b905060008111915050919050565b6138eb614c7d565b604051806040016040528060405180604001604052807f124f25e459cb0cc2af8637ba6fd5d00f052f9069e14b282f2778f30fb6c8bc8881526020017f23afd23e4c588f7e2b5cc378c173ff1f168d680123ef192564dc8ebc9e752d22815250815260200160405180604001604052807f0ca5f2ec0979d718c7ca4a73d0c51c6b46a1731ab12176e0e64770053df73de281526020017f175fd471bc0c7e781b5b0068e7b59300b030b92d9993d8d62c232838bba45381815250815250816000018190525060405180604001604052807f1209015799d52cbe1bf8615e3c9eda3a310b26daf4b949f553147d4e569dd71581526020017f02bcd5f4e3867685b9c2c64b758cf5bfef7fc3ed498f1c08760416acc01dcfd38152508160200181905250604051806040016040528060405180604001604052807f28632caebd23d1d729bd33051e6e256ee06e1892abd04069e89cfefe2cb06eda81526020017f1595650b4983b57389de943264d7835da00d8905532ea88c725d551bb0da96e9815250815260200160405180604001604052807f21731e3804223c31331181e67681d39171ba8c33986cf2f010056e2d2a77fa5b81526020017f0d4eb2fb065594ebfb7177d9c3a4905155987c47ec5e726edeed06e582bb3b3b8152508152508160400181905250604051806040016040528060405180604001604052807f2f8c13a08758c996b6cc1cf7222e43bedf21a5132a4a73e165c67dc71cbd3d9581526020017f16cb763e58daa37d5334be26cb2c687538f8cc3ef0e496b60f672c643381698f815250815260200160405180604001604052807f1d3059c69b8269c0ae8d69ab72a4e925063f0827cc5f3b17a9f7668b1b69306f81526020017f0973f54a3c12560ff05f7f9c2f10857c0fb68e931150e447d89789a80ad97b40815250815250816060018190525060405180604001604052807f18218deb364e84cc27ec952e0d5d86300307f663ce5d26be556f6e93c958953f81526020017f0dedc59da1aba00251592774c7fd153ea7b4fc08a379135a6a52f591069d63168152508160800181905250604051806040016040528060405180604001604052807f0b51e55eabcbab3fefa674af59fbc62b914579c0a2e52edc63da03bc1ebd0e7f81526020017f10e72dde3034d07d18be7c5d357cfa24c96ddcca6360892e77fe6aa07478d040815250815260200160405180604001604052807f128d7ee5a970c5e4350927411e9c5a97f066cfacb9c2c4cf2ba5fcc2f378481d81526020017f20d63654b96b208c2b819a301f8962bc57f464190761104dcf67c72360f299458152508152508160a00181905250604051806040016040528060405180604001604052807f0ce64300b221e264b50789afbb4ecde52fe7f4334e6aa7ba08e100e1f172e97381526020017f0fdeb333da2803e6581fe19c43dd5ff4e3435df4fb1fb9342768db42abd68ded815250815260200160405180604001604052807f21e3d058af3257c8b2cfc3fe1748d8b4eb1879106b7f41d62df985c4ee4887dc81526020017f0e4621035baba7d516fcea38167aaee5fd46f579f1a51032248ec651018bfad58152508152508160c001819052506003604051908082528060200260200182016040528015613db957816020015b613da6614d32565b815260200190600190039081613d9e5790505b508160e0018190525060405180604001604052807f13c966ebc58d6b834ef606b9a51a3e540d0177fa4439a5986f934ee2632c223e81526020017f106ac57d777338b6c71d36f2b25160037c0b6cbbb93abbf467d2ea6b5cc8a0d58152508160e00151600081518110613e2857fe5b602002602001018190525060405180604001604052807f073508cc87513974b79386b222a1fcb37ee4882b38cd6d717616a8cd7c4f0b4481526020017f2499b923f6b17bbebddc353f926c58a2c29f5c93eff794b5c211eb66084779958152508160e00151600181518110613e9957fe5b602002602001018190525060405180604001604052807f133e18907519e7420261602ef51f53e889cd71321f6ecc218c11c69ac3adb2f981526020017f0a6e14669d1a276c72e2a38db6c7d7a9320a9bfd1f2aebb6a647c466ecf49dad8152508160e00151600281518110613f0a57fe5b602002602001018190525090565b613f20614cec565b613f28614d4c565b836000015181600060038110613f3a57fe5b602002018181525050836020015181600160038110613f5557fe5b6020020181815250508281600260038110613f6c57fe5b6020020181815250506000606083608084600060076107d05a03f190508060008114613f9757613f99565bfe5b5080613fa457600080fd5b505092915050565b613fb4614cec565b613fbc614d6e565b836000015181600060048110613fce57fe5b602002018181525050836020015181600160048110613fe957fe5b60200201818152505082600001518160026004811061400457fe5b60200201818152505082602001518160036004811061401f57fe5b602002018181525050600060608360c084600060066107d05a03f19050806000811461404a5761404c565bfe5b508061405757600080fd5b505092915050565b614067614cec565b60007f30644e72e131a029b85045b68181585d97816a916871ca8d3c208c16d87cfd479050600083600001511480156140a4575060008360200151145b156140c85760405180604001604052806000815260200160008152509150506140f4565b604051806040016040528084600001518152602001828560200151816140ea57fe5b0683038152509150505b919050565b614101614d90565b604051806040016040528060405180604001604052807f198e9393920d483a7260bfb731fb5d25f1aa493335a9e71297e485b7aef312c281526020017f1800deef121f1e76426a00665e5c4479674322d4f75edadd46debd5cd992f6ed815250815260200160405180604001604052807f090689d0585ff075ec9e99ad690c3395bc4b313370b38ef355acdadcd122975b81526020017f12c85ea5db8c6deb4aab71808dcb408fe3d1e7690c43d37b4ce6cc0166fa7daa815250815250905090565b60006060600260405190808252806020026020018201604052801561420257816020015b6141ef614d32565b8152602001906001900390816141e75790505b5090506060600260405190808252806020026020018201604052801561424257816020015b61422f614db6565b8152602001906001900390816142275790505b509050868260008151811061425357fe5b6020026020010181905250848260018151811061426c57fe5b6020026020010181905250858160008151811061428557fe5b6020026020010181905250838160018151811061429e57fe5b60200260200101819052506142b38282614903565b92505050949350505050565b6000606060036040519080825280602002602001820160405280156142fe57816020015b6142eb614d32565b8152602001906001900390816142e35790505b5090506060600360405190808252806020026020018201604052801561433e57816020015b61432b614db6565b8152602001906001900390816143235790505b509050888260008151811061434f57fe5b6020026020010181905250868260018151811061436857fe5b6020026020010181905250848260028151811061438157fe5b6020026020010181905250878160008151811061439a57fe5b602002602001018190525085816001815181106143b357fe5b602002602001018190525083816002815181106143cc57fe5b60200260200101819052506143e18282614903565b925050509695505050505050565b600073ffffffffffffffffffffffffffffffffffffffff166003600083815260200190815260200160002060009054906101000a900473ffffffffffffffffffffffffffffffffffffffff1673ffffffffffffffffffffffffffffffffffffffff16146144aa5760006003600083815260200190815260200160002060006101000a81548173ffffffffffffffffffffffffffffffffffffffff021916908373ffffffffffffffffffffffffffffffffffffffff1602179055505b50565b6144c5600182600001546144e690919063ffffffff16565b816000018190555050565b6001816000016000828254019250508190555050565b6000828211156144f557600080fd5b600082840390508091505092915050565b6060808690506060869050606086905060608690506060869050606081518351855187518951010101016040519080825280601f01601f1916602001820160405280156145625781602001600182028038833980820191505090505b509050606081905060008090506000809050600090505b88518110156146265788818151811061458e57fe5b60200101517f010000000000000000000000000000000000000000000000000000000000000090047f0100000000000000000000000000000000000000000000000000000000000000028383806001019450815181106145ea57fe5b60200101907effffffffffffffffffffffffffffffffffffffffffffffffffffffffffffff1916908160001a9053508080600101915050614579565b600090505b87518110156146d85787818151811061464057fe5b60200101517f010000000000000000000000000000000000000000000000000000000000000090047f01000000000000000000000000000000000000000000000000000000000000000283838060010194508151811061469c57fe5b60200101907effffffffffffffffffffffffffffffffffffffffffffffffffffffffffffff1916908160001a905350808060010191505061462b565b600090505b865181101561478a578681815181106146f257fe5b60200101517f010000000000000000000000000000000000000000000000000000000000000090047f01000000000000000000000000000000000000000000000000000000000000000283838060010194508151811061474e57fe5b60200101907effffffffffffffffffffffffffffffffffffffffffffffffffffffffffffff1916908160001a90535080806001019150506146dd565b600090505b855181101561483c578581815181106147a457fe5b60200101517f010000000000000000000000000000000000000000000000000000000000000090047f01000000000000000000000000000000000000000000000000000000000000000283838060010194508151811061480057fe5b60200101907effffffffffffffffffffffffffffffffffffffffffffffffffffffffffffff1916908160001a905350808060010191505061478f565b600090505b84518110156148ee5784818151811061485657fe5b60200101517f010000000000000000000000000000000000000000000000000000000000000090047f0100000000000000000000000000000000000000000000000000000000000000028383806001019450815181106148b257fe5b60200101907effffffffffffffffffffffffffffffffffffffffffffffffffffffffffffff1916908160001a9053508080600101915050614841565b82995050505050505050505095945050505050565b6000815183511461491357600080fd5b60008351905060006006820290506060816040519080825280602002602001820160405280156149525781602001602082028038833980820191505090505b50905060008090505b83811015614af85786818151811061496f57fe5b60200260200101516000015182600060068402018151811061498d57fe5b6020026020010181815250508681815181106149a557fe5b6020026020010151602001518260016006840201815181106149c357fe5b6020026020010181815250508581815181106149db57fe5b6020026020010151600001516000600281106149f357fe5b6020020151826002600684020181518110614a0a57fe5b602002602001018181525050858181518110614a2257fe5b602002602001015160000151600160028110614a3a57fe5b6020020151826003600684020181518110614a5157fe5b602002602001018181525050858181518110614a6957fe5b602002602001015160200151600060028110614a8157fe5b6020020151826004600684020181518110614a9857fe5b602002602001018181525050858181518110614ab057fe5b602002602001015160200151600160028110614ac857fe5b6020020151826005600684020181518110614adf57fe5b602002602001018181525050808060010191505061495b565b50614b01614ddc565b60006020826020860260208601600060086107d05a03f190508060008114614b2857614b2a565bfe5b5080614b3557600080fd5b600082600060018110614b4457fe5b602002015114159550505050505092915050565b604051806040016040528060008152602001600073ffffffffffffffffffffffffffffffffffffffff1681525090565b604051806102400160405280614b9c614d32565b8152602001614ba9614d32565b8152602001614bb6614db6565b8152602001614bc3614d32565b8152602001614bd0614d32565b8152602001614bdd614d32565b8152602001614bea614d32565b8152602001614bf7614d32565b81525090565b828054600181600116156101000203166002900490600052602060002090601f016020900481019282601f10614c3e57805160ff1916838001178555614c6c565b82800160010185558215614c6c579182015b82811115614c6b578251825591602001919060010190614c50565b5b509050614c799190614dfe565b5090565b604051806103200160405280614c91614db6565b8152602001614c9e614d32565b8152602001614cab614db6565b8152602001614cb8614db6565b8152602001614cc5614d32565b8152602001614cd2614db6565b8152602001614cdf614db6565b8152602001606081525090565b604051806040016040528060008152602001600081525090565b815481835581811115614d2d57818360005260206000209182019101614d2c9190614dfe565b5b505050565b604051806040016040528060008152602001600081525090565b6040518060600160405280600390602082028038833980820191505090505090565b6040518060800160405280600490602082028038833980820191505090505090565b6040518060800160405280614da3614e23565b8152602001614db0614e23565b81525090565b6040518060800160405280614dc9614e23565b8152602001614dd6614e23565b81525090565b6040518060200160405280600190602082028038833980820191505090505090565b614e2091905b80821115614e1c576000816000905550600101614e04565b5090565b90565b604051806040016040528060029060208202803883398082019150509050509056fe46756e6374696f6e206d757374206f6e6c792063616c6c656420627920636f6e7472616374206f776e65722e4163636f756e74206d7573742062656c6f6e6720746f20636f6e7472616374206f776e657253656e646572206d757374206265206f776e6572206f662074686520636f6e7472616374536f6c7574696f6e207468617420616c7265616479206578697374732063616e6e6f742062652061646465642e53656e64696e67206163636f756e74206d757374206e6f7420626520696e76616c69645472616e73616374696f6e207375636365737366756c6c792076657269666965642e4d6574686f642063616e206f6e6c792062652063616c6c65642062792074686520636f6e7472616374206f776e65722e536f6c7574696f6e20646f6573206e6f74206578697374206f7220736f6c7574696f6e20686173206265656e207573656443616e6e6f74207472616e7366657220746f6b656e20746f206f6e6527732073656c66a165627a7a72305820cf03d65aa9bb55641921c077d7cf51c8c3dda71d85ed9b46ff80ebccf7654757002968747470733a2f2f73332d75732d776573742d322e616d617a6f6e6177732e636f6d2f756461636974792d626c6f636b636861696e2f63617073746f6e652f",
  "source": "pragma solidity >=0.4.21 <0.6.0;\n\nimport './ERC721Mintable.sol';\nimport './verifier.sol';\n\n// TODO define another contract named SolnSquareVerifier that inherits from your ERC721Mintable class\ncontract SolnSquareVerifier is ERC721MintableComplete, Verifier {\n\n    VerifierInterface verifierInterface;\n    uint256 currentIndex;\n\n    constructor(address verifierAddress, string memory name, string memory symbol) ERC721MintableComplete(name, symbol) public {         \n        verifierInterface = VerifierInterface(verifierAddress);   \n        currentIndex = 0;     \n    }\n\n    // TODO define a solutions struct that can hold an index & an address\n    struct Solution {\n        uint256 index;\n        address solAddress;\n    }\n\n    //enumerator to track state of solution\n    enum SolutionState { Unverfied, Verified, Used }\n\n    // TODO define a mapping to store unique solutions submitted\n    mapping(bytes32 => SolutionState) private acceptedSolutions;\n\n    // TODO Create an event to emit when a solution is added\n    event SolutionAdded(address indexed solAddress, uint256 indexed index);\n\n    modifier verifiedSolutionNotUsed(uint a, uint b) {\n        bytes32 hasedResult = hashSolution(a,b);\n        require(acceptedSolutions[hasedResult] == SolutionState.Verified, \"Solution does not exist or solution has been used\");\n        _;\n    }\n\n    modifier solutionDoesNotExists(uint a, uint b) {\n        bytes32 hasedResult = hashSolution(a,b);\n        require(acceptedSolutions[hasedResult] != SolutionState.Verified, \"Solution that already exists cannot be added.\");\n        _;\n    }\n\n    // TODO Create a function to add the solutions to the array and emit the event\n    function addSolution(\n            uint[2] memory a,\n            uint[2] memory a_p,\n            uint[2][2] memory b,\n            uint[2] memory b_p,\n            uint[2] memory c,\n            uint[2] memory c_p,\n            uint[2] memory h,\n            uint[2] memory k,\n            uint[2] memory input\n        ) public solutionDoesNotExists(input[0],input[1]) returns (bool r)\n        {\n            //r = verifierInterface.verifyTx(a,a_p,b,b_p,c,c_p,h,k,input);\n            // r = verifierInterface.test();\n            // if (r) {\n            //     // Solution memory newSolution = Solution(index,solAddress);\n            //     // emit SolutionAdded(solAddress,index);\n            //     // currentIndex.add(1);\n            // }         \n            \n            r = verifyTx(a,a_p,b,b_p,c,c_p,h,k,input);\n            if (r) {\n                Solution memory newSolution = Solution(currentIndex,msg.sender);\n                emit SolutionAdded(msg.sender,currentIndex);                \n                bytes32 hashResult = hashSolution(input[0],input[1]);\n                acceptedSolutions[hashResult] = SolutionState.Verified;\n            }\n        }\n    \n\n    // TODO Create a function to mint new NFT only after the solution has been verified\n    //  - make sure the solution is unique (has not been used before)\n    //  - make sure you handle metadata as well as tokenSupply\n    //function mintNewToken (address to, uint256 tokenId) public returns(bool success) {\n\n    //TODO:need to satisfy new solution\n    function mintNewToken (uint[2] memory input, address to) verifiedSolutionNotUsed(input[0],input[1]) public returns (bool r) {\n        r = mint(to,currentIndex);\n        bytes32 hashResult = hashSolution(input[0],input[1]);\n        acceptedSolutions[hashResult] = SolutionState.Used;\n        currentIndex.add(1);\n        return true;\n    }\n\n    function hashSolution(uint a, uint b) private returns(bytes32 hashedSolution) {\n        hashedSolution = keccak256(abi.encodePacked(a+b, a*b));\n    }   \n}\n\n// TODO define a contract call to the zokrates generated solidity contract <Verifier> or <renamedVerifier>\n\n//Data Interface\ncontract VerifierInterface //is Verifier  \n{\n    function verifyTx(\n            uint[2] memory a,\n            uint[2] memory a_p,\n            uint[2][2] memory b,\n            uint[2] memory b_p,\n            uint[2] memory c,\n            uint[2] memory c_p,\n            uint[2] memory h,\n            uint[2] memory k,\n            uint[2] memory input\n        ) public returns (bool r) \n        {\n            r = true;\n            // r = verifyTx(\n            //     a,\n            //     a_p,\n            //     b,\n            //     b_p,\n            //     c,\n            //     c_p,\n            //     h,\n            //     k,\n            //     input\n            // );\n        }\n\n    function test() public returns(bool) {\n        return true;\n    }\n}\n\n// contract SquareVerifier {\n//     function verifyTxTEST(\n//         uint[2] memory a,\n//         uint[2] memory a_p,\n//         uint[2][2] memory b,\n//         uint[2] memory b_p,\n//         uint[2] memory c,\n//         uint[2] memory c_p,\n//         uint[2] memory h,\n//         uint[2] memory k,\n//         uint[2] memory input\n//     ) public returns (bool r) \n//     {\n//         //r = true;\n//         r = verifyTx(\n//             a,\n//             a_p,\n//             b,\n//             b_p,\n//             c,\n//             c_p,\n//             h,\n//             k,\n//             input\n//         );\n//     }\n// }\n\n\n\n\n\n\n\n\n\n\n\n\n\n\n\n\n\n\n\n\n\n",
  "sourcePath": "/Users/joeyberger/Desktop/Udacity/Blockchain Nanodegree/GitHub Repos/Real-Estate-Token/eth-contracts/contracts/SolnSquareVerifier.sol",
  "compiler": {
    "name": "solc",
    "version": "0.5.7+commit.6da8b019.Emscripten.clang"
  },
  "schemaVersion": "3.0.2",
  "updatedAt": "2019-04-12T04:28:12.366Z",
  "devdoc": {
    "methods": {
      "isApprovedForAll(address,address)": {
        "details": "Tells whether an operator is approved by a given owner",
        "params": {
          "operator": "operator address which you want to query the approval of",
          "owner": "owner address which you want to query the approval of"
        },
        "return": "bool whether the given operator is approved by the given owner"
      },
      "setApprovalForAll(address,bool)": {
        "details": "Sets or unsets the approval of a given operator An operator is allowed to transfer all tokens of the sender on their behalf",
        "params": {
          "approved": "representing the status of the approval to be set",
          "to": "operator address to set the approval"
        }
      },
      "supportsInterface(bytes4)": {
        "details": "implement supportsInterface(bytes4) using a lookup table"
      },
      "tokenByIndex(uint256)": {
        "details": "Gets the token ID at a given index of all the tokens in this contract Reverts if the index is greater or equal to the total number of tokens",
        "params": {
          "index": "uint256 representing the index to be accessed of the tokens list"
        },
        "return": "uint256 token ID at the given index of the tokens list"
      },
      "tokenOfOwnerByIndex(address,uint256)": {
        "details": "Gets the token ID at a given index of the tokens list of the requested owner",
        "params": {
          "index": "uint256 representing the index to be accessed of the requested tokens list",
          "owner": "address owning the tokens list to be accessed"
        },
        "return": "uint256 token ID at the given index of the tokens list owned by the requested address"
      },
      "totalSupply()": {
        "details": "Gets the total amount of tokens stored by the contract",
        "return": "uint256 representing the total amount of tokens"
      }
    }
  },
  "userdoc": {
    "methods": {}
  }
}