{
  "contractName": "SolnSquareVerifier",
  "abi": [
    {
      "constant": true,
      "inputs": [
        {
          "name": "interfaceId",
          "type": "bytes4"
        }
      ],
      "name": "supportsInterface",
      "outputs": [
        {
          "name": "",
          "type": "bool"
        }
      ],
      "payable": false,
      "stateMutability": "view",
      "type": "function"
    },
    {
      "constant": true,
      "inputs": [],
      "name": "name",
      "outputs": [
        {
          "name": "",
          "type": "string"
        }
      ],
      "payable": false,
      "stateMutability": "view",
      "type": "function"
    },
    {
      "constant": true,
      "inputs": [
        {
          "name": "tokenId",
          "type": "uint256"
        }
      ],
      "name": "getApproved",
      "outputs": [
        {
          "name": "",
          "type": "address"
        }
      ],
      "payable": false,
      "stateMutability": "view",
      "type": "function"
    },
    {
      "constant": false,
      "inputs": [
        {
          "name": "to",
          "type": "address"
        },
        {
          "name": "tokenId",
          "type": "uint256"
        }
      ],
      "name": "approve",
      "outputs": [],
      "payable": false,
      "stateMutability": "nonpayable",
      "type": "function"
    },
    {
      "constant": true,
      "inputs": [],
      "name": "totalSupply",
      "outputs": [
        {
          "name": "",
          "type": "uint256"
        }
      ],
      "payable": false,
      "stateMutability": "view",
      "type": "function"
    },
    {
      "constant": false,
      "inputs": [
        {
          "name": "from",
          "type": "address"
        },
        {
          "name": "to",
          "type": "address"
        },
        {
          "name": "tokenId",
          "type": "uint256"
        }
      ],
      "name": "transferFrom",
      "outputs": [],
      "payable": false,
      "stateMutability": "nonpayable",
      "type": "function"
    },
    {
      "constant": false,
      "inputs": [
        {
          "name": "_myid",
          "type": "bytes32"
        },
        {
          "name": "_result",
          "type": "string"
        }
      ],
      "name": "__callback",
      "outputs": [],
      "payable": false,
      "stateMutability": "nonpayable",
      "type": "function"
    },
    {
      "constant": true,
      "inputs": [
        {
          "name": "owner",
          "type": "address"
        },
        {
          "name": "index",
          "type": "uint256"
        }
      ],
      "name": "tokenOfOwnerByIndex",
      "outputs": [
        {
          "name": "",
          "type": "uint256"
        }
      ],
      "payable": false,
      "stateMutability": "view",
      "type": "function"
    },
    {
      "constant": false,
      "inputs": [
        {
          "name": "_myid",
          "type": "bytes32"
        },
        {
          "name": "_result",
          "type": "string"
        },
        {
          "name": "_proof",
          "type": "bytes"
        }
      ],
      "name": "__callback",
      "outputs": [],
      "payable": false,
      "stateMutability": "nonpayable",
      "type": "function"
    },
    {
      "constant": false,
      "inputs": [
        {
          "name": "to",
          "type": "address"
        },
        {
          "name": "tokenId",
          "type": "uint256"
        }
      ],
      "name": "mint",
      "outputs": [
        {
          "name": "success",
          "type": "bool"
        }
      ],
      "payable": false,
      "stateMutability": "nonpayable",
      "type": "function"
    },
    {
      "constant": true,
      "inputs": [
        {
          "name": "index",
          "type": "uint256"
        }
      ],
      "name": "tokenByIndex",
      "outputs": [
        {
          "name": "",
          "type": "uint256"
        }
      ],
      "payable": false,
      "stateMutability": "view",
      "type": "function"
    },
    {
      "constant": true,
      "inputs": [
        {
          "name": "tokenId",
          "type": "uint256"
        }
      ],
      "name": "ownerOf",
      "outputs": [
        {
          "name": "",
          "type": "address"
        }
      ],
      "payable": false,
      "stateMutability": "view",
      "type": "function"
    },
    {
      "constant": true,
      "inputs": [],
      "name": "returnContractOwner",
      "outputs": [
        {
          "name": "",
          "type": "address"
        }
      ],
      "payable": false,
      "stateMutability": "view",
      "type": "function"
    },
    {
      "constant": true,
      "inputs": [
        {
          "name": "owner",
          "type": "address"
        }
      ],
      "name": "balanceOf",
      "outputs": [
        {
          "name": "",
          "type": "uint256"
        }
      ],
      "payable": false,
      "stateMutability": "view",
      "type": "function"
    },
    {
      "constant": true,
      "inputs": [],
      "name": "owner",
      "outputs": [
        {
          "name": "",
          "type": "address"
        }
      ],
      "payable": false,
      "stateMutability": "view",
      "type": "function"
    },
    {
      "constant": true,
      "inputs": [],
      "name": "symbol",
      "outputs": [
        {
          "name": "",
          "type": "string"
        }
      ],
      "payable": false,
      "stateMutability": "view",
      "type": "function"
    },
    {
      "constant": false,
      "inputs": [
        {
          "name": "to",
          "type": "address"
        },
        {
          "name": "approved",
          "type": "bool"
        }
      ],
      "name": "setApprovalForAll",
      "outputs": [],
      "payable": false,
      "stateMutability": "nonpayable",
      "type": "function"
    },
    {
      "constant": false,
      "inputs": [
        {
          "name": "from",
          "type": "address"
        },
        {
          "name": "to",
          "type": "address"
        },
        {
          "name": "tokenId",
          "type": "uint256"
        },
        {
          "name": "_data",
          "type": "bytes"
        }
      ],
      "name": "safeTransferFrom",
      "outputs": [],
      "payable": false,
      "stateMutability": "nonpayable",
      "type": "function"
    },
    {
      "constant": true,
      "inputs": [
        {
          "name": "tokenId",
          "type": "uint256"
        }
      ],
      "name": "tokenURI",
      "outputs": [
        {
          "name": "",
          "type": "string"
        }
      ],
      "payable": false,
      "stateMutability": "view",
      "type": "function"
    },
    {
      "constant": false,
      "inputs": [
        {
          "name": "ipaused",
          "type": "bool"
        }
      ],
      "name": "setPauseState",
      "outputs": [],
      "payable": false,
      "stateMutability": "nonpayable",
      "type": "function"
    },
    {
      "constant": true,
      "inputs": [],
      "name": "baseTokenURI",
      "outputs": [
        {
          "name": "",
          "type": "string"
        }
      ],
      "payable": false,
      "stateMutability": "view",
      "type": "function"
    },
    {
      "constant": true,
      "inputs": [
        {
          "name": "owner",
          "type": "address"
        },
        {
          "name": "operator",
          "type": "address"
        }
      ],
      "name": "isApprovedForAll",
      "outputs": [
        {
          "name": "",
          "type": "bool"
        }
      ],
      "payable": false,
      "stateMutability": "view",
      "type": "function"
    },
    {
      "constant": false,
      "inputs": [
        {
          "name": "newOwner",
          "type": "address"
        }
      ],
      "name": "transferOwnership",
      "outputs": [],
      "payable": false,
      "stateMutability": "nonpayable",
      "type": "function"
    },
    {
      "constant": false,
      "inputs": [
        {
          "name": "a",
          "type": "uint256[2]"
        },
        {
          "name": "a_p",
          "type": "uint256[2]"
        },
        {
          "name": "b",
          "type": "uint256[2][2]"
        },
        {
          "name": "b_p",
          "type": "uint256[2]"
        },
        {
          "name": "c",
          "type": "uint256[2]"
        },
        {
          "name": "c_p",
          "type": "uint256[2]"
        },
        {
          "name": "h",
          "type": "uint256[2]"
        },
        {
          "name": "k",
          "type": "uint256[2]"
        },
        {
          "name": "input",
          "type": "uint256[2]"
        }
      ],
      "name": "verifyTx",
      "outputs": [
        {
          "name": "r",
          "type": "bool"
        }
      ],
      "payable": false,
      "stateMutability": "nonpayable",
      "type": "function"
    },
    {
      "inputs": [
        {
          "name": "name",
          "type": "string"
        },
        {
          "name": "symbol",
          "type": "string"
        }
      ],
      "payable": false,
      "stateMutability": "nonpayable",
      "type": "constructor"
    },
    {
      "anonymous": false,
      "inputs": [
        {
          "indexed": true,
          "name": "solAddress",
          "type": "address"
        },
        {
          "indexed": true,
          "name": "index",
          "type": "uint256"
        }
      ],
      "name": "SolutionAdded",
      "type": "event"
    },
    {
      "anonymous": false,
      "inputs": [
        {
          "indexed": false,
          "name": "s",
          "type": "string"
        }
      ],
      "name": "Verified",
      "type": "event"
    },
    {
      "anonymous": false,
      "inputs": [
        {
          "indexed": true,
          "name": "from",
          "type": "address"
        },
        {
          "indexed": true,
          "name": "to",
          "type": "address"
        },
        {
          "indexed": true,
          "name": "tokenId",
          "type": "uint256"
        }
      ],
      "name": "Transfer",
      "type": "event"
    },
    {
      "anonymous": false,
      "inputs": [
        {
          "indexed": true,
          "name": "owner",
          "type": "address"
        },
        {
          "indexed": true,
          "name": "approved",
          "type": "address"
        },
        {
          "indexed": true,
          "name": "tokenId",
          "type": "uint256"
        }
      ],
      "name": "Approval",
      "type": "event"
    },
    {
      "anonymous": false,
      "inputs": [
        {
          "indexed": true,
          "name": "owner",
          "type": "address"
        },
        {
          "indexed": true,
          "name": "operator",
          "type": "address"
        },
        {
          "indexed": false,
          "name": "approved",
          "type": "bool"
        }
      ],
      "name": "ApprovalForAll",
      "type": "event"
    },
    {
      "anonymous": false,
      "inputs": [
        {
          "indexed": false,
          "name": "callingAddress",
          "type": "address"
        }
      ],
      "name": "Paused",
      "type": "event"
    },
    {
      "anonymous": false,
      "inputs": [
        {
          "indexed": false,
          "name": "callingAddress",
          "type": "address"
        }
      ],
      "name": "Unpaused",
      "type": "event"
    },
    {
      "anonymous": false,
      "inputs": [
        {
          "indexed": false,
          "name": "newOwner",
          "type": "address"
        }
      ],
      "name": "OwnershipTransfered",
      "type": "event"
    },
    {
      "constant": false,
      "inputs": [
        {
          "name": "a",
          "type": "uint256[2]"
        },
        {
          "name": "a_p",
          "type": "uint256[2]"
        },
        {
          "name": "b",
          "type": "uint256[2][2]"
        },
        {
          "name": "b_p",
          "type": "uint256[2]"
        },
        {
          "name": "c",
          "type": "uint256[2]"
        },
        {
          "name": "c_p",
          "type": "uint256[2]"
        },
        {
          "name": "h",
          "type": "uint256[2]"
        },
        {
          "name": "k",
          "type": "uint256[2]"
        },
        {
          "name": "input",
          "type": "uint256[2]"
        }
      ],
      "name": "addSolution",
      "outputs": [
        {
          "name": "r",
          "type": "bool"
        }
      ],
      "payable": false,
      "stateMutability": "nonpayable",
      "type": "function"
    },
    {
      "constant": false,
      "inputs": [
        {
          "name": "input",
          "type": "uint256[2]"
        },
        {
          "name": "to",
          "type": "address"
        }
      ],
      "name": "mintNewToken",
      "outputs": [
        {
          "name": "r",
          "type": "bool"
        }
      ],
      "payable": false,
      "stateMutability": "nonpayable",
      "type": "function"
    }
  ],
  "bytecode": "0x60806040523480156200001157600080fd5b506040516200543738038062005437833981018060405260408110156200003757600080fd5b8101908080516401000000008111156200005057600080fd5b828101905060208101848111156200006757600080fd5b81518560018202830111640100000000821117156200008557600080fd5b50509291906020018051640100000000811115620000a257600080fd5b82810190506020810184811115620000b957600080fd5b8151856001820283011164010000000082111715620000d757600080fd5b5050929190505050818181816040518060600160405280603f8152602001620053f8603f9139336000806101000a81548173ffffffffffffffffffffffffffffffffffffffff021916908373ffffffffffffffffffffffffffffffffffffffff1602179055507f9736aeb40a8f30a5c076a9897428fdf7ec0e909c96dce63533664c9b5c835da66000809054906101000a900473ffffffffffffffffffffffffffffffffffffffff16604051808273ffffffffffffffffffffffffffffffffffffffff1673ffffffffffffffffffffffffffffffffffffffff16815260200191505060405180910390a160008060146101000a81548160ff021916908315150217905550620002186301ffc9a77c01000000000000000000000000000000000000000000000000000000000262000333640100000000026401000000009004565b620002556380ac58cd7c01000000000000000000000000000000000000000000000000000000000262000333640100000000026401000000009004565b6200029263780e9d637c01000000000000000000000000000000000000000000000000000000000262000333640100000000026401000000009004565b82600f9080519060200190620002aa929190620003ef565b508160109080519060200190620002c3929190620003ef565b508060119080519060200190620002dc929190620003ef565b5050505033601360006101000a81548173ffffffffffffffffffffffffffffffffffffffff021916908373ffffffffffffffffffffffffffffffffffffffff1602179055505050600060148190555050506200049e565b63ffffffff7c010000000000000000000000000000000000000000000000000000000002817bffffffffffffffffffffffffffffffffffffffffffffffffffffffff191614156200038357600080fd5b6001806000837bffffffffffffffffffffffffffffffffffffffffffffffffffffffff19167bffffffffffffffffffffffffffffffffffffffffffffffffffffffff1916815260200190815260200160002060006101000a81548160ff02191690831515021790555050565b828054600181600116156101000203166002900490600052602060002090601f016020900481019282601f106200043257805160ff191683800117855562000463565b8280016001018555821562000463579182015b828111156200046257825182559160200191906001019062000445565b5b50905062000472919062000476565b5090565b6200049b91905b80821115620004975760008160009055506001016200047d565b5090565b90565b614f4a80620004ae6000396000f3fe608060405234801561001057600080fd5b50600436106101ab576000357c0100000000000000000000000000000000000000000000000000000000900480636352211e116100fb578063b88d4fde116100b4578063d547cfb71161008e578063d547cfb714610e6f578063e985e9c514610ef2578063f2fde38b14610f6e578063fe01ff6214610fb2576101ab565b8063b88d4fde14610c93578063c87b56dd14610d98578063cdb88ad114610e3f576101ab565b80636352211e14610a665780637035fbff14610ad457806370a0823114610b1e5780638da5cb5b14610b7657806395d89b4114610bc0578063a22cb46514610c43576101ab565b806327dc297e1161016857806338bbfa501161014257806338bbfa50146105a457806340c10f19146107005780634f6ccce7146107665780635a50ec51146107a8576101ab565b806327dc297e146103e05780632d21947e146104a55780632f745c5914610542576101ab565b806301ffc9a7146101b057806306fdde0314610215578063081812fc14610298578063095ea7b31461030657806318160ddd1461035457806323b872dd14610372575b600080fd5b6101fb600480360360208110156101c657600080fd5b8101908080357bffffffffffffffffffffffffffffffffffffffffffffffffffffffff19169060200190929190505050611270565b604051808215151515815260200191505060405180910390f35b61021d6112d8565b6040518080602001828103825283818151815260200191508051906020019080838360005b8381101561025d578082015181840152602081019050610242565b50505050905090810190601f16801561028a5780820380516001836020036101000a031916815260200191505b509250505060405180910390f35b6102c4600480360360208110156102ae57600080fd5b810190808035906020019092919050505061137a565b604051808273ffffffffffffffffffffffffffffffffffffffff1673ffffffffffffffffffffffffffffffffffffffff16815260200191505060405180910390f35b6103526004803603604081101561031c57600080fd5b81019080803573ffffffffffffffffffffffffffffffffffffffff169060200190929190803590602001909291905050506113c9565b005b61035c611556565b6040518082815260200191505060405180910390f35b6103de6004803603606081101561038857600080fd5b81019080803573ffffffffffffffffffffffffffffffffffffffff169060200190929190803573ffffffffffffffffffffffffffffffffffffffff16906020019092919080359060200190929190505050611563565b005b6104a3600480360360408110156103f657600080fd5b81019080803590602001909291908035906020019064010000000081111561041d57600080fd5b82018360208201111561042f57600080fd5b8035906020019184600183028401116401000000008311171561045157600080fd5b91908080601f016020809104026020016040519081016040528093929190818152602001838380828437600081840152601f19601f820116905080830192505050505050509192919290505050611586565b005b610528600480360360608110156104bb57600080fd5b8101908080604001906002806020026040519081016040528092919082600260200280828437600081840152601f19601f8201169050808301925050505050509192919290803573ffffffffffffffffffffffffffffffffffffffff1690602001909291905050506115c9565b604051808215151515815260200191505060405180910390f35b61058e6004803603604081101561055857600080fd5b81019080803573ffffffffffffffffffffffffffffffffffffffff16906020019092919080359060200190929190505050611723565b6040518082815260200191505060405180910390f35b6106fe600480360360608110156105ba57600080fd5b8101908080359060200190929190803590602001906401000000008111156105e157600080fd5b8201836020820111156105f357600080fd5b8035906020019184600183028401116401000000008311171561061557600080fd5b91908080601f016020809104026020016040519081016040528093929190818152602001838380828437600081840152601f19601f8201169050808301925050505050505091929192908035906020019064010000000081111561067857600080fd5b82018360208201111561068a57600080fd5b803590602001918460018302840111640100000000831117156106ac57600080fd5b91908080601f016020809104026020016040519081016040528093929190818152602001838380828437600081840152601f19601f820116905080830192505050505050509192919290505050611796565b005b61074c6004803603604081101561071657600080fd5b81019080803573ffffffffffffffffffffffffffffffffffffffff1690602001909291908035906020019092919050505061179b565b604051808215151515815260200191505060405180910390f35b6107926004803603602081101561077c57600080fd5b8101908080359060200190929190505050611863565b6040518082815260200191505060405180910390f35b610a4c60048036036102808110156107bf57600080fd5b8101908080604001906002806020026040519081016040528092919082600260200280828437600081840152601f19601f820116905080830192505050505050919291929080604001906002806020026040519081016040528092919082600260200280828437600081840152601f19601f82011690508083019250505050505091929192908060800190600280602002604051908101604052809291906000905b828210156108b5578382604002016002806020026040519081016040528092919082600260200280828437600081840152601f19601f82011690508083019250505050505081526020019060010190610861565b50505050919291929080604001906002806020026040519081016040528092919082600260200280828437600081840152601f19601f820116905080830192505050505050919291929080604001906002806020026040519081016040528092919082600260200280828437600081840152601f19601f820116905080830192505050505050919291929080604001906002806020026040519081016040528092919082600260200280828437600081840152601f19601f820116905080830192505050505050919291929080604001906002806020026040519081016040528092919082600260200280828437600081840152601f19601f820116905080830192505050505050919291929080604001906002806020026040519081016040528092919082600260200280828437600081840152601f19601f820116905080830192505050505050919291929080604001906002806020026040519081016040528092919082600260200280828437600081840152601f19601f8201169050808301925050505050509192919290505050611897565b604051808215151515815260200191505060405180910390f35b610a9260048036036020811015610a7c57600080fd5b8101908080359060200190929190505050611ad3565b604051808273ffffffffffffffffffffffffffffffffffffffff1673ffffffffffffffffffffffffffffffffffffffff16815260200191505060405180910390f35b610adc611b4f565b604051808273ffffffffffffffffffffffffffffffffffffffff1673ffffffffffffffffffffffffffffffffffffffff16815260200191505060405180910390f35b610b6060048036036020811015610b3457600080fd5b81019080803573ffffffffffffffffffffffffffffffffffffffff169060200190929190505050611c1f565b6040518082815260200191505060405180910390f35b610b7e611ca8565b604051808273ffffffffffffffffffffffffffffffffffffffff1673ffffffffffffffffffffffffffffffffffffffff16815260200191505060405180910390f35b610bc8611cd1565b6040518080602001828103825283818151815260200191508051906020019080838360005b83811015610c08578082015181840152602081019050610bed565b50505050905090810190601f168015610c355780820380516001836020036101000a031916815260200191505b509250505060405180910390f35b610c9160048036036040811015610c5957600080fd5b81019080803573ffffffffffffffffffffffffffffffffffffffff169060200190929190803515159060200190929190505050611d73565b005b610d9660048036036080811015610ca957600080fd5b81019080803573ffffffffffffffffffffffffffffffffffffffff169060200190929190803573ffffffffffffffffffffffffffffffffffffffff1690602001909291908035906020019092919080359060200190640100000000811115610d1057600080fd5b820183602082011115610d2257600080fd5b80359060200191846001830284011164010000000083111715610d4457600080fd5b91908080601f016020809104026020016040519081016040528093929190818152602001838380828437600081840152601f19601f820116905080830192505050505050509192919290505050611ead565b005b610dc460048036036020811015610dae57600080fd5b8101908080359060200190929190505050611ed3565b6040518080602001828103825283818151815260200191508051906020019080838360005b83811015610e04578082015181840152602081019050610de9565b50505050905090810190601f168015610e315780820380516001836020036101000a031916815260200191505b509250505060405180910390f35b610e6d60048036036020811015610e5557600080fd5b81019080803515159060200190929190505050611f9a565b005b610e7761212e565b6040518080602001828103825283818151815260200191508051906020019080838360005b83811015610eb7578082015181840152602081019050610e9c565b50505050905090810190601f168015610ee45780820380516001836020036101000a031916815260200191505b509250505060405180910390f35b610f5460048036036040811015610f0857600080fd5b81019080803573ffffffffffffffffffffffffffffffffffffffff169060200190929190803573ffffffffffffffffffffffffffffffffffffffff1690602001909291905050506121d0565b604051808215151515815260200191505060405180910390f35b610fb060048036036020811015610f8457600080fd5b81019080803573ffffffffffffffffffffffffffffffffffffffff169060200190929190505050612264565b005b6112566004803603610280811015610fc957600080fd5b8101908080604001906002806020026040519081016040528092919082600260200280828437600081840152601f19601f820116905080830192505050505050919291929080604001906002806020026040519081016040528092919082600260200280828437600081840152601f19601f82011690508083019250505050505091929192908060800190600280602002604051908101604052809291906000905b828210156110bf578382604002016002806020026040519081016040528092919082600260200280828437600081840152601f19601f8201169050808301925050505050508152602001906001019061106b565b50505050919291929080604001906002806020026040519081016040528092919082600260200280828437600081840152601f19601f820116905080830192505050505050919291929080604001906002806020026040519081016040528092919082600260200280828437600081840152601f19601f820116905080830192505050505050919291929080604001906002806020026040519081016040528092919082600260200280828437600081840152601f19601f820116905080830192505050505050919291929080604001906002806020026040519081016040528092919082600260200280828437600081840152601f19601f820116905080830192505050505050919291929080604001906002806020026040519081016040528092919082600260200280828437600081840152601f19601f820116905080830192505050505050919291929080604001906002806020026040519081016040528092919082600260200280828437600081840152601f19601f82011690508083019250505050505091929192905050506123d4565b604051808215151515815260200191505060405180910390f35b600060016000837bffffffffffffffffffffffffffffffffffffffffffffffffffffffff19167bffffffffffffffffffffffffffffffffffffffffffffffffffffffff1916815260200190815260200160002060009054906101000a900460ff169050919050565b6060600f8054600181600116156101000203166002900480601f0160208091040260200160405190810160405280929190818152602001828054600181600116156101000203166002900480156113705780601f1061134557610100808354040283529160200191611370565b820191906000526020600020905b81548152906001019060200180831161135357829003601f168201915b5050505050905090565b60006113858261275b565b61138e57600080fd5b6003600083815260200190815260200160002060009054906101000a900473ffffffffffffffffffffffffffffffffffffffff169050919050565b60006113d482611ad3565b90508073ffffffffffffffffffffffffffffffffffffffff168373ffffffffffffffffffffffffffffffffffffffff16141561140f57600080fd5b8073ffffffffffffffffffffffffffffffffffffffff163373ffffffffffffffffffffffffffffffffffffffff16148061144f575061144e81336121d0565b5b6114a4576040517f08c379a0000000000000000000000000000000000000000000000000000000008152600401808060200182810382526024815260200180614e286024913960400191505060405180910390fd5b826003600084815260200190815260200160002060006101000a81548173ffffffffffffffffffffffffffffffffffffffff021916908373ffffffffffffffffffffffffffffffffffffffff160217905550818373ffffffffffffffffffffffffffffffffffffffff168273ffffffffffffffffffffffffffffffffffffffff167f8c5be1e5ebec7d5bd14f71427d1e84f3dd0314c0f7b2291e5b200ac8c7c3b92560405160405180910390a4505050565b6000600880549050905090565b61156d33826127cd565b61157657600080fd5b611581838383612862565b505050565b6115c5828260006040519080825280601f01601f1916602001820160405280156115bf5781602001600182028038833980820191505090505b50611796565b5050565b6000826000600281106115d857fe5b6020020151836001600281106115ea57fe5b602002015160006115fb8383612886565b90506001600281111561160a57fe5b6016600083815260200190815260200160002060009054906101000a900460ff16600281111561163657fe5b1461168c576040517f08c379a0000000000000000000000000000000000000000000000000000000008152600401808060200182810382526031815260200180614eee6031913960400191505060405180910390fd5b6116988560145461179b565b935060006116c8876000600281106116ac57fe5b6020020151886001600281106116be57fe5b6020020151612886565b905060026016600083815260200190815260200160002060006101000a81548160ff021916908360028111156116fa57fe5b021790555061171560016014546128c390919063ffffffff16565b508494505050505092915050565b600061172e83611c1f565b821061173957600080fd5b600660008473ffffffffffffffffffffffffffffffffffffffff1673ffffffffffffffffffffffffffffffffffffffff168152602001908152602001600020828154811061178357fe5b9060005260206000200154905092915050565b505050565b6000809050601360009054906101000a900473ffffffffffffffffffffffffffffffffffffffff1673ffffffffffffffffffffffffffffffffffffffff163373ffffffffffffffffffffffffffffffffffffffff1614611846576040517f08c379a0000000000000000000000000000000000000000000000000000000008152600401808060200182810382526030815260200180614ebe6030913960400191505060405180910390fd5b61185083836128e2565b61185982612903565b6001905092915050565b600061186d611556565b821061187857600080fd5b6008828154811061188557fe5b90600052602060002001549050919050565b6000816000600281106118a657fe5b6020020151826001600281106118b857fe5b602002015160006118c98383612886565b9050600160028111156118d857fe5b6016600083815260200190815260200160002060009054906101000a900460ff16600281111561190457fe5b141561195b576040517f08c379a000000000000000000000000000000000000000000000000000000000815260040180806020018281038252602d815260200180614e4c602d913960400191505060405180910390fd5b61196c8d8d8d8d8d8d8d8d8d6123d4565b93508315611ac35761197c614ae9565b604051806040016040528060145481526020013373ffffffffffffffffffffffffffffffffffffffff168152509050806015600060145481526020019081526020016000206000820151816000015560208201518160010160006101000a81548173ffffffffffffffffffffffffffffffffffffffff021916908373ffffffffffffffffffffffffffffffffffffffff1602179055509050506014543373ffffffffffffffffffffffffffffffffffffffff167f3a01cc868bdb36c1d9b8a262a8ad25064b23ac175b3f8e4453f1daf8ff6bac0d60405160405180910390a36000611a8987600060028110611a6d57fe5b602002015188600160028110611a7f57fe5b6020020151612886565b905060016016600083815260200190815260200160002060006101000a81548160ff02191690836002811115611abb57fe5b021790555050505b5050509998505050505050505050565b6000806002600084815260200190815260200160002060009054906101000a900473ffffffffffffffffffffffffffffffffffffffff169050600073ffffffffffffffffffffffffffffffffffffffff168173ffffffffffffffffffffffffffffffffffffffff161415611b4657600080fd5b80915050919050565b6000601360009054906101000a900473ffffffffffffffffffffffffffffffffffffffff1673ffffffffffffffffffffffffffffffffffffffff163373ffffffffffffffffffffffffffffffffffffffff1614611bf7576040517f08c379a000000000000000000000000000000000000000000000000000000000815260040180806020018281038252602c815260200180614dd7602c913960400191505060405180910390fd5b601360009054906101000a900473ffffffffffffffffffffffffffffffffffffffff16905090565b60008073ffffffffffffffffffffffffffffffffffffffff168273ffffffffffffffffffffffffffffffffffffffff161415611c5a57600080fd5b611ca1600460008473ffffffffffffffffffffffffffffffffffffffff1673ffffffffffffffffffffffffffffffffffffffff1681526020019081526020016000206129eb565b9050919050565b60008060009054906101000a900473ffffffffffffffffffffffffffffffffffffffff16905090565b606060108054600181600116156101000203166002900480601f016020809104026020016040519081016040528092919081815260200182805460018160011615610100020316600290048015611d695780601f10611d3e57610100808354040283529160200191611d69565b820191906000526020600020905b815481529060010190602001808311611d4c57829003601f168201915b5050505050905090565b3373ffffffffffffffffffffffffffffffffffffffff168273ffffffffffffffffffffffffffffffffffffffff161415611dac57600080fd5b80600560003373ffffffffffffffffffffffffffffffffffffffff1673ffffffffffffffffffffffffffffffffffffffff16815260200190815260200160002060008473ffffffffffffffffffffffffffffffffffffffff1673ffffffffffffffffffffffffffffffffffffffff16815260200190815260200160002060006101000a81548160ff0219169083151502179055508173ffffffffffffffffffffffffffffffffffffffff163373ffffffffffffffffffffffffffffffffffffffff167f17307eab39ab6107e8899845ad3d59bd9653f200f220920489ca2b5937696c3183604051808215151515815260200191505060405180910390a35050565b611eb8848484611563565b611ec4848484846129f9565b611ecd57600080fd5b50505050565b6060611ede8261275b565b611ee757600080fd5b601260008381526020019081526020016000208054600181600116156101000203166002900480601f016020809104026020016040519081016040528092919081815260200182805460018160011615610100020316600290048015611f8e5780601f10611f6357610100808354040283529160200191611f8e565b820191906000526020600020905b815481529060010190602001808311611f7157829003601f168201915b50505050509050919050565b6000809054906101000a900473ffffffffffffffffffffffffffffffffffffffff1673ffffffffffffffffffffffffffffffffffffffff163373ffffffffffffffffffffffffffffffffffffffff161461203f576040517f08c379a0000000000000000000000000000000000000000000000000000000008152600401808060200182810382526025815260200180614e036025913960400191505060405180910390fd5b80156120ad577f62e78cea01bee320cd4e420270b5ea74000d11b0c9f74754ebdbfc544b05a25833604051808273ffffffffffffffffffffffffffffffffffffffff1673ffffffffffffffffffffffffffffffffffffffff16815260200191505060405180910390a1612111565b7f5db9ee0a495bf2e6ff9c91a7834c1ba4fdd244a5e8aa4e537bd38aeae4b073aa33604051808273ffffffffffffffffffffffffffffffffffffffff1673ffffffffffffffffffffffffffffffffffffffff16815260200191505060405180910390a15b80600060146101000a81548160ff02191690831515021790555050565b606060118054600181600116156101000203166002900480601f0160208091040260200160405190810160405280929190818152602001828054600181600116156101000203166002900480156121c65780601f1061219b576101008083540402835291602001916121c6565b820191906000526020600020905b8154815290600101906020018083116121a957829003601f168201915b5050505050905090565b6000600560008473ffffffffffffffffffffffffffffffffffffffff1673ffffffffffffffffffffffffffffffffffffffff16815260200190815260200160002060008373ffffffffffffffffffffffffffffffffffffffff1673ffffffffffffffffffffffffffffffffffffffff16815260200190815260200160002060009054906101000a900460ff16905092915050565b6000809054906101000a900473ffffffffffffffffffffffffffffffffffffffff1673ffffffffffffffffffffffffffffffffffffffff163373ffffffffffffffffffffffffffffffffffffffff1614612309576040517f08c379a0000000000000000000000000000000000000000000000000000000008152600401808060200182810382526025815260200180614e036025913960400191505060405180910390fd5b80600073ffffffffffffffffffffffffffffffffffffffff168173ffffffffffffffffffffffffffffffffffffffff161415612390576040517f08c379a0000000000000000000000000000000000000000000000000000000008152600401808060200182810382526023815260200180614e796023913960400191505060405180910390fd5b816000806101000a81548173ffffffffffffffffffffffffffffffffffffffff021916908373ffffffffffffffffffffffffffffffffffffffff1602179055505050565b60006123de614b19565b60405180604001604052808c6000600281106123f657fe5b602002015181526020018c60016002811061240d57fe5b6020020151815250816000018190525060405180604001604052808b60006002811061243557fe5b602002015181526020018b60016002811061244c57fe5b60200201518152508160200181905250604051806040016040528060405180604001604052808c60006002811061247f57fe5b602002015160006002811061249057fe5b602002015181526020018c6000600281106124a757fe5b60200201516001600281106124b857fe5b6020020151815250815260200160405180604001604052808c6001600281106124dd57fe5b60200201516000600281106124ee57fe5b602002015181526020018c60016002811061250557fe5b602002015160016002811061251657fe5b6020020151815250815250816040018190525060405180604001604052808960006002811061254157fe5b602002015181526020018960016002811061255857fe5b6020020151815250816060018190525060405180604001604052808860006002811061258057fe5b602002015181526020018860016002811061259757fe5b602002015181525081608001819052506040518060400160405280876000600281106125bf57fe5b60200201518152602001876001600281106125d657fe5b60200201518152508160a001819052506040518060400160405280866000600281106125fe57fe5b602002015181526020018660016002811061261557fe5b60200201518152508160e0018190525060405180604001604052808560006002811061263d57fe5b602002015181526020018560016002811061265457fe5b60200201518152508160c00181905250606060026040519080825280602002602001820160405280156126965781602001602082028038833980820191505090505b50905060008090505b60028110156126de578481600281106126b457fe5b60200201518282815181106126c557fe5b602002602001018181525050808060010191505061269f565b5060006126eb8284612c1a565b1415612747577f3f3cfdb26fb5f9f1786ab4f1a1f9cd4c0b5e726cbdfc26e495261731aad44e39604051808060200182810382526022815260200180614e9c6022913960400191505060405180910390a160019250505061274e565b6000925050505b9998505050505050505050565b6000806002600084815260200190815260200160002060009054906101000a900473ffffffffffffffffffffffffffffffffffffffff169050600073ffffffffffffffffffffffffffffffffffffffff168173ffffffffffffffffffffffffffffffffffffffff161415915050919050565b6000806127d983611ad3565b90508073ffffffffffffffffffffffffffffffffffffffff168473ffffffffffffffffffffffffffffffffffffffff16148061284857508373ffffffffffffffffffffffffffffffffffffffff166128308461137a565b73ffffffffffffffffffffffffffffffffffffffff16145b80612859575061285881856121d0565b5b91505092915050565b61286d838383612e42565b6128778382613182565b6128818282613320565b505050565b6000818301828402604051602001808381526020018281526020019250505060405160208183030381529060405280519060200120905092915050565b6000808284019050838110156128d857600080fd5b8091505092915050565b6128ec82826133e7565b6128f68282613320565b6128ff81613685565b5050565b61290c8161275b565b61291557600080fd5b6129c160118054600181600116156101000203166002900480601f0160208091040260200160405190810160405280929190818152602001828054600181600116156101000203166002900480156129ae5780601f10612983576101008083540402835291602001916129ae565b820191906000526020600020905b81548152906001019060200180831161299157829003601f168201915b50505050506129bc836136d1565b61381d565b6012600083815260200190815260200160002090805190602001906129e7929190614b8e565b5050565b600081600001549050919050565b6000612a1a8473ffffffffffffffffffffffffffffffffffffffff16613861565b612a275760019050612c12565b60008473ffffffffffffffffffffffffffffffffffffffff1663150b7a02338887876040518563ffffffff167c0100000000000000000000000000000000000000000000000000000000028152600401808573ffffffffffffffffffffffffffffffffffffffff1673ffffffffffffffffffffffffffffffffffffffff1681526020018473ffffffffffffffffffffffffffffffffffffffff1673ffffffffffffffffffffffffffffffffffffffff16815260200183815260200180602001828103825283818151815260200191508051906020019080838360005b83811015612b1e578082015181840152602081019050612b03565b50505050905090810190601f168015612b4b5780820380516001836020036101000a031916815260200191505b5095505050505050602060405180830381600087803b158015612b6d57600080fd5b505af1158015612b81573d6000803e3d6000fd5b505050506040513d6020811015612b9757600080fd5b8101908080519060200190929190505050905063150b7a027c0100000000000000000000000000000000000000000000000000000000027bffffffffffffffffffffffffffffffffffffffffffffffffffffffff1916817bffffffffffffffffffffffffffffffffffffffffffffffffffffffff1916149150505b949350505050565b6000612c24614c0e565b612c2c613874565b90508060e0015151600185510114612c4357600080fd5b612c4b614c7d565b6040518060400160405280600081526020016000815250905060008090505b8551811015612cc257612cb382612cae8560e001516001850181518110612c8d57fe5b6020026020010151898581518110612ca157fe5b6020026020010151613ea9565b613f3d565b91508080600101915050612c6a565b50612ce5818360e00151600081518110612cd857fe5b6020026020010151613f3d565b9050612d0e84600001518360000151612d018760200151613ff0565b612d0961408a565b614154565b612d1d57600192505050612e3c565b612d4482602001518560400151612d378760600151613ff0565b612d3f61408a565b614154565b612d5357600292505050612e3c565b612d7a84608001518360400151612d6d8760a00151613ff0565b612d7561408a565b614154565b612d8957600392505050612e3c565b612dd58460c001518360600151612db9612db485612daf8a600001518b60800151613f3d565b613f3d565b613ff0565b8560a00151612dcb8760800151613ff0565b8960400151614250565b612de457600492505050612e3c565b612e26612df5828660000151613f3d565b8560400151612e078760e00151613ff0565b8560c00151612e198960800151613ff0565b612e2161408a565b614250565b612e3557600592505050612e3c565b6000925050505b92915050565b8273ffffffffffffffffffffffffffffffffffffffff166002600083815260200190815260200160002060009054906101000a900473ffffffffffffffffffffffffffffffffffffffff1673ffffffffffffffffffffffffffffffffffffffff1614612f16576040517f08c379a00000000000000000000000000000000000000000000000000000000081526004018080602001828103825260198152602001807f41646472657373206d757374206f776e20746f6b656e2049440000000000000081525060200191505060405180910390fd5b60001515612f398373ffffffffffffffffffffffffffffffffffffffff16613861565b1515148015612f755750600073ffffffffffffffffffffffffffffffffffffffff168273ffffffffffffffffffffffffffffffffffffffff1614155b612fe7576040517f08c379a00000000000000000000000000000000000000000000000000000000081526004018080602001828103825260198152602001807f56616c696420616464726573732069732072657175697265640000000000000081525060200191505060405180910390fd5b612ff081614380565b816003600083815260200190815260200160002060006101000a81548173ffffffffffffffffffffffffffffffffffffffff021916908373ffffffffffffffffffffffffffffffffffffffff160217905550613089600460008573ffffffffffffffffffffffffffffffffffffffff1673ffffffffffffffffffffffffffffffffffffffff16815260200190815260200160002061443e565b6130d0600460008473ffffffffffffffffffffffffffffffffffffffff1673ffffffffffffffffffffffffffffffffffffffff168152602001908152602001600020614461565b826002600083815260200190815260200160002060006101000a81548173ffffffffffffffffffffffffffffffffffffffff021916908373ffffffffffffffffffffffffffffffffffffffff160217905550808273ffffffffffffffffffffffffffffffffffffffff168473ffffffffffffffffffffffffffffffffffffffff167fddf252ad1be2c89b69c2b068fc378daa952ba7f163c4a11628f55a4df523b3ef60405160405180910390a4505050565b60006131da6001600660008673ffffffffffffffffffffffffffffffffffffffff1673ffffffffffffffffffffffffffffffffffffffff1681526020019081526020016000208054905061447790919063ffffffff16565b90506000600760008481526020019081526020016000205490508181146132c7576000600660008673ffffffffffffffffffffffffffffffffffffffff1673ffffffffffffffffffffffffffffffffffffffff168152602001908152602001600020838154811061324757fe5b9060005260206000200154905080600660008773ffffffffffffffffffffffffffffffffffffffff1673ffffffffffffffffffffffffffffffffffffffff168152602001908152602001600020838154811061329f57fe5b9060005260206000200181905550816007600083815260200190815260200160002081905550505b600660008573ffffffffffffffffffffffffffffffffffffffff1673ffffffffffffffffffffffffffffffffffffffff1681526020019081526020016000208054809190600190036133199190614c97565b5050505050565b600660008373ffffffffffffffffffffffffffffffffffffffff1673ffffffffffffffffffffffffffffffffffffffff168152602001908152602001600020805490506007600083815260200190815260200160002081905550600660008373ffffffffffffffffffffffffffffffffffffffff1673ffffffffffffffffffffffffffffffffffffffff1681526020019081526020016000208190806001815401808255809150509060018203906000526020600020016000909192909190915055505050565b600073ffffffffffffffffffffffffffffffffffffffff166003600083815260200190815260200160002060009054906101000a900473ffffffffffffffffffffffffffffffffffffffff1673ffffffffffffffffffffffffffffffffffffffff16146134bc576040517f08c379a00000000000000000000000000000000000000000000000000000000081526004018080602001828103825260178152602001807f546f6b656e20494420616c72656164792065786973747300000000000000000081525060200191505060405180910390fd5b600015156134df8373ffffffffffffffffffffffffffffffffffffffff16613861565b151514801561351b5750600073ffffffffffffffffffffffffffffffffffffffff168273ffffffffffffffffffffffffffffffffffffffff1614155b61358d576040517f08c379a00000000000000000000000000000000000000000000000000000000081526004018080602001828103825260198152602001807f56616c696420616464726573732069732072657175697265640000000000000081525060200191505060405180910390fd5b816002600083815260200190815260200160002060006101000a81548173ffffffffffffffffffffffffffffffffffffffff021916908373ffffffffffffffffffffffffffffffffffffffff160217905550613626600460008473ffffffffffffffffffffffffffffffffffffffff1673ffffffffffffffffffffffffffffffffffffffff168152602001908152602001600020614461565b808273ffffffffffffffffffffffffffffffffffffffff163373ffffffffffffffffffffffffffffffffffffffff167fddf252ad1be2c89b69c2b068fc378daa952ba7f163c4a11628f55a4df523b3ef60405160405180910390a45050565b6008805490506009600083815260200190815260200160002081905550600881908060018154018082558091505090600182039060005260206000200160009091929091909150555050565b60606000821415613719576040518060400160405280600181526020017f30000000000000000000000000000000000000000000000000000000000000008152509050613818565b600082905060005b60008214613743578080600101915050600a828161373b57fe5b049150613721565b6060816040519080825280601f01601f1916602001820160405280156137785781602001600182028038833980820191505090505b50905060006001830390505b6000861461381057600a868161379657fe5b066030017f010000000000000000000000000000000000000000000000000000000000000002828280600190039350815181106137cf57fe5b60200101907effffffffffffffffffffffffffffffffffffffffffffffffffffffffffffff1916908160001a905350600a868161380857fe5b049550613784565b819450505050505b919050565b60606138598383604051806020016040528060008152506040518060200160405280600081525060405180602001604052806000815250614497565b905092915050565b600080823b905060008111915050919050565b61387c614c0e565b604051806040016040528060405180604001604052807f124f25e459cb0cc2af8637ba6fd5d00f052f9069e14b282f2778f30fb6c8bc8881526020017f23afd23e4c588f7e2b5cc378c173ff1f168d680123ef192564dc8ebc9e752d22815250815260200160405180604001604052807f0ca5f2ec0979d718c7ca4a73d0c51c6b46a1731ab12176e0e64770053df73de281526020017f175fd471bc0c7e781b5b0068e7b59300b030b92d9993d8d62c232838bba45381815250815250816000018190525060405180604001604052807f1209015799d52cbe1bf8615e3c9eda3a310b26daf4b949f553147d4e569dd71581526020017f02bcd5f4e3867685b9c2c64b758cf5bfef7fc3ed498f1c08760416acc01dcfd38152508160200181905250604051806040016040528060405180604001604052807f28632caebd23d1d729bd33051e6e256ee06e1892abd04069e89cfefe2cb06eda81526020017f1595650b4983b57389de943264d7835da00d8905532ea88c725d551bb0da96e9815250815260200160405180604001604052807f21731e3804223c31331181e67681d39171ba8c33986cf2f010056e2d2a77fa5b81526020017f0d4eb2fb065594ebfb7177d9c3a4905155987c47ec5e726edeed06e582bb3b3b8152508152508160400181905250604051806040016040528060405180604001604052807f2f8c13a08758c996b6cc1cf7222e43bedf21a5132a4a73e165c67dc71cbd3d9581526020017f16cb763e58daa37d5334be26cb2c687538f8cc3ef0e496b60f672c643381698f815250815260200160405180604001604052807f1d3059c69b8269c0ae8d69ab72a4e925063f0827cc5f3b17a9f7668b1b69306f81526020017f0973f54a3c12560ff05f7f9c2f10857c0fb68e931150e447d89789a80ad97b40815250815250816060018190525060405180604001604052807f18218deb364e84cc27ec952e0d5d86300307f663ce5d26be556f6e93c958953f81526020017f0dedc59da1aba00251592774c7fd153ea7b4fc08a379135a6a52f591069d63168152508160800181905250604051806040016040528060405180604001604052807f0b51e55eabcbab3fefa674af59fbc62b914579c0a2e52edc63da03bc1ebd0e7f81526020017f10e72dde3034d07d18be7c5d357cfa24c96ddcca6360892e77fe6aa07478d040815250815260200160405180604001604052807f128d7ee5a970c5e4350927411e9c5a97f066cfacb9c2c4cf2ba5fcc2f378481d81526020017f20d63654b96b208c2b819a301f8962bc57f464190761104dcf67c72360f299458152508152508160a00181905250604051806040016040528060405180604001604052807f0ce64300b221e264b50789afbb4ecde52fe7f4334e6aa7ba08e100e1f172e97381526020017f0fdeb333da2803e6581fe19c43dd5ff4e3435df4fb1fb9342768db42abd68ded815250815260200160405180604001604052807f21e3d058af3257c8b2cfc3fe1748d8b4eb1879106b7f41d62df985c4ee4887dc81526020017f0e4621035baba7d516fcea38167aaee5fd46f579f1a51032248ec651018bfad58152508152508160c001819052506003604051908082528060200260200182016040528015613d4a57816020015b613d37614cc3565b815260200190600190039081613d2f5790505b508160e0018190525060405180604001604052807f13c966ebc58d6b834ef606b9a51a3e540d0177fa4439a5986f934ee2632c223e81526020017f106ac57d777338b6c71d36f2b25160037c0b6cbbb93abbf467d2ea6b5cc8a0d58152508160e00151600081518110613db957fe5b602002602001018190525060405180604001604052807f073508cc87513974b79386b222a1fcb37ee4882b38cd6d717616a8cd7c4f0b4481526020017f2499b923f6b17bbebddc353f926c58a2c29f5c93eff794b5c211eb66084779958152508160e00151600181518110613e2a57fe5b602002602001018190525060405180604001604052807f133e18907519e7420261602ef51f53e889cd71321f6ecc218c11c69ac3adb2f981526020017f0a6e14669d1a276c72e2a38db6c7d7a9320a9bfd1f2aebb6a647c466ecf49dad8152508160e00151600281518110613e9b57fe5b602002602001018190525090565b613eb1614c7d565b613eb9614cdd565b836000015181600060038110613ecb57fe5b602002018181525050836020015181600160038110613ee657fe5b6020020181815250508281600260038110613efd57fe5b6020020181815250506000606083608084600060076107d05a03f190508060008114613f2857613f2a565bfe5b5080613f3557600080fd5b505092915050565b613f45614c7d565b613f4d614cff565b836000015181600060048110613f5f57fe5b602002018181525050836020015181600160048110613f7a57fe5b602002018181525050826000015181600260048110613f9557fe5b602002018181525050826020015181600360048110613fb057fe5b602002018181525050600060608360c084600060066107d05a03f190508060008114613fdb57613fdd565bfe5b5080613fe857600080fd5b505092915050565b613ff8614c7d565b60007f30644e72e131a029b85045b68181585d97816a916871ca8d3c208c16d87cfd47905060008360000151148015614035575060008360200151145b15614059576040518060400160405280600081526020016000815250915050614085565b6040518060400160405280846000015181526020018285602001518161407b57fe5b0683038152509150505b919050565b614092614d21565b604051806040016040528060405180604001604052807f198e9393920d483a7260bfb731fb5d25f1aa493335a9e71297e485b7aef312c281526020017f1800deef121f1e76426a00665e5c4479674322d4f75edadd46debd5cd992f6ed815250815260200160405180604001604052807f090689d0585ff075ec9e99ad690c3395bc4b313370b38ef355acdadcd122975b81526020017f12c85ea5db8c6deb4aab71808dcb408fe3d1e7690c43d37b4ce6cc0166fa7daa815250815250905090565b60006060600260405190808252806020026020018201604052801561419357816020015b614180614cc3565b8152602001906001900390816141785790505b509050606060026040519080825280602002602001820160405280156141d357816020015b6141c0614d47565b8152602001906001900390816141b85790505b50905086826000815181106141e457fe5b602002602001018190525084826001815181106141fd57fe5b6020026020010181905250858160008151811061421657fe5b6020026020010181905250838160018151811061422f57fe5b60200260200101819052506142448282614894565b92505050949350505050565b60006060600360405190808252806020026020018201604052801561428f57816020015b61427c614cc3565b8152602001906001900390816142745790505b509050606060036040519080825280602002602001820160405280156142cf57816020015b6142bc614d47565b8152602001906001900390816142b45790505b50905088826000815181106142e057fe5b602002602001018190525086826001815181106142f957fe5b6020026020010181905250848260028151811061431257fe5b6020026020010181905250878160008151811061432b57fe5b6020026020010181905250858160018151811061434457fe5b6020026020010181905250838160028151811061435d57fe5b60200260200101819052506143728282614894565b925050509695505050505050565b600073ffffffffffffffffffffffffffffffffffffffff166003600083815260200190815260200160002060009054906101000a900473ffffffffffffffffffffffffffffffffffffffff1673ffffffffffffffffffffffffffffffffffffffff161461443b5760006003600083815260200190815260200160002060006101000a81548173ffffffffffffffffffffffffffffffffffffffff021916908373ffffffffffffffffffffffffffffffffffffffff1602179055505b50565b6144566001826000015461447790919063ffffffff16565b816000018190555050565b6001816000016000828254019250508190555050565b60008282111561448657600080fd5b600082840390508091505092915050565b6060808690506060869050606086905060608690506060869050606081518351855187518951010101016040519080825280601f01601f1916602001820160405280156144f35781602001600182028038833980820191505090505b509050606081905060008090506000809050600090505b88518110156145b75788818151811061451f57fe5b60200101517f010000000000000000000000000000000000000000000000000000000000000090047f01000000000000000000000000000000000000000000000000000000000000000283838060010194508151811061457b57fe5b60200101907effffffffffffffffffffffffffffffffffffffffffffffffffffffffffffff1916908160001a905350808060010191505061450a565b600090505b8751811015614669578781815181106145d157fe5b60200101517f010000000000000000000000000000000000000000000000000000000000000090047f01000000000000000000000000000000000000000000000000000000000000000283838060010194508151811061462d57fe5b60200101907effffffffffffffffffffffffffffffffffffffffffffffffffffffffffffff1916908160001a90535080806001019150506145bc565b600090505b865181101561471b5786818151811061468357fe5b60200101517f010000000000000000000000000000000000000000000000000000000000000090047f0100000000000000000000000000000000000000000000000000000000000000028383806001019450815181106146df57fe5b60200101907effffffffffffffffffffffffffffffffffffffffffffffffffffffffffffff1916908160001a905350808060010191505061466e565b600090505b85518110156147cd5785818151811061473557fe5b60200101517f010000000000000000000000000000000000000000000000000000000000000090047f01000000000000000000000000000000000000000000000000000000000000000283838060010194508151811061479157fe5b60200101907effffffffffffffffffffffffffffffffffffffffffffffffffffffffffffff1916908160001a9053508080600101915050614720565b600090505b845181101561487f578481815181106147e757fe5b60200101517f010000000000000000000000000000000000000000000000000000000000000090047f01000000000000000000000000000000000000000000000000000000000000000283838060010194508151811061484357fe5b60200101907effffffffffffffffffffffffffffffffffffffffffffffffffffffffffffff1916908160001a90535080806001019150506147d2565b82995050505050505050505095945050505050565b600081518351146148a457600080fd5b60008351905060006006820290506060816040519080825280602002602001820160405280156148e35781602001602082028038833980820191505090505b50905060008090505b83811015614a895786818151811061490057fe5b60200260200101516000015182600060068402018151811061491e57fe5b60200260200101818152505086818151811061493657fe5b60200260200101516020015182600160068402018151811061495457fe5b60200260200101818152505085818151811061496c57fe5b60200260200101516000015160006002811061498457fe5b602002015182600260068402018151811061499b57fe5b6020026020010181815250508581815181106149b357fe5b6020026020010151600001516001600281106149cb57fe5b60200201518260036006840201815181106149e257fe5b6020026020010181815250508581815181106149fa57fe5b602002602001015160200151600060028110614a1257fe5b6020020151826004600684020181518110614a2957fe5b602002602001018181525050858181518110614a4157fe5b602002602001015160200151600160028110614a5957fe5b6020020151826005600684020181518110614a7057fe5b60200260200101818152505080806001019150506148ec565b50614a92614d6d565b60006020826020860260208601600060086107d05a03f190508060008114614ab957614abb565bfe5b5080614ac657600080fd5b600082600060018110614ad557fe5b602002015114159550505050505092915050565b604051806040016040528060008152602001600073ffffffffffffffffffffffffffffffffffffffff1681525090565b604051806102400160405280614b2d614cc3565b8152602001614b3a614cc3565b8152602001614b47614d47565b8152602001614b54614cc3565b8152602001614b61614cc3565b8152602001614b6e614cc3565b8152602001614b7b614cc3565b8152602001614b88614cc3565b81525090565b828054600181600116156101000203166002900490600052602060002090601f016020900481019282601f10614bcf57805160ff1916838001178555614bfd565b82800160010185558215614bfd579182015b82811115614bfc578251825591602001919060010190614be1565b5b509050614c0a9190614d8f565b5090565b604051806103200160405280614c22614d47565b8152602001614c2f614cc3565b8152602001614c3c614d47565b8152602001614c49614d47565b8152602001614c56614cc3565b8152602001614c63614d47565b8152602001614c70614d47565b8152602001606081525090565b604051806040016040528060008152602001600081525090565b815481835581811115614cbe57818360005260206000209182019101614cbd9190614d8f565b5b505050565b604051806040016040528060008152602001600081525090565b6040518060600160405280600390602082028038833980820191505090505090565b6040518060800160405280600490602082028038833980820191505090505090565b6040518060800160405280614d34614db4565b8152602001614d41614db4565b81525090565b6040518060800160405280614d5a614db4565b8152602001614d67614db4565b81525090565b6040518060200160405280600190602082028038833980820191505090505090565b614db191905b80821115614dad576000816000905550600101614d95565b5090565b90565b604051806040016040528060029060208202803883398082019150509050509056fe46756e6374696f6e206d757374206f6e6c792063616c6c656420627920636f6e7472616374206f776e65722e4163636f756e74206d7573742062656c6f6e6720746f20636f6e7472616374206f776e657253656e646572206d757374206265206f776e6572206f662074686520636f6e7472616374536f6c7574696f6e207468617420616c7265616479206578697374732063616e6e6f742062652061646465642e53656e64696e67206163636f756e74206d757374206e6f7420626520696e76616c69645472616e73616374696f6e207375636365737366756c6c792076657269666965642e4d6574686f642063616e206f6e6c792062652063616c6c65642062792074686520636f6e7472616374206f776e65722e536f6c7574696f6e20646f6573206e6f74206578697374206f7220736f6c7574696f6e20686173206265656e2075736564a165627a7a72305820b45fa1cbb4e9507002ba16a16d0434f1312903916f68d64264ad850ed1b755d8002968747470733a2f2f73332d75732d776573742d322e616d617a6f6e6177732e636f6d2f756461636974792d626c6f636b636861696e2f63617073746f6e652f",
  "source": "pragma solidity >=0.4.21 <0.6.0;\n\nimport './ERC721Mintable.sol';\nimport './verifier.sol';\n\ncontract SolnSquareVerifier is ERC721MintableComplete, Verifier {\n    \n    uint256 currentIndex;\n\n    constructor(string memory name, string memory symbol) ERC721MintableComplete(name, symbol) public {         \n        currentIndex = 0;     \n    }\n\n    struct Solution {\n        uint256 index;\n        address solAddress;\n    }\n\n    mapping(uint256 => Solution) private storedSolutions; \n\n    //enumerator to track state of solution\n    enum SolutionState { Unverfied, Verified, Used }\n\n    // mapping to store unique solutions submitted\n    mapping(bytes32 => SolutionState) private acceptedSolutions;\n\n    // event to emit when a solution is added\n    event SolutionAdded(address indexed solAddress, uint256 indexed index);\n\n    modifier verifiedSolutionNotUsed(uint a, uint b) {\n        bytes32 hasedResult = hashSolution(a,b);\n        require(acceptedSolutions[hasedResult] == SolutionState.Verified, \"Solution does not exist or solution has been used\");\n        _;\n    }\n\n    modifier solutionDoesNotExists(uint a, uint b) {\n        bytes32 hasedResult = hashSolution(a,b);\n        require(acceptedSolutions[hasedResult] != SolutionState.Verified, \"Solution that already exists cannot be added.\");\n        _;\n    }\n\n    // function to add the solutions to the array and emit the event\n    function addSolution(\n            uint[2] memory a,\n            uint[2] memory a_p,\n            uint[2][2] memory b,\n            uint[2] memory b_p,\n            uint[2] memory c,\n            uint[2] memory c_p,\n            uint[2] memory h,\n            uint[2] memory k,\n            uint[2] memory input\n        ) public solutionDoesNotExists(input[0],input[1]) returns (bool r)\n        {\n            r = verifyTx(a,a_p,b,b_p,c,c_p,h,k,input);\n            if (r) {\n                Solution memory newSolution = Solution(currentIndex,msg.sender);\n                storedSolutions[currentIndex] = newSolution;\n                emit SolutionAdded(msg.sender,currentIndex);                \n                bytes32 hashResult = hashSolution(input[0],input[1]);\n                acceptedSolutions[hashResult] = SolutionState.Verified;\n            }\n        }\n    \n    function mintNewToken (uint[2] memory input, address to) verifiedSolutionNotUsed(input[0],input[1]) public returns (bool r) {\n        r = mint(to,currentIndex);\n        bytes32 hashResult = hashSolution(input[0],input[1]);\n        acceptedSolutions[hashResult] = SolutionState.Used;\n        currentIndex.add(1);\n        return r;\n    }\n\n    function hashSolution(uint a, uint b) private pure returns(bytes32 hashedSolution) {\n        hashedSolution = keccak256(abi.encodePacked(a+b, a*b));\n    }   \n}\n\n\n\n\n\n\n\n\n\n\n\n\n\n\n\n\n\n\n\n\n\n",
  "sourcePath": "/Users/joeyberger/Desktop/Udacity/Blockchain Nanodegree/GitHub Repos/Real-Estate-Token/eth-contracts/contracts/SolnSquareVerifier.sol",
  "compiler": {
    "name": "solc",
    "version": "0.5.7+commit.6da8b019.Emscripten.clang"
  },
  "schemaVersion": "3.0.2",
  "updatedAt": "2019-04-22T03:20:56.233Z",
  "devdoc": {
    "methods": {
      "isApprovedForAll(address,address)": {
        "details": "Tells whether an operator is approved by a given owner",
        "params": {
          "operator": "operator address which you want to query the approval of",
          "owner": "owner address which you want to query the approval of"
        },
        "return": "bool whether the given operator is approved by the given owner"
      },
      "setApprovalForAll(address,bool)": {
        "details": "Sets or unsets the approval of a given operator An operator is allowed to transfer all tokens of the sender on their behalf",
        "params": {
          "approved": "representing the status of the approval to be set",
          "to": "operator address to set the approval"
        }
      },
      "supportsInterface(bytes4)": {
        "details": "implement supportsInterface(bytes4) using a lookup table"
      },
      "tokenByIndex(uint256)": {
        "details": "Gets the token ID at a given index of all the tokens in this contract Reverts if the index is greater or equal to the total number of tokens",
        "params": {
          "index": "uint256 representing the index to be accessed of the tokens list"
        },
        "return": "uint256 token ID at the given index of the tokens list"
      },
      "tokenOfOwnerByIndex(address,uint256)": {
        "details": "Gets the token ID at a given index of the tokens list of the requested owner",
        "params": {
          "index": "uint256 representing the index to be accessed of the requested tokens list",
          "owner": "address owning the tokens list to be accessed"
        },
        "return": "uint256 token ID at the given index of the tokens list owned by the requested address"
      },
      "totalSupply()": {
        "details": "Gets the total amount of tokens stored by the contract",
        "return": "uint256 representing the total amount of tokens"
      }
    }
  },
  "userdoc": {
    "methods": {}
  }
}