{
  "contractName": "VerifierInterface",
  "abi": [
    {
      "constant": false,
      "inputs": [
        {
          "name": "a",
          "type": "uint256[2]"
        },
        {
          "name": "a_p",
          "type": "uint256[2]"
        },
        {
          "name": "b",
          "type": "uint256[2][2]"
        },
        {
          "name": "b_p",
          "type": "uint256[2]"
        },
        {
          "name": "c",
          "type": "uint256[2]"
        },
        {
          "name": "c_p",
          "type": "uint256[2]"
        },
        {
          "name": "h",
          "type": "uint256[2]"
        },
        {
          "name": "k",
          "type": "uint256[2]"
        },
        {
          "name": "input",
          "type": "uint256[2]"
        }
      ],
      "name": "verifyTx",
      "outputs": [
        {
          "name": "r",
          "type": "bool"
        }
      ],
      "payable": false,
      "stateMutability": "nonpayable",
      "type": "function",
      "signature": "0xfe01ff62"
    },
    {
      "constant": false,
      "inputs": [],
      "name": "test",
      "outputs": [
        {
          "name": "",
          "type": "bool"
        }
      ],
      "payable": false,
      "stateMutability": "nonpayable",
      "type": "function",
      "signature": "0xf8a8fd6d"
    }
  ],
  "bytecode": "0x608060405234801561001057600080fd5b50610380806100206000396000f3fe608060405234801561001057600080fd5b5060043610610053576000357c010000000000000000000000000000000000000000000000000000000090048063f8a8fd6d14610058578063fe01ff621461007a575b600080fd5b610060610338565b604051808215151515815260200191505060405180910390f35b61031e600480360361028081101561009157600080fd5b8101908080604001906002806020026040519081016040528092919082600260200280828437600081840152601f19601f820116905080830192505050505050919291929080604001906002806020026040519081016040528092919082600260200280828437600081840152601f19601f82011690508083019250505050505091929192908060800190600280602002604051908101604052809291906000905b82821015610187578382604002016002806020026040519081016040528092919082600260200280828437600081840152601f19601f82011690508083019250505050505081526020019060010190610133565b50505050919291929080604001906002806020026040519081016040528092919082600260200280828437600081840152601f19601f820116905080830192505050505050919291929080604001906002806020026040519081016040528092919082600260200280828437600081840152601f19601f820116905080830192505050505050919291929080604001906002806020026040519081016040528092919082600260200280828437600081840152601f19601f820116905080830192505050505050919291929080604001906002806020026040519081016040528092919082600260200280828437600081840152601f19601f820116905080830192505050505050919291929080604001906002806020026040519081016040528092919082600260200280828437600081840152601f19601f820116905080830192505050505050919291929080604001906002806020026040519081016040528092919082600260200280828437600081840152601f19601f8201169050808301925050505050509192919290505050610341565b604051808215151515815260200191505060405180910390f35b60006001905090565b600060019050999850505050505050505056fea165627a7a7230582019d91ca1e73ca1fb2a94d3693f6e1e98694e32bbd8e4efbbd3432451ff0f745c0029",
  "source": "pragma solidity >=0.4.21 <0.6.0;\n\nimport './ERC721Mintable.sol';\nimport './verifier.sol';\n\n// TODO define another contract named SolnSquareVerifier that inherits from your ERC721Mintable class\ncontract SolnSquareVerifier is ERC721MintableComplete, Verifier {\n\n    VerifierInterface verifierInterface;\n    uint256 currentIndex;\n\n    constructor(address verifierAddress, string memory name, string memory symbol) ERC721MintableComplete(name, symbol) public {         \n        verifierInterface = VerifierInterface(verifierAddress);   \n        currentIndex = 0;     \n    }\n\n    // TODO define a solutions struct that can hold an index & an address\n    struct Solution {\n        uint256 index;\n        address solAddress;\n    }\n\n    //enumerator to track state of solution\n    enum SolutionState { Unverfied, Verified, Used }\n\n    // TODO define a mapping to store unique solutions submitted\n    mapping(bytes32 => SolutionState) private acceptedSolutions;\n\n    // TODO Create an event to emit when a solution is added\n    event SolutionAdded(address indexed solAddress, uint256 indexed index);\n\n    modifier verifiedSolutionNotUsed(uint a, uint b) {\n        bytes32 hasedResult = hashSolution(a,b);\n        require(acceptedSolutions[hasedResult] == SolutionState.Verified, \"Solution does not exist or solution has been used\");\n        _;\n    }\n\n    modifier solutionDoesNotExists(uint a, uint b) {\n        bytes32 hasedResult = hashSolution(a,b);\n        require(acceptedSolutions[hasedResult] != SolutionState.Verified, \"Solution that already exists cannot be added.\");\n        _;\n    }\n\n    // TODO Create a function to add the solutions to the array and emit the event\n    function addSolution(\n            uint[2] memory a,\n            uint[2] memory a_p,\n            uint[2][2] memory b,\n            uint[2] memory b_p,\n            uint[2] memory c,\n            uint[2] memory c_p,\n            uint[2] memory h,\n            uint[2] memory k,\n            uint[2] memory input\n        ) public solutionDoesNotExists(input[0],input[1]) returns (bool r)\n        {\n            //r = verifierInterface.verifyTx(a,a_p,b,b_p,c,c_p,h,k,input);\n            // r = verifierInterface.test();\n            // if (r) {\n            //     // Solution memory newSolution = Solution(index,solAddress);\n            //     // emit SolutionAdded(solAddress,index);\n            //     // currentIndex.add(1);\n            // }         \n            \n            r = verifyTx(a,a_p,b,b_p,c,c_p,h,k,input);\n            if (r) {\n                Solution memory newSolution = Solution(currentIndex,msg.sender);\n                emit SolutionAdded(msg.sender,currentIndex);                \n                bytes32 hashResult = hashSolution(input[0],input[1]);\n                acceptedSolutions[hashResult] = SolutionState.Verified;\n            }\n        }\n    \n\n    // TODO Create a function to mint new NFT only after the solution has been verified\n    //  - make sure the solution is unique (has not been used before)\n    //  - make sure you handle metadata as well as tokenSupply\n    //function mintNewToken (address to, uint256 tokenId) public returns(bool success) {\n\n    //TODO:need to satisfy new solution\n    function mintNewToken (uint[2] memory input, address to) verifiedSolutionNotUsed(input[0],input[1]) public returns (bool r) {\n        r = mint(to,currentIndex);\n        bytes32 hashResult = hashSolution(input[0],input[1]);\n        acceptedSolutions[hashResult] = SolutionState.Used;\n        currentIndex.add(1);\n        return true;\n    }\n\n    function hashSolution(uint a, uint b) private returns(bytes32 hashedSolution) {\n        hashedSolution = keccak256(abi.encodePacked(a+b, a*b));\n    }   \n}\n\n// TODO define a contract call to the zokrates generated solidity contract <Verifier> or <renamedVerifier>\n\n//Data Interface\ncontract VerifierInterface //is Verifier  \n{\n    function verifyTx(\n            uint[2] memory a,\n            uint[2] memory a_p,\n            uint[2][2] memory b,\n            uint[2] memory b_p,\n            uint[2] memory c,\n            uint[2] memory c_p,\n            uint[2] memory h,\n            uint[2] memory k,\n            uint[2] memory input\n        ) public returns (bool r) \n        {\n            r = true;\n            // r = verifyTx(\n            //     a,\n            //     a_p,\n            //     b,\n            //     b_p,\n            //     c,\n            //     c_p,\n            //     h,\n            //     k,\n            //     input\n            // );\n        }\n\n    function test() public returns(bool) {\n        return true;\n    }\n}\n\n// contract SquareVerifier {\n//     function verifyTxTEST(\n//         uint[2] memory a,\n//         uint[2] memory a_p,\n//         uint[2][2] memory b,\n//         uint[2] memory b_p,\n//         uint[2] memory c,\n//         uint[2] memory c_p,\n//         uint[2] memory h,\n//         uint[2] memory k,\n//         uint[2] memory input\n//     ) public returns (bool r) \n//     {\n//         //r = true;\n//         r = verifyTx(\n//             a,\n//             a_p,\n//             b,\n//             b_p,\n//             c,\n//             c_p,\n//             h,\n//             k,\n//             input\n//         );\n//     }\n// }\n\n\n\n\n\n\n\n\n\n\n\n\n\n\n\n\n\n\n\n\n\n",
  "sourcePath": "/Users/joeyberger/Desktop/Udacity/Blockchain Nanodegree/GitHub Repos/Real-Estate-Token/eth-contracts/contracts/SolnSquareVerifier.sol",
  "compiler": {
    "name": "solc",
    "version": "0.5.7+commit.6da8b019.Emscripten.clang"
  },
  "schemaVersion": "3.0.2",
  "updatedAt": "2019-04-12T04:28:12.361Z",
  "devdoc": {
    "methods": {}
  },
  "userdoc": {
    "methods": {}
  }
}